{
  "_format": "hh-sol-artifact-1",
  "contractName": "MultiFeeDistribution",
  "sourceName": "contracts/staking/MultiFeeDistribution.sol",
  "abi": [
    {
      "inputs": [
        {
          "internalType": "address",
          "name": "_stakingToken",
          "type": "address"
        }
      ],
      "stateMutability": "nonpayable",
      "type": "constructor"
    },
    {
      "anonymous": false,
      "inputs": [
        {
          "indexed": true,
          "internalType": "address",
          "name": "previousOwner",
          "type": "address"
        },
        {
          "indexed": true,
          "internalType": "address",
          "name": "newOwner",
          "type": "address"
        }
      ],
      "name": "OwnershipTransferred",
      "type": "event"
    },
    {
      "anonymous": false,
      "inputs": [
        {
          "indexed": false,
          "internalType": "address",
          "name": "token",
          "type": "address"
        },
        {
          "indexed": false,
          "internalType": "uint256",
          "name": "amount",
          "type": "uint256"
        }
      ],
      "name": "Recovered",
      "type": "event"
    },
    {
      "anonymous": false,
      "inputs": [
        {
          "indexed": false,
          "internalType": "uint256",
          "name": "reward",
          "type": "uint256"
        }
      ],
      "name": "RewardAdded",
      "type": "event"
    },
    {
      "anonymous": false,
      "inputs": [
        {
          "indexed": true,
          "internalType": "address",
          "name": "user",
          "type": "address"
        },
        {
          "indexed": true,
          "internalType": "address",
          "name": "rewardsToken",
          "type": "address"
        },
        {
          "indexed": false,
          "internalType": "uint256",
          "name": "reward",
          "type": "uint256"
        }
      ],
      "name": "RewardPaid",
      "type": "event"
    },
    {
      "anonymous": false,
      "inputs": [
        {
          "indexed": false,
          "internalType": "address",
          "name": "token",
          "type": "address"
        },
        {
          "indexed": false,
          "internalType": "uint256",
          "name": "newDuration",
          "type": "uint256"
        }
      ],
      "name": "RewardsDurationUpdated",
      "type": "event"
    },
    {
      "anonymous": false,
      "inputs": [
        {
          "indexed": true,
          "internalType": "address",
          "name": "user",
          "type": "address"
        },
        {
          "indexed": false,
          "internalType": "uint256",
          "name": "amount",
          "type": "uint256"
        }
      ],
      "name": "Staked",
      "type": "event"
    },
    {
      "anonymous": false,
      "inputs": [
        {
          "indexed": true,
          "internalType": "address",
          "name": "user",
          "type": "address"
        },
        {
          "indexed": false,
          "internalType": "uint256",
          "name": "amount",
          "type": "uint256"
        }
      ],
      "name": "Withdrawn",
      "type": "event"
    },
    {
      "inputs": [
        {
          "internalType": "address",
          "name": "_rewardsToken",
          "type": "address"
        }
      ],
      "name": "addReward",
      "outputs": [],
      "stateMutability": "nonpayable",
      "type": "function"
    },
    {
      "inputs": [
        {
          "internalType": "address",
          "name": "account",
          "type": "address"
        }
      ],
      "name": "claimableRewards",
      "outputs": [
        {
          "components": [
            {
              "internalType": "address",
              "name": "token",
              "type": "address"
            },
            {
              "internalType": "uint256",
              "name": "amount",
              "type": "uint256"
            }
          ],
          "internalType": "struct MultiFeeDistribution.RewardData[]",
          "name": "rewards",
          "type": "tuple[]"
        }
      ],
      "stateMutability": "view",
      "type": "function"
    },
    {
      "inputs": [
        {
          "internalType": "address",
          "name": "user",
          "type": "address"
        }
      ],
      "name": "earnedBalances",
      "outputs": [
        {
          "internalType": "uint256",
          "name": "total",
          "type": "uint256"
        },
        {
          "components": [
            {
              "internalType": "uint256",
              "name": "amount",
              "type": "uint256"
            },
            {
              "internalType": "uint256",
              "name": "unlockTime",
              "type": "uint256"
            }
          ],
          "internalType": "struct MultiFeeDistribution.LockedBalance[]",
          "name": "earningsData",
          "type": "tuple[]"
        }
      ],
      "stateMutability": "view",
      "type": "function"
    },
    {
      "inputs": [],
      "name": "exit",
      "outputs": [],
      "stateMutability": "nonpayable",
      "type": "function"
    },
    {
      "inputs": [],
      "name": "getReward",
      "outputs": [],
      "stateMutability": "nonpayable",
      "type": "function"
    },
    {
      "inputs": [
        {
          "internalType": "address",
          "name": "_rewardsToken",
          "type": "address"
        }
      ],
      "name": "getRewardForDuration",
      "outputs": [
        {
          "internalType": "uint256",
          "name": "",
          "type": "uint256"
        }
      ],
      "stateMutability": "view",
      "type": "function"
    },
    {
      "inputs": [
        {
          "internalType": "address",
          "name": "_rewardsToken",
          "type": "address"
        }
      ],
      "name": "lastTimeRewardApplicable",
      "outputs": [
        {
          "internalType": "uint256",
          "name": "",
          "type": "uint256"
        }
      ],
      "stateMutability": "view",
      "type": "function"
    },
    {
      "inputs": [],
      "name": "lockDuration",
      "outputs": [
        {
          "internalType": "uint256",
          "name": "",
          "type": "uint256"
        }
      ],
      "stateMutability": "view",
      "type": "function"
    },
    {
      "inputs": [
        {
          "internalType": "address",
          "name": "user",
          "type": "address"
        }
      ],
      "name": "lockedBalances",
      "outputs": [
        {
          "internalType": "uint256",
          "name": "total",
          "type": "uint256"
        },
        {
          "internalType": "uint256",
          "name": "unlockable",
          "type": "uint256"
        },
        {
          "internalType": "uint256",
          "name": "locked",
          "type": "uint256"
        },
        {
          "components": [
            {
              "internalType": "uint256",
              "name": "amount",
              "type": "uint256"
            },
            {
              "internalType": "uint256",
              "name": "unlockTime",
              "type": "uint256"
            }
          ],
          "internalType": "struct MultiFeeDistribution.LockedBalance[]",
          "name": "lockData",
          "type": "tuple[]"
        }
      ],
      "stateMutability": "view",
      "type": "function"
    },
    {
      "inputs": [],
      "name": "lockedSupply",
      "outputs": [
        {
          "internalType": "uint256",
          "name": "",
          "type": "uint256"
        }
      ],
      "stateMutability": "view",
      "type": "function"
    },
    {
      "inputs": [
        {
          "internalType": "address",
          "name": "user",
          "type": "address"
        },
        {
          "internalType": "uint256",
          "name": "amount",
          "type": "uint256"
        },
        {
          "internalType": "bool",
          "name": "withPenalty",
          "type": "bool"
        }
      ],
      "name": "mint",
      "outputs": [],
      "stateMutability": "nonpayable",
      "type": "function"
    },
    {
      "inputs": [
        {
          "internalType": "address",
          "name": "",
          "type": "address"
        }
      ],
      "name": "minters",
      "outputs": [
        {
          "internalType": "bool",
          "name": "",
          "type": "bool"
        }
      ],
      "stateMutability": "view",
      "type": "function"
    },
    {
      "inputs": [],
      "name": "mintersAreSet",
      "outputs": [
        {
          "internalType": "bool",
          "name": "",
          "type": "bool"
        }
      ],
      "stateMutability": "view",
      "type": "function"
    },
    {
      "inputs": [],
      "name": "owner",
      "outputs": [
        {
          "internalType": "address",
          "name": "",
          "type": "address"
        }
      ],
      "stateMutability": "view",
      "type": "function"
    },
    {
      "inputs": [
        {
          "internalType": "address",
          "name": "tokenAddress",
          "type": "address"
        },
        {
          "internalType": "uint256",
          "name": "tokenAmount",
          "type": "uint256"
        }
      ],
      "name": "recoverERC20",
      "outputs": [],
      "stateMutability": "nonpayable",
      "type": "function"
    },
    {
      "inputs": [],
      "name": "renounceOwnership",
      "outputs": [],
      "stateMutability": "nonpayable",
      "type": "function"
    },
    {
      "inputs": [
        {
          "internalType": "address",
          "name": "",
          "type": "address"
        }
      ],
      "name": "rewardData",
      "outputs": [
        {
          "internalType": "uint256",
          "name": "periodFinish",
          "type": "uint256"
        },
        {
          "internalType": "uint256",
          "name": "rewardRate",
          "type": "uint256"
        },
        {
          "internalType": "uint256",
          "name": "lastUpdateTime",
          "type": "uint256"
        },
        {
          "internalType": "uint256",
          "name": "rewardPerTokenStored",
          "type": "uint256"
        },
        {
          "internalType": "uint256",
          "name": "balance",
          "type": "uint256"
        }
      ],
      "stateMutability": "view",
      "type": "function"
    },
    {
      "inputs": [
        {
          "internalType": "address",
          "name": "_rewardsToken",
          "type": "address"
        }
      ],
      "name": "rewardPerToken",
      "outputs": [
        {
          "internalType": "uint256",
          "name": "",
          "type": "uint256"
        }
      ],
      "stateMutability": "view",
      "type": "function"
    },
    {
      "inputs": [
        {
          "internalType": "uint256",
          "name": "",
          "type": "uint256"
        }
      ],
      "name": "rewardTokens",
      "outputs": [
        {
          "internalType": "address",
          "name": "",
          "type": "address"
        }
      ],
      "stateMutability": "view",
      "type": "function"
    },
    {
      "inputs": [
        {
          "internalType": "address",
          "name": "",
          "type": "address"
        },
        {
          "internalType": "address",
          "name": "",
          "type": "address"
        }
      ],
      "name": "rewards",
      "outputs": [
        {
          "internalType": "uint256",
          "name": "",
          "type": "uint256"
        }
      ],
      "stateMutability": "view",
      "type": "function"
    },
    {
      "inputs": [],
      "name": "rewardsDuration",
      "outputs": [
        {
          "internalType": "uint256",
          "name": "",
          "type": "uint256"
        }
      ],
      "stateMutability": "view",
      "type": "function"
    },
    {
      "inputs": [
        {
          "internalType": "address[]",
          "name": "_minters",
          "type": "address[]"
        }
      ],
      "name": "setMinters",
      "outputs": [],
      "stateMutability": "nonpayable",
      "type": "function"
    },
    {
      "inputs": [
        {
          "internalType": "uint256",
          "name": "amount",
          "type": "uint256"
        },
        {
          "internalType": "bool",
          "name": "lock",
          "type": "bool"
        }
      ],
      "name": "stake",
      "outputs": [],
      "stateMutability": "nonpayable",
      "type": "function"
    },
    {
      "inputs": [],
      "name": "stakingToken",
      "outputs": [
        {
          "internalType": "contract IMintableToken",
          "name": "",
          "type": "address"
        }
      ],
      "stateMutability": "view",
      "type": "function"
    },
    {
      "inputs": [
        {
          "internalType": "address",
          "name": "user",
          "type": "address"
        }
      ],
      "name": "totalBalance",
      "outputs": [
        {
          "internalType": "uint256",
          "name": "amount",
          "type": "uint256"
        }
      ],
      "stateMutability": "view",
      "type": "function"
    },
    {
      "inputs": [],
      "name": "totalSupply",
      "outputs": [
        {
          "internalType": "uint256",
          "name": "",
          "type": "uint256"
        }
      ],
      "stateMutability": "view",
      "type": "function"
    },
    {
      "inputs": [
        {
          "internalType": "address",
          "name": "newOwner",
          "type": "address"
        }
      ],
      "name": "transferOwnership",
      "outputs": [],
      "stateMutability": "nonpayable",
      "type": "function"
    },
    {
      "inputs": [
        {
          "internalType": "address",
          "name": "user",
          "type": "address"
        }
      ],
      "name": "unlockedBalance",
      "outputs": [
        {
          "internalType": "uint256",
          "name": "amount",
          "type": "uint256"
        }
      ],
      "stateMutability": "view",
      "type": "function"
    },
    {
      "inputs": [
        {
          "internalType": "address",
          "name": "",
          "type": "address"
        },
        {
          "internalType": "address",
          "name": "",
          "type": "address"
        }
      ],
      "name": "userRewardPerTokenPaid",
      "outputs": [
        {
          "internalType": "uint256",
          "name": "",
          "type": "uint256"
        }
      ],
      "stateMutability": "view",
      "type": "function"
    },
    {
      "inputs": [
        {
          "internalType": "uint256",
          "name": "amount",
          "type": "uint256"
        }
      ],
      "name": "withdraw",
      "outputs": [],
      "stateMutability": "nonpayable",
      "type": "function"
    },
    {
      "inputs": [],
      "name": "withdrawExpiredLocks",
      "outputs": [],
      "stateMutability": "nonpayable",
      "type": "function"
    },
    {
      "inputs": [
        {
          "internalType": "address",
          "name": "user",
          "type": "address"
        }
      ],
      "name": "withdrawableBalance",
      "outputs": [
        {
          "internalType": "uint256",
          "name": "amount",
          "type": "uint256"
        },
        {
          "internalType": "uint256",
          "name": "penaltyAmount",
          "type": "uint256"
        }
      ],
      "stateMutability": "view",
      "type": "function"
    }
  ],
  "bytecode": "0x60a06040523480156200001157600080fd5b506040516200399038038062003990833981016040819052620000349162000222565b60016000908155620000456200021e565b600180546001600160a01b0319166001600160a01b038316908117909155604051919250906000907f8be0079c531659141344cd1fd0a4f28419497f9722a3daafe3b4186f6b6457e0908290a3506001600160601b0319606082901b16608052604051637e51dad560e11b81526001600160a01b0382169063fca3b5aa90620000d390309060040162000274565b602060405180830381600087803b158015620000ee57600080fd5b505af115801562000103573d6000803e3d6000fd5b505050506040513d601f19601f8201168201806040525081019062000129919062000252565b506040516340c10f1960e01b81526001600160a01b038216906340c10f1990620001659033906a18d0bf423c03d8de0000009060040162000288565b602060405180830381600087803b1580156200018057600080fd5b505af115801562000195573d6000803e3d6000fd5b505050506040513d601f19601f82011682018060405250810190620001bb919062000252565b50600280546001810182557f405787fa12a823e0f2b7631cc41b3ba8828b3321ca811111fa75cd3aa3bb5ace0180546001600160a01b039093166001600160a01b03199093168317905560009182526003602052604090912042910155620002a1565b3390565b60006020828403121562000234578081fd5b81516001600160a01b03811681146200024b578182fd5b9392505050565b60006020828403121562000264578081fd5b815180151581146200024b578182fd5b6001600160a01b0391909116815260200190565b6001600160a01b03929092168252602082015260400190565b60805160601c6136816200030f600039806107985280610bee5280610c205280610d025280611394528061143a528061161b528061193652806119cd5280611d885280611e3b528061209852806121ea528061257052806127e65280612818528061284a52506136816000f3fe608060405234801561001057600080fd5b50600436106101f05760003560e01c80638980f11f1161010f578063d1a1beb4116100a2578063e9fad8ee11610071578063e9fad8ee14610417578063f12297771461041f578063f2fde38b14610432578063f46eccc414610445576101f0565b8063d1a1beb4146103b0578063dc01f60d146103c3578063df379876146103e3578063e70b9e2714610404576101f0565b8063a01c77bc116100de578063a01c77bc1461037a578063abe50f1914610382578063bcd1101414610395578063ca5c7b91146103a8576101f0565b80638980f11f146103375780638da5cb5b1461034a5780638fd9f2ca146103525780639c9b2e2114610367576101f0565b8063547d0096116101875780637035ab98116101565780637035ab98146102f4578063715018a61461030757806372f702f31461030f5780637bb7bed114610324576101f0565b8063547d0096146102a85780635e0fac2e146102bb578063638634ee146102ce5780636eacd398146102e1576101f0565b80632e1a7d4d116101c35780632e1a7d4d1461025f578063386a9525146102745780633d18b9121461027c57806348e5d9f814610284576101f0565b806302b62938146101f5578063045544431461021f5780630483a7f61461023457806318160ddd14610257575b600080fd5b610208610203366004613137565b610458565b60405161021692919061354c565b60405180910390f35b610227610597565b604051610216919061352a565b610247610242366004613137565b61059e565b604051610216949392919061355a565b61022761072c565b61027261026d3660046132bc565b610732565b005b610227610c95565b610272610c9c565b610297610292366004613137565b6110f0565b604051610216959493929190613589565b6102726102b63660046131eb565b611120565b6102276102c9366004613137565b6111f1565b6102276102dc366004613137565b611289565b6102276102ef366004613137565b6112b8565b610227610302366004613151565b6112d3565b6102726112f0565b610317611392565b6040516102169190613360565b6103176103323660046132bc565b6113b6565b610272610345366004613183565b6113e0565b61031761151c565b61035a61152b565b60405161021691906133e5565b610272610375366004613137565b611534565b610272611614565b6102726103903660046132ec565b611967565b6102276103a3366004613137565b611dff565b610227611e2e565b6102726103be3660046131ac565b611e34565b6103d66103d1366004613137565b6122c0565b604051610216919061338d565b6103f66103f1366004613137565b612428565b604051610216929190613533565b610227610412366004613151565b61254c565b610272612569565b61022761042d366004613137565b612845565b610272610440366004613137565b612899565b61035a610453366004613137565b612992565b6001600160a01b0381166000908152600a6020526040812060038101548291901561056a576001600160a01b0384166000908152600c6020526040812054815b81811015610542576001600160a01b0387166000908152600c602052604081208054839081106104c457fe5b906000526020600020906002020160000154905080600014156104e7575061053a565b6001600160a01b0388166000908152600c6020526040902080544291908490811061050e57fe5b906000526020600020906002020160010154111561052c5750610542565b61053684826129a7565b9350505b600101610498565b50610565600261055f848660030154612a0190919063ffffffff16565b90612a43565b935050505b61058f82610589836003015484600101546129a790919063ffffffff16565b90612a01565b925050915091565b6277f88081565b6001600160a01b0381166000908152600b602052604081208190819060609082805b825481101561070457428382815481106105d657fe5b90600052602060002090600202016001015411156106d2578161064c57825481900367ffffffffffffffff8111801561060e57600080fd5b5060405190808252806020026020018201604052801561064857816020015b6106356130ac565b81526020019060019003908161062d5790505b5093505b82818154811061065857fe5b90600052602060002090600202016040518060400160405290816000820154815260200160018201548152505084838151811061069157fe5b602002602001018190525081806001019250506106cb8382815481106106b357fe5b600091825260209091206002909102015486906129a7565b94506106fc565b6106f98382815481106106e157fe5b600091825260209091206002909102015487906129a7565b95505b6001016105c0565b5050506001600160a01b0385166000908152600a602052604090206002015493509193509193565b60085481565b6002600054141561078a576040805162461bcd60e51b815260206004820152601f60248201527f5265656e7472616e637947756172643a207265656e7472616e742063616c6c00604482015290519081900360640190fd5b6002600090815560095433917f0000000000000000000000000000000000000000000000000000000000000000916107c28382612a85565b6001600160a01b038416600090815260036020819052604090912001556107e883611289565b6001600160a01b03808516600090815260036020526040902060020191909155841615610893576001600160a01b0384166000908152600a6020526040902060020154610839908590859084612b1c565b6001600160a01b03808616600081815260076020908152604080832094891680845294825280832095909555600380825285832001548383526006825285832094835293815284822093909355908152600a909152205491505b5060085460015b60025481101561097f57600281815481106108b157fe5b6000918252602090912001546001600160a01b031693506108d28483612a85565b6001600160a01b038516600090815260036020819052604090912001556108f884611289565b6001600160a01b038086166000908152600360205260409020600201919091558516156109775761092b85858585612b1c565b6001600160a01b038087166000818152600760209081526040808320948a1680845294825280832095909555600380825285832001549282526006815284822093825292909252919020555b60010161089a565b50600085116109a95760405162461bcd60e51b81526004016109a09061345a565b60405180910390fd5b336000908152600a60205260408120600181015490919087116109df5760018201546109d59088612a01565b6001830155610bb4565b60006109f8836001015489612a0190919063ffffffff16565b90508083600301541015610a1e5760405162461bcd60e51b81526004016109a0906134bc565b600060018401556003830154610a349082612a01565b600384015560005b336000908152600c60205260408120805483908110610a5757fe5b90600052602060002090600202016000015490508060001415610a7a5750610ba9565b83158015610ab55750336000908152600c60205260409020805442919084908110610aa157fe5b906000526020600020906002020160010154115b15610b27578293508285600301541015610ae15760405162461bcd60e51b81526004016109a090613418565b6003850154610af09084612a01565b60038601819055610b1957336000908152600c60205260408120610b13916130c6565b50610bb1565b610b24836002612b8e565b92505b808311610b6a57610b388184612a01565b336000908152600c60205260409020805484908110610b5357fe5b600091825260209091206002909102015550610bb1565b336000908152600c60205260409020805483908110610b8557fe5b60009182526020822060029091020181815560010155610ba58382612a01565b9250505b600101610a3c565b50505b6000610bc088836129a7565b8354909150610bcf9082612a01565b8355600854610bde9082612a01565b600855610c156001600160a01b037f000000000000000000000000000000000000000000000000000000000000000016338a612be7565b8115610c4557610c457f000000000000000000000000000000000000000000000000000000000000000083612c3e565b336001600160a01b03167f7084f5476618d8e60b11ef0d7d3f06914655adb8793e28ff7f018d4c76d505d589604051610c7e919061352a565b60405180910390a250506001600055505050505050565b62093a8081565b60026000541415610cf4576040805162461bcd60e51b815260206004820152601f60248201527f5265656e7472616e637947756172643a207265656e7472616e742063616c6c00604482015290519081900360640190fd5b6002600090815560095433917f000000000000000000000000000000000000000000000000000000000000000091610d2c8382612a85565b6001600160a01b03841660009081526003602081905260409091200155610d5283611289565b6001600160a01b03808516600090815260036020526040902060020191909155841615610dfd576001600160a01b0384166000908152600a6020526040902060020154610da3908590859084612b1c565b6001600160a01b03808616600081815260076020908152604080832094891680845294825280832095909555600380825285832001548383526006825285832094835293815284822093909355908152600a909152205491505b5060085460015b600254811015610ee95760028181548110610e1b57fe5b6000918252602090912001546001600160a01b03169350610e3c8483612a85565b6001600160a01b03851660009081526003602081905260409091200155610e6284611289565b6001600160a01b03808616600090815260036020526040902060020191909155851615610ee157610e9585858585612b1c565b6001600160a01b038087166000818152600760209081526040808320948a1680845294825280832095909555600380825285832001549282526006815284822093825292909252919020555b600101610e04565b5060005b6002548110156110e457600060028281548110610f0657fe5b60009182526020808320909101543383526007825260408084206001600160a01b03909216808552919092529120549091508215611051576001600160a01b038216600090815260036020526040902060040154610f67426207e9006129a7565b6001600160a01b038416600090815260036020526040902054101561102957600061100882856001600160a01b03166370a08231306040518263ffffffff1660e01b8152600401610fb89190613360565b60206040518083038186803b158015610fd057600080fd5b505afa158015610fe4573d6000803e3d6000fd5b505050506040513d601f19601f8201168201806040525081019061058991906132d4565b905080156110275761101a8482612c3e565b61102482826129a7565b91505b505b6110338183612a01565b6001600160a01b038416600090815260036020526040902060040155505b8061105d5750506110dc565b3360008181526007602090815260408083206001600160a01b038716808552925282209190915561108e9183612be7565b816001600160a01b0316336001600160a01b03167f540798df468d7b23d11f156fdb954cb19ad414d150722a7b6d55ba369dea792e836040516110d1919061352a565b60405180910390a350505b600101610eed565b50506001600055505050565b60036020819052600091825260409091208054600182015460028301549383015460049093015491939092909185565b611128612d59565b6001546001600160a01b03908116911614611178576040805162461bcd60e51b81526020600482018190526024820152600080516020613602833981519152604482015290519081900360640190fd5b60055460ff161561118857600080fd5b60005b81518110156111e0576001600460008484815181106111a657fe5b6020908102919091018101516001600160a01b03168252810191909152604001600020805460ff191691151591909117905560010161118b565b50506005805460ff19166001179055565b6001600160a01b0381166000908152600a6020908152604080832060010154338452600c909252822090915b8154811015611281574282828154811061123357fe5b906000526020600020906002020160010154111561125057611281565b61127782828154811061125f57fe5b600091825260209091206002909102015484906129a7565b925060010161121d565b50505b919050565b6001600160a01b0381166000908152600360205260408120544281116112af57806112b1565b425b9392505050565b6001600160a01b03166000908152600a602052604090205490565b600660209081526000928352604080842090915290825290205481565b6112f8612d59565b6001546001600160a01b03908116911614611348576040805162461bcd60e51b81526020600482018190526024820152600080516020613602833981519152604482015290519081900360640190fd5b6001546040516000916001600160a01b0316907f8be0079c531659141344cd1fd0a4f28419497f9722a3daafe3b4186f6b6457e0908390a3600180546001600160a01b0319169055565b7f000000000000000000000000000000000000000000000000000000000000000081565b600281815481106113c657600080fd5b6000918252602090912001546001600160a01b0316905081565b6113e8612d59565b6001546001600160a01b03908116911614611438576040805162461bcd60e51b81526020600482018190526024820152600080516020613602833981519152604482015290519081900360640190fd5b7f00000000000000000000000000000000000000000000000000000000000000006001600160a01b0316826001600160a01b0316141561148a5760405162461bcd60e51b81526004016109a090613485565b6001600160a01b038216600090815260036020526040902060020154156114c35760405162461bcd60e51b81526004016109a0906134f3565b6114df6114ce61151c565b6001600160a01b0384169083612be7565b7f8c1256b8896378cd5044f80c202f9772b9d77dc85c8a6eb51967210b09bfaa288282604051611510929190613374565b60405180910390a15050565b6001546001600160a01b031690565b60055460ff1681565b61153c612d59565b6001546001600160a01b0390811691161461158c576040805162461bcd60e51b81526020600482018190526024820152600080516020613602833981519152604482015290519081900360640190fd5b6001600160a01b038116600090815260036020526040902060020154156115b257600080fd5b600280546001810182557f405787fa12a823e0f2b7631cc41b3ba8828b3321ca811111fa75cd3aa3bb5ace0180546001600160a01b039093166001600160a01b0319909316831790556000918252600360205260409091204291810182905555565b60095433907f0000000000000000000000000000000000000000000000000000000000000000906000906116488382612a85565b6001600160a01b0384166000908152600360208190526040909120015561166e83611289565b6001600160a01b03808516600090815260036020526040902060020191909155841615611719576001600160a01b0384166000908152600a60205260409020600201546116bf908590859084612b1c565b6001600160a01b03808616600081815260076020908152604080832094891680845294825280832095909555600380825285832001548383526006825285832094835293815284822093909355908152600a909152205491505b5060085460015b600254811015611805576002818154811061173757fe5b6000918252602090912001546001600160a01b031693506117588483612a85565b6001600160a01b0385166000908152600360208190526040909120015561177e84611289565b6001600160a01b038086166000908152600360205260409020600201919091558516156117fd576117b185858585612b1c565b6001600160a01b038087166000818152600760209081526040808320948a1680845294825280832095909555600380825285832001549282526006815284822093825292909252919020555b600101611720565b50336000908152600b60209081526040808320600a90925282208154919290914284600019830183811061183557fe5b90600052602060002090600202016001015411611872576002830154336000908152600b6020526040812091935061186d91906130c6565b6118e7565b60005b818110156118e5574285828154811061188a57fe5b90600052602060002090600202016001015411156118a7576118e5565b6118b685828154811061125f57fe5b92508481815481106118c457fe5b60009182526020822060029091020181815560019081019190915501611875565b505b60028301546118f69083612a01565b600284015582546119079083612a01565b83556008546119169083612a01565b6008556009546119269083612a01565b60095561195d6001600160a01b037f0000000000000000000000000000000000000000000000000000000000000000163384612be7565b5050505050505050565b600260005414156119bf576040805162461bcd60e51b815260206004820152601f60248201527f5265656e7472616e637947756172643a207265656e7472616e742063616c6c00604482015290519081900360640190fd5b6002600090815560095433917f0000000000000000000000000000000000000000000000000000000000000000916119f78382612a85565b6001600160a01b03841660009081526003602081905260409091200155611a1d83611289565b6001600160a01b03808516600090815260036020526040902060020191909155841615611ac8576001600160a01b0384166000908152600a6020526040902060020154611a6e908590859084612b1c565b6001600160a01b03808616600081815260076020908152604080832094891680845294825280832095909555600380825285832001548383526006825285832094835293815284822093909355908152600a909152205491505b5060085460015b600254811015611bb45760028181548110611ae657fe5b6000918252602090912001546001600160a01b03169350611b078483612a85565b6001600160a01b03851660009081526003602081905260409091200155611b2d84611289565b6001600160a01b03808616600090815260036020526040902060020191909155851615611bac57611b6085858585612b1c565b6001600160a01b038087166000818152600760209081526040808320948a1680845294825280832095909555600380825285832001549282526006815284822093825292909252919020555b600101611acf565b5060008611611bd55760405162461bcd60e51b81526004016109a0906133f0565b600854611be290876129a7565b600855336000908152600a602052604090208054611c0090886129a7565b81558515611d6657600954611c1590886129a7565b6009556002810154611c2790886129a7565b60028201556000611c526277f880611c4c62093a80611c464282612a43565b90612b8e565b906129a7565b336000908152600b6020526040902054909150801580611ca35750336000908152600b6020526040902080548391906000198401908110611c8f57fe5b906000526020600020906002020160010154105b15611cf257336000908152600b6020908152604080832081518083019092528c825281830186815281546001818101845592865293909420915160029093029091019182559151910155611d5f565b336000908152600b602052604090208054611d2e918b916000198501908110611d1757fe5b6000918252602090912060029091020154906129a7565b336000908152600b6020526040902080546000198401908110611d4d57fe5b60009182526020909120600290910201555b5050611d7b565b6001810154611d7590886129a7565b60018201555b611db06001600160a01b037f00000000000000000000000000000000000000000000000000000000000000001633308a612d5d565b336001600160a01b03167f9e71bc8eea02a63969f509818f2dafb9254532904319f9dbda79b67bd34a5f3d88604051611de9919061352a565b60405180910390a2505060016000555050505050565b6001600160a01b038116600090815260036020526040812060010154611e289062093a80612b8e565b92915050565b60095481565b60095483907f000000000000000000000000000000000000000000000000000000000000000090600090611e688382612a85565b6001600160a01b03841660009081526003602081905260409091200155611e8e83611289565b6001600160a01b03808516600090815260036020526040902060020191909155841615611f39576001600160a01b0384166000908152600a6020526040902060020154611edf908590859084612b1c565b6001600160a01b03808616600081815260076020908152604080832094891680845294825280832095909555600380825285832001548383526006825285832094835293815284822093909355908152600a909152205491505b5060085460015b6002548110156120255760028181548110611f5757fe5b6000918252602090912001546001600160a01b03169350611f788483612a85565b6001600160a01b03851660009081526003602081905260409091200155611f9e84611289565b6001600160a01b0380861660009081526003602052604090206002019190915585161561201d57611fd185858585612b1c565b6001600160a01b038087166000818152600760209081526040808320948a1680845294825280832095909555600380825285832001549282526006815284822093825292909252919020555b600101611f40565b503360009081526004602052604090205460ff1661204257600080fd5b8561204c576122b7565b60085461205990876129a7565b6008556001600160a01b0387166000908152600a60205260409020805461208090886129a7565b81556001600160a01b0388163014156120c2576120bd7f000000000000000000000000000000000000000000000000000000000000000088612c3e565b6121d3565b85156121be5760038101546120d790886129a7565b600382015560006120f66277f880611c4c62093a80611c464282612a43565b6001600160a01b038a166000908152600c6020526040902080549192509080158061214057508282600183038154811061212c57fe5b906000526020600020906002020160010154105b1561218257604080518082019091528a8152602080820185815284546001818101875560008781529390932093516002909102909301928355519101556121b6565b6121958a836001840381548110611d1757fe5b8260018303815481106121a457fe5b60009182526020909120600290910201555b5050506121d3565b60018101546121cd90886129a7565b60018201555b6040516340c10f1960e01b81526001600160a01b037f000000000000000000000000000000000000000000000000000000000000000016906340c10f19906122219030908b90600401613374565b602060405180830381600087803b15801561223b57600080fd5b505af115801561224f573d6000803e3d6000fd5b505050506040513d601f19601f8201168201806040525081019061227391906132a0565b50876001600160a01b03167f9e71bc8eea02a63969f509818f2dafb9254532904319f9dbda79b67bd34a5f3d886040516122ad919061352a565b60405180910390a2505b50505050505050565b60025460609067ffffffffffffffff811180156122dc57600080fd5b5060405190808252806020026020018201604052801561231657816020015b6123036130ea565b8152602001906001900390816122fb5790505b50905060005b8151811015612422576000811561234b576001600160a01b0384166000908152600a6020526040902054612368565b6001600160a01b0384166000908152600a60205260409020600201545b90506000821561237a5760085461237e565b6009545b90506002838154811061238d57fe5b9060005260206000200160009054906101000a90046001600160a01b03168484815181106123b757fe5b6020026020010151600001906001600160a01b031690816001600160a01b0316815250506123fe858585815181106123eb57fe5b6020026020010151600001518484612b1c565b84848151811061240a57fe5b6020908102919091018101510152505060010161231c565b50919050565b6001600160a01b0381166000908152600c6020526040812060609082805b8254811015612544574283828154811061245c57fe5b906000526020600020906002020160010154111561253c57816124d257825481900367ffffffffffffffff8111801561249457600080fd5b506040519080825280602002602001820160405280156124ce57816020015b6124bb6130ac565b8152602001906001900390816124b35790505b5093505b8281815481106124de57fe5b90600052602060002090600202016040518060400160405290816000820154815260200160018201548152505084838151811061251757fe5b602002602001018190525081806001019250506125398382815481106106b357fe5b94505b600101612446565b505050915091565b600760209081526000928352604080842090915290825290205481565b60095433907f00000000000000000000000000000000000000000000000000000000000000009060009061259d8382612a85565b6001600160a01b038416600090815260036020819052604090912001556125c383611289565b6001600160a01b0380851660009081526003602052604090206002019190915584161561266e576001600160a01b0384166000908152600a6020526040902060020154612614908590859084612b1c565b6001600160a01b03808616600081815260076020908152604080832094891680845294825280832095909555600380825285832001548383526006825285832094835293815284822093909355908152600a909152205491505b5060085460015b60025481101561275a576002818154811061268c57fe5b6000918252602090912001546001600160a01b031693506126ad8483612a85565b6001600160a01b038516600090815260036020819052604090912001556126d384611289565b6001600160a01b038086166000908152600360205260409020600201919091558516156127525761270685858585612b1c565b6001600160a01b038087166000818152600760209081526040808320948a1680845294825280832095909555600380825285832001549282526006815284822093825292909252919020555b600101612675565b5060008061276733610458565b336000908152600c6020526040812092945090925061278691906130c6565b336000908152600a602052604090206003810154600182015482546127b092916105899190612a01565b815560006001820181905560038201556127d66127cd84846129a7565b60085490612a01565b60085561280d6001600160a01b037f0000000000000000000000000000000000000000000000000000000000000000163385612be7565b811561283d5761283d7f000000000000000000000000000000000000000000000000000000000000000083612c3e565b6122b7610c9c565b6000807f00000000000000000000000000000000000000000000000000000000000000006001600160a01b0316836001600160a01b0316146128895760085461288d565b6009545b90506112b18382612a85565b6128a1612d59565b6001546001600160a01b039081169116146128f1576040805162461bcd60e51b81526020600482018190526024820152600080516020613602833981519152604482015290519081900360640190fd5b6001600160a01b0381166129365760405162461bcd60e51b81526004018080602001828103825260268152602001806135bb6026913960400191505060405180910390fd5b6001546040516001600160a01b038084169216907f8be0079c531659141344cd1fd0a4f28419497f9722a3daafe3b4186f6b6457e090600090a3600180546001600160a01b0319166001600160a01b0392909216919091179055565b60046020526000908152604090205460ff1681565b6000828201838110156112b1576040805162461bcd60e51b815260206004820152601b60248201527f536166654d6174683a206164646974696f6e206f766572666c6f770000000000604482015290519081900360640190fd5b60006112b183836040518060400160405280601e81526020017f536166654d6174683a207375627472616374696f6e206f766572666c6f770000815250612dbd565b60006112b183836040518060400160405280601a81526020017f536166654d6174683a206469766973696f6e206279207a65726f000000000000815250612e54565b600081612aaf57506001600160a01b03821660009081526003602081905260409091200154611e28565b6001600160a01b038316600090815260036020526040902060018101546002909101546112b191612af991859161055f91670de0b6b3a764000091611c469182906105898c611289565b6001600160a01b03851660009081526003602081905260409091200154906129a7565b6001600160a01b038085166000818152600760209081526040808320948816808452948252808320549383526006825280832094835293905291822054612b859190611c4c90670de0b6b3a76400009061055f90612b7e906105898b8a612a85565b8890612b8e565b95945050505050565b600082612b9d57506000611e28565b82820282848281612baa57fe5b04146112b15760405162461bcd60e51b81526004018080602001828103825260218152602001806135e16021913960400191505060405180910390fd5b604080516001600160a01b038416602482015260448082018490528251808303909101815260649091019091526020810180516001600160e01b031663a9059cbb60e01b179052612c39908490612eb9565b505050565b6001600160a01b0382166000908152600360205260409020544210612c8b57612c6a8162093a80612a43565b6001600160a01b038316600090815260036020526040902060010155612d0b565b6001600160a01b038216600090815260036020526040812054612cae9042612a01565b6001600160a01b03841660009081526003602052604081206001015491925090612cd9908390612b8e565b9050612cec62093a8061055f85846129a7565b6001600160a01b03851660009081526003602052604090206001015550505b6001600160a01b0382166000908152600360205260409020426002909101819055612d399062093a806129a7565b6001600160a01b0390921660009081526003602052604090209190915550565b3390565b604080516001600160a01b0380861660248301528416604482015260648082018490528251808303909101815260849091019091526020810180516001600160e01b03166323b872dd60e01b179052612db7908590612eb9565b50505050565b60008184841115612e4c5760405162461bcd60e51b81526004018080602001828103825283818151815260200191508051906020019080838360005b83811015612e11578181015183820152602001612df9565b50505050905090810190601f168015612e3e5780820380516001836020036101000a031916815260200191505b509250505060405180910390fd5b505050900390565b60008183612ea35760405162461bcd60e51b8152602060048201818152835160248401528351909283926044909101919085019080838360008315612e11578181015183820152602001612df9565b506000838581612eaf57fe5b0495945050505050565b612ecb826001600160a01b0316613070565b612f1c576040805162461bcd60e51b815260206004820152601f60248201527f5361666545524332303a2063616c6c20746f206e6f6e2d636f6e747261637400604482015290519081900360640190fd5b600080836001600160a01b0316836040518082805190602001908083835b60208310612f595780518252601f199092019160209182019101612f3a565b6001836020036101000a0380198251168184511680821785525050505050509050019150506000604051808303816000865af19150503d8060008114612fbb576040519150601f19603f3d011682016040523d82523d6000602084013e612fc0565b606091505b509150915081613017576040805162461bcd60e51b815260206004820181905260248201527f5361666545524332303a206c6f772d6c6576656c2063616c6c206661696c6564604482015290519081900360640190fd5b805115612db75780806020019051602081101561303357600080fd5b5051612db75760405162461bcd60e51b815260040180806020018281038252602a815260200180613622602a913960400191505060405180910390fd5b6000813f7fc5d2460186f7233c927e7db2dcc703c0e500b653ca82273b7bfad8045d85a4708181148015906130a457508115155b949350505050565b604051806040016040528060008152602001600081525090565b50805460008255600202906000526020600020908101906130e79190613101565b50565b604080518082019091526000808252602082015290565b5b8082111561311c5760008082556001820155600201613102565b5090565b80356001600160a01b038116811461128457600080fd5b600060208284031215613148578081fd5b6112b182613120565b60008060408385031215613163578081fd5b61316c83613120565b915061317a60208401613120565b90509250929050565b60008060408385031215613195578182fd5b61319e83613120565b946020939093013593505050565b6000806000606084860312156131c0578081fd5b6131c984613120565b92506020840135915060408401356131e0816135ac565b809150509250925092565b600060208083850312156131fd578182fd5b823567ffffffffffffffff80821115613214578384fd5b818501915085601f830112613227578384fd5b81358181111561323357fe5b8381026040518582820101818110858211171561324c57fe5b604052828152858101935084860182860187018a101561326a578788fd5b8795505b838610156132935761327f81613120565b85526001959095019493860193860161326e565b5098975050505050505050565b6000602082840312156132b1578081fd5b81516112b1816135ac565b6000602082840312156132cd578081fd5b5035919050565b6000602082840312156132e5578081fd5b5051919050565b600080604083850312156132fe578182fd5b823591506020830135613310816135ac565b809150509250929050565b6000815180845260208085019450808401835b8381101561335557815180518852830151838801526040909601959082019060010161332e565b509495945050505050565b6001600160a01b0391909116815260200190565b6001600160a01b03929092168252602082015260400190565b602080825282518282018190526000919060409081850190868401855b828110156133d857815180516001600160a01b031685528601518685015292840192908501906001016133aa565b5091979650505050505050565b901515815260200190565b6020808252600e908201526d043616e6e6f74207374616b6520360941b604082015260600190565b60208082526022908201527f496e73756666696369656e742062616c616e63652061667465722070656e616c604082015261747960f01b606082015260800190565b602080825260119082015270043616e6e6f74207769746864726177203607c1b604082015260600190565b6020808252601d908201527f43616e6e6f74207769746864726177207374616b696e6720746f6b656e000000604082015260600190565b6020808252601d908201527f496e73756666696369656e7420756e6c6f636b65642062616c616e6365000000604082015260600190565b6020808252601c908201527f43616e6e6f742077697468647261772072657761726420746f6b656e00000000604082015260600190565b90815260200190565b6000838252604060208301526130a4604083018461331b565b918252602082015260400190565b60008582528460208301528360408301526080606083015261357f608083018461331b565b9695505050505050565b948552602085019390935260408401919091526060830152608082015260a00190565b80151581146130e757600080fdfe4f776e61626c653a206e6577206f776e657220697320746865207a65726f2061646472657373536166654d6174683a206d756c7469706c69636174696f6e206f766572666c6f774f776e61626c653a2063616c6c6572206973206e6f7420746865206f776e65725361666545524332303a204552433230206f7065726174696f6e20646964206e6f742073756363656564a2646970667358221220014673b9ed6492632c6d9c63a2fed5dcf3fe5a4b39f2598cfcda08d3560883de64736f6c63430007060033",
  "linkReferences": {},
  "deployedLinkReferences": {}
}