{
  "_format": "hh-sol-artifact-1",
  "contractName": "UiIncentiveDataProvider",
  "sourceName": "contracts/misc/UiIncentiveDataProvider.sol",
  "abi": [
    {
      "inputs": [
        {
          "internalType": "address",
          "name": "_sculptToken",
          "type": "address"
        },
        {
          "internalType": "address",
          "name": "_chefIncentive",
          "type": "address"
        }
      ],
      "stateMutability": "nonpayable",
      "type": "constructor"
    },
    {
      "inputs": [
        {
          "internalType": "contract ILendingPoolAddressesProvider",
          "name": "provider",
          "type": "address"
        },
        {
          "internalType": "address",
          "name": "user",
          "type": "address"
        }
      ],
      "name": "getFullReservesIncentiveData",
      "outputs": [
        {
          "components": [
            {
              "internalType": "address",
              "name": "underlyingAsset",
              "type": "address"
            },
            {
              "components": [
                {
                  "internalType": "uint256",
                  "name": "emissionPerSecond",
                  "type": "uint256"
                },
                {
                  "internalType": "uint256",
                  "name": "incentivesLastUpdateTimestamp",
                  "type": "uint256"
                },
                {
                  "internalType": "uint256",
                  "name": "tokenIncentivesIndex",
                  "type": "uint256"
                },
                {
                  "internalType": "uint256",
                  "name": "emissionEndTimestamp",
                  "type": "uint256"
                },
                {
                  "internalType": "address",
                  "name": "tokenAddress",
                  "type": "address"
                },
                {
                  "internalType": "address",
                  "name": "rewardTokenAddress",
                  "type": "address"
                },
                {
                  "internalType": "address",
                  "name": "incentiveControllerAddress",
                  "type": "address"
                },
                {
                  "internalType": "uint8",
                  "name": "rewardTokenDecimals",
                  "type": "uint8"
                },
                {
                  "internalType": "uint8",
                  "name": "precision",
                  "type": "uint8"
                }
              ],
              "internalType": "struct IUiIncentiveDataProvider.IncentiveData",
              "name": "aIncentiveData",
              "type": "tuple"
            },
            {
              "components": [
                {
                  "internalType": "uint256",
                  "name": "emissionPerSecond",
                  "type": "uint256"
                },
                {
                  "internalType": "uint256",
                  "name": "incentivesLastUpdateTimestamp",
                  "type": "uint256"
                },
                {
                  "internalType": "uint256",
                  "name": "tokenIncentivesIndex",
                  "type": "uint256"
                },
                {
                  "internalType": "uint256",
                  "name": "emissionEndTimestamp",
                  "type": "uint256"
                },
                {
                  "internalType": "address",
                  "name": "tokenAddress",
                  "type": "address"
                },
                {
                  "internalType": "address",
                  "name": "rewardTokenAddress",
                  "type": "address"
                },
                {
                  "internalType": "address",
                  "name": "incentiveControllerAddress",
                  "type": "address"
                },
                {
                  "internalType": "uint8",
                  "name": "rewardTokenDecimals",
                  "type": "uint8"
                },
                {
                  "internalType": "uint8",
                  "name": "precision",
                  "type": "uint8"
                }
              ],
              "internalType": "struct IUiIncentiveDataProvider.IncentiveData",
              "name": "vIncentiveData",
              "type": "tuple"
            },
            {
              "components": [
                {
                  "internalType": "uint256",
                  "name": "emissionPerSecond",
                  "type": "uint256"
                },
                {
                  "internalType": "uint256",
                  "name": "incentivesLastUpdateTimestamp",
                  "type": "uint256"
                },
                {
                  "internalType": "uint256",
                  "name": "tokenIncentivesIndex",
                  "type": "uint256"
                },
                {
                  "internalType": "uint256",
                  "name": "emissionEndTimestamp",
                  "type": "uint256"
                },
                {
                  "internalType": "address",
                  "name": "tokenAddress",
                  "type": "address"
                },
                {
                  "internalType": "address",
                  "name": "rewardTokenAddress",
                  "type": "address"
                },
                {
                  "internalType": "address",
                  "name": "incentiveControllerAddress",
                  "type": "address"
                },
                {
                  "internalType": "uint8",
                  "name": "rewardTokenDecimals",
                  "type": "uint8"
                },
                {
                  "internalType": "uint8",
                  "name": "precision",
                  "type": "uint8"
                }
              ],
              "internalType": "struct IUiIncentiveDataProvider.IncentiveData",
              "name": "sIncentiveData",
              "type": "tuple"
            }
          ],
          "internalType": "struct IUiIncentiveDataProvider.AggregatedReserveIncentiveData[]",
          "name": "",
          "type": "tuple[]"
        },
        {
          "components": [
            {
              "internalType": "address",
              "name": "underlyingAsset",
              "type": "address"
            },
            {
              "components": [
                {
                  "internalType": "uint256",
                  "name": "tokenincentivesUserIndex",
                  "type": "uint256"
                },
                {
                  "internalType": "uint256",
                  "name": "userUnclaimedRewards",
                  "type": "uint256"
                },
                {
                  "internalType": "address",
                  "name": "tokenAddress",
                  "type": "address"
                },
                {
                  "internalType": "address",
                  "name": "rewardTokenAddress",
                  "type": "address"
                },
                {
                  "internalType": "address",
                  "name": "incentiveControllerAddress",
                  "type": "address"
                },
                {
                  "internalType": "uint8",
                  "name": "rewardTokenDecimals",
                  "type": "uint8"
                }
              ],
              "internalType": "struct IUiIncentiveDataProvider.UserIncentiveData",
              "name": "aTokenIncentivesUserData",
              "type": "tuple"
            },
            {
              "components": [
                {
                  "internalType": "uint256",
                  "name": "tokenincentivesUserIndex",
                  "type": "uint256"
                },
                {
                  "internalType": "uint256",
                  "name": "userUnclaimedRewards",
                  "type": "uint256"
                },
                {
                  "internalType": "address",
                  "name": "tokenAddress",
                  "type": "address"
                },
                {
                  "internalType": "address",
                  "name": "rewardTokenAddress",
                  "type": "address"
                },
                {
                  "internalType": "address",
                  "name": "incentiveControllerAddress",
                  "type": "address"
                },
                {
                  "internalType": "uint8",
                  "name": "rewardTokenDecimals",
                  "type": "uint8"
                }
              ],
              "internalType": "struct IUiIncentiveDataProvider.UserIncentiveData",
              "name": "vTokenIncentivesUserData",
              "type": "tuple"
            },
            {
              "components": [
                {
                  "internalType": "uint256",
                  "name": "tokenincentivesUserIndex",
                  "type": "uint256"
                },
                {
                  "internalType": "uint256",
                  "name": "userUnclaimedRewards",
                  "type": "uint256"
                },
                {
                  "internalType": "address",
                  "name": "tokenAddress",
                  "type": "address"
                },
                {
                  "internalType": "address",
                  "name": "rewardTokenAddress",
                  "type": "address"
                },
                {
                  "internalType": "address",
                  "name": "incentiveControllerAddress",
                  "type": "address"
                },
                {
                  "internalType": "uint8",
                  "name": "rewardTokenDecimals",
                  "type": "uint8"
                }
              ],
              "internalType": "struct IUiIncentiveDataProvider.UserIncentiveData",
              "name": "sTokenIncentivesUserData",
              "type": "tuple"
            }
          ],
          "internalType": "struct IUiIncentiveDataProvider.UserReserveIncentiveData[]",
          "name": "",
          "type": "tuple[]"
        }
      ],
      "stateMutability": "view",
      "type": "function"
    },
    {
      "inputs": [
        {
          "internalType": "contract ILendingPoolAddressesProvider",
          "name": "provider",
          "type": "address"
        }
      ],
      "name": "getReservesIncentivesData",
      "outputs": [
        {
          "components": [
            {
              "internalType": "address",
              "name": "underlyingAsset",
              "type": "address"
            },
            {
              "components": [
                {
                  "internalType": "uint256",
                  "name": "emissionPerSecond",
                  "type": "uint256"
                },
                {
                  "internalType": "uint256",
                  "name": "incentivesLastUpdateTimestamp",
                  "type": "uint256"
                },
                {
                  "internalType": "uint256",
                  "name": "tokenIncentivesIndex",
                  "type": "uint256"
                },
                {
                  "internalType": "uint256",
                  "name": "emissionEndTimestamp",
                  "type": "uint256"
                },
                {
                  "internalType": "address",
                  "name": "tokenAddress",
                  "type": "address"
                },
                {
                  "internalType": "address",
                  "name": "rewardTokenAddress",
                  "type": "address"
                },
                {
                  "internalType": "address",
                  "name": "incentiveControllerAddress",
                  "type": "address"
                },
                {
                  "internalType": "uint8",
                  "name": "rewardTokenDecimals",
                  "type": "uint8"
                },
                {
                  "internalType": "uint8",
                  "name": "precision",
                  "type": "uint8"
                }
              ],
              "internalType": "struct IUiIncentiveDataProvider.IncentiveData",
              "name": "aIncentiveData",
              "type": "tuple"
            },
            {
              "components": [
                {
                  "internalType": "uint256",
                  "name": "emissionPerSecond",
                  "type": "uint256"
                },
                {
                  "internalType": "uint256",
                  "name": "incentivesLastUpdateTimestamp",
                  "type": "uint256"
                },
                {
                  "internalType": "uint256",
                  "name": "tokenIncentivesIndex",
                  "type": "uint256"
                },
                {
                  "internalType": "uint256",
                  "name": "emissionEndTimestamp",
                  "type": "uint256"
                },
                {
                  "internalType": "address",
                  "name": "tokenAddress",
                  "type": "address"
                },
                {
                  "internalType": "address",
                  "name": "rewardTokenAddress",
                  "type": "address"
                },
                {
                  "internalType": "address",
                  "name": "incentiveControllerAddress",
                  "type": "address"
                },
                {
                  "internalType": "uint8",
                  "name": "rewardTokenDecimals",
                  "type": "uint8"
                },
                {
                  "internalType": "uint8",
                  "name": "precision",
                  "type": "uint8"
                }
              ],
              "internalType": "struct IUiIncentiveDataProvider.IncentiveData",
              "name": "vIncentiveData",
              "type": "tuple"
            },
            {
              "components": [
                {
                  "internalType": "uint256",
                  "name": "emissionPerSecond",
                  "type": "uint256"
                },
                {
                  "internalType": "uint256",
                  "name": "incentivesLastUpdateTimestamp",
                  "type": "uint256"
                },
                {
                  "internalType": "uint256",
                  "name": "tokenIncentivesIndex",
                  "type": "uint256"
                },
                {
                  "internalType": "uint256",
                  "name": "emissionEndTimestamp",
                  "type": "uint256"
                },
                {
                  "internalType": "address",
                  "name": "tokenAddress",
                  "type": "address"
                },
                {
                  "internalType": "address",
                  "name": "rewardTokenAddress",
                  "type": "address"
                },
                {
                  "internalType": "address",
                  "name": "incentiveControllerAddress",
                  "type": "address"
                },
                {
                  "internalType": "uint8",
                  "name": "rewardTokenDecimals",
                  "type": "uint8"
                },
                {
                  "internalType": "uint8",
                  "name": "precision",
                  "type": "uint8"
                }
              ],
              "internalType": "struct IUiIncentiveDataProvider.IncentiveData",
              "name": "sIncentiveData",
              "type": "tuple"
            }
          ],
          "internalType": "struct IUiIncentiveDataProvider.AggregatedReserveIncentiveData[]",
          "name": "",
          "type": "tuple[]"
        }
      ],
      "stateMutability": "view",
      "type": "function"
    },
    {
      "inputs": [
        {
          "internalType": "contract ILendingPoolAddressesProvider",
          "name": "provider",
          "type": "address"
        },
        {
          "internalType": "address",
          "name": "user",
          "type": "address"
        }
      ],
      "name": "getUserReservesIncentivesData",
      "outputs": [
        {
          "components": [
            {
              "internalType": "address",
              "name": "underlyingAsset",
              "type": "address"
            },
            {
              "components": [
                {
                  "internalType": "uint256",
                  "name": "tokenincentivesUserIndex",
                  "type": "uint256"
                },
                {
                  "internalType": "uint256",
                  "name": "userUnclaimedRewards",
                  "type": "uint256"
                },
                {
                  "internalType": "address",
                  "name": "tokenAddress",
                  "type": "address"
                },
                {
                  "internalType": "address",
                  "name": "rewardTokenAddress",
                  "type": "address"
                },
                {
                  "internalType": "address",
                  "name": "incentiveControllerAddress",
                  "type": "address"
                },
                {
                  "internalType": "uint8",
                  "name": "rewardTokenDecimals",
                  "type": "uint8"
                }
              ],
              "internalType": "struct IUiIncentiveDataProvider.UserIncentiveData",
              "name": "aTokenIncentivesUserData",
              "type": "tuple"
            },
            {
              "components": [
                {
                  "internalType": "uint256",
                  "name": "tokenincentivesUserIndex",
                  "type": "uint256"
                },
                {
                  "internalType": "uint256",
                  "name": "userUnclaimedRewards",
                  "type": "uint256"
                },
                {
                  "internalType": "address",
                  "name": "tokenAddress",
                  "type": "address"
                },
                {
                  "internalType": "address",
                  "name": "rewardTokenAddress",
                  "type": "address"
                },
                {
                  "internalType": "address",
                  "name": "incentiveControllerAddress",
                  "type": "address"
                },
                {
                  "internalType": "uint8",
                  "name": "rewardTokenDecimals",
                  "type": "uint8"
                }
              ],
              "internalType": "struct IUiIncentiveDataProvider.UserIncentiveData",
              "name": "vTokenIncentivesUserData",
              "type": "tuple"
            },
            {
              "components": [
                {
                  "internalType": "uint256",
                  "name": "tokenincentivesUserIndex",
                  "type": "uint256"
                },
                {
                  "internalType": "uint256",
                  "name": "userUnclaimedRewards",
                  "type": "uint256"
                },
                {
                  "internalType": "address",
                  "name": "tokenAddress",
                  "type": "address"
                },
                {
                  "internalType": "address",
                  "name": "rewardTokenAddress",
                  "type": "address"
                },
                {
                  "internalType": "address",
                  "name": "incentiveControllerAddress",
                  "type": "address"
                },
                {
                  "internalType": "uint8",
                  "name": "rewardTokenDecimals",
                  "type": "uint8"
                }
              ],
              "internalType": "struct IUiIncentiveDataProvider.UserIncentiveData",
              "name": "sTokenIncentivesUserData",
              "type": "tuple"
            }
          ],
          "internalType": "struct IUiIncentiveDataProvider.UserReserveIncentiveData[]",
          "name": "",
          "type": "tuple[]"
        }
      ],
      "stateMutability": "view",
      "type": "function"
    },
    {
      "inputs": [],
      "name": "test",
      "outputs": [
        {
          "internalType": "address",
          "name": "",
          "type": "address"
        }
      ],
      "stateMutability": "view",
      "type": "function"
    },
    {
      "inputs": [],
      "name": "test2",
      "outputs": [
        {
          "internalType": "address",
          "name": "",
          "type": "address"
        }
      ],
      "stateMutability": "view",
      "type": "function"
    },
    {
      "inputs": [
        {
          "internalType": "address",
          "name": "_token",
          "type": "address"
        }
      ],
      "name": "test2",
      "outputs": [
        {
          "internalType": "uint256",
          "name": "",
          "type": "uint256"
        }
      ],
      "stateMutability": "view",
      "type": "function"
    }
  ],
  "bytecode": "0x60806040523480156200001157600080fd5b506040516200242538038062002425833981016040819052620000349162000086565b600080546001600160a01b039283166001600160a01b03199182161790915560018054939092169216919091179055620000bd565b80516001600160a01b03811681146200008157600080fd5b919050565b6000806040838503121562000099578182fd5b620000a48362000069565b9150620000b46020840162000069565b90509250929050565b61235880620000cd6000396000f3fe608060405234801561001057600080fd5b50600436106100625760003560e01c8063476375361461006757806366e41cb714610091578063799bdcf5146100a6578063976fafc5146100c6578063b11bead4146100e6578063f8a8fd6d14610106575b600080fd5b61007a610075366004611e87565b61010e565b60405161008892919061229c565b60405180910390f35b61009961012f565b604051610088919061225b565b6100b96100b4366004611e87565b6101b6565b60405161008891906122ca565b6100d96100d4366004611da2565b6101c9565b6040516100889190612289565b6100f96100f4366004611da2565b6101dc565b60405161008891906122dd565b610099610269565b60608061011a846102ae565b61012485856110e6565b915091509250929050565b60008054604051634d05d17560e11b815282916001600160a01b031690639a0ba2ea906101609084906004016122dd565b60206040518083038186803b15801561017857600080fd5b505afa15801561018c573d6000803e3d6000fd5b505050506040513d601f19601f820116820180604052508101906101b09190611dbe565b91505090565b60606101c283836110e6565b9392505050565b60606101d4826102ae565b90505b919050565b60008054604051639a7b5f1160e01b815282916001600160a01b031690639a7b5f119061020d90869060040161225b565b60a06040518083038186803b15801561022557600080fd5b505afa158015610239573d6000803e3d6000fd5b505050506040513d601f19601f8201168201806040525081019061025d919061202f565b50909695505050505050565b600080546040805163379f904360e21b8152905183926001600160a01b03169163de7e410c916004808301926020929190829003018186803b15801561017857600080fd5b60606000826001600160a01b0316630261bf8b6040518163ffffffff1660e01b815260040160206040518083038186803b1580156102eb57600080fd5b505afa1580156102ff573d6000803e3d6000fd5b505050506040513d601f19601f820116820180604052508101906103239190611dbe565b90506000816001600160a01b031663d1946dbc6040518163ffffffff1660e01b815260040160006040518083038186803b15801561036057600080fd5b505afa158015610374573d6000803e3d6000fd5b505050506040513d6000823e601f3d908101601f1916820160405261039c9190810190611dda565b90506000815167ffffffffffffffff811180156103b857600080fd5b506040519080825280602002602001820160405280156103f257816020015b6103df611c23565b8152602001906001900390816103d75790505b50905060005b82518110156110dd57600082828151811061040f57fe5b6020026020010151905083828151811061042557fe5b602002602001015181600001906001600160a01b031690816001600160a01b0316815250506000856001600160a01b03166335ea6a7586858151811061046757fe5b60200260200101516040518263ffffffff1660e01b815260040161048b919061225b565b6101806040518083038186803b1580156104a457600080fd5b505afa1580156104b8573d6000803e3d6000fd5b505050506040513d601f19601f820116820180604052508101906104dc9190611ebf565b90508060e001516001600160a01b03166375d264136040518163ffffffff1660e01b815260040160206040518083038186803b15801561051b57600080fd5b505afa92505050801561054b575060408051601f3d908101601f1916820190925261054891810190611dbe565b60015b610585573d808015610579576040519150601f19603f3d011682016040523d82523d6000602084013e61057e565b606091505b5050610ad6565b6001600160a01b03811615610ad4576000816001600160a01b03166399248ea76040518163ffffffff1660e01b815260040160206040518083038186803b1580156105cf57600080fd5b505afa1580156105e3573d6000803e3d6000fd5b505050506040513d601f19601f820116820180604052508101906106079190611dbe565b60e0840151604051631652e7b760e01b81529192506001600160a01b03841691631652e7b7916106399160040161225b565b60606040518083038186803b15801561065157600080fd5b505afa925050508015610681575060408051601f3d908101601f1916820190925261067e91810190612002565b60015b610915573d8080156106af576040519150601f19603f3d011682016040523d82523d6000602084013e6106b4565b606091505b506000806000856001600160a01b031663f11b81888860e001516040518263ffffffff1660e01b81526004016106ea919061225b565b60606040518083038186803b15801561070257600080fd5b505afa158015610716573d6000803e3d6000fd5b505050506040513d601f19601f8201168201806040525081019061073a9190611faf565b92506001600160801b031692506001600160801b03169250604051806101200160405280848152602001838152602001828152602001876001600160a01b031663919cd40f6040518163ffffffff1660e01b815260040160206040518083038186803b1580156107a957600080fd5b505afa1580156107bd573d6000803e3d6000fd5b505050506040513d601f19601f820116820180604052508101906107e19190611fea565b81526020018860e001516001600160a01b03168152602001866001600160a01b03168152602001876001600160a01b03168152602001866001600160a01b031663313ce5676040518163ffffffff1660e01b815260040160206040518083038186803b15801561085057600080fd5b505afa158015610864573d6000803e3d6000fd5b505050506040513d601f19601f82011682018060405250810190610888919061207b565b60ff168152602001876001600160a01b031663aaf5eb686040518163ffffffff1660e01b815260040160206040518083038186803b1580156108c957600080fd5b505afa1580156108dd573d6000803e3d6000fd5b505050506040513d601f19601f82011682018060405250810190610901919061207b565b60ff169052602089015250610ad292505050565b604051806101200160405280838152602001828152602001848152602001866001600160a01b031663919cd40f6040518163ffffffff1660e01b815260040160206040518083038186803b15801561096c57600080fd5b505afa158015610980573d6000803e3d6000fd5b505050506040513d601f19601f820116820180604052508101906109a49190611fea565b81526020018760e001516001600160a01b03168152602001856001600160a01b03168152602001866001600160a01b03168152602001856001600160a01b031663313ce5676040518163ffffffff1660e01b815260040160206040518083038186803b158015610a1357600080fd5b505afa158015610a27573d6000803e3d6000fd5b505050506040513d601f19601f82011682018060405250810190610a4b919061207b565b60ff168152602001866001600160a01b031663aaf5eb686040518163ffffffff1660e01b815260040160206040518083038186803b158015610a8c57600080fd5b505afa158015610aa0573d6000803e3d6000fd5b505050506040513d601f19601f82011682018060405250810190610ac4919061207b565b60ff16905260208801525050505b505b505b8061012001516001600160a01b03166375d264136040518163ffffffff1660e01b815260040160206040518083038186803b158015610b1457600080fd5b505afa925050508015610b44575060408051601f3d908101601f19168201909252610b4191810190611dbe565b60015b610b7e573d808015610b72576040519150601f19603f3d011682016040523d82523d6000602084013e610b77565b606091505b50506110d3565b6001600160a01b038116156110d1576000816001600160a01b03166399248ea76040518163ffffffff1660e01b815260040160206040518083038186803b158015610bc857600080fd5b505afa158015610bdc573d6000803e3d6000fd5b505050506040513d601f19601f82011682018060405250810190610c009190611dbe565b610120840151604051631652e7b760e01b81529192506001600160a01b03841691631652e7b791610c339160040161225b565b60606040518083038186803b158015610c4b57600080fd5b505afa925050508015610c7b575060408051601f3d908101601f19168201909252610c7891810190612002565b60015b610f11573d808015610ca9576040519150601f19603f3d011682016040523d82523d6000602084013e610cae565b606091505b506000806000856001600160a01b031663f11b81888861012001516040518263ffffffff1660e01b8152600401610ce5919061225b565b60606040518083038186803b158015610cfd57600080fd5b505afa158015610d11573d6000803e3d6000fd5b505050506040513d601f19601f82011682018060405250810190610d359190611faf565b92506001600160801b031692506001600160801b03169250604051806101200160405280848152602001838152602001828152602001876001600160a01b031663919cd40f6040518163ffffffff1660e01b815260040160206040518083038186803b158015610da457600080fd5b505afa158015610db8573d6000803e3d6000fd5b505050506040513d601f19601f82011682018060405250810190610ddc9190611fea565b81526020018861012001516001600160a01b03168152602001866001600160a01b03168152602001876001600160a01b03168152602001866001600160a01b031663313ce5676040518163ffffffff1660e01b815260040160206040518083038186803b158015610e4c57600080fd5b505afa158015610e60573d6000803e3d6000fd5b505050506040513d601f19601f82011682018060405250810190610e84919061207b565b60ff168152602001876001600160a01b031663aaf5eb686040518163ffffffff1660e01b815260040160206040518083038186803b158015610ec557600080fd5b505afa158015610ed9573d6000803e3d6000fd5b505050506040513d601f19601f82011682018060405250810190610efd919061207b565b60ff1690526040890152506110cf92505050565b604051806101200160405280838152602001828152602001848152602001866001600160a01b031663919cd40f6040518163ffffffff1660e01b815260040160206040518083038186803b158015610f6857600080fd5b505afa158015610f7c573d6000803e3d6000fd5b505050506040513d601f19601f82011682018060405250810190610fa09190611fea565b81526020018761012001516001600160a01b03168152602001856001600160a01b03168152602001866001600160a01b03168152602001856001600160a01b031663313ce5676040518163ffffffff1660e01b815260040160206040518083038186803b15801561101057600080fd5b505afa158015611024573d6000803e3d6000fd5b505050506040513d601f19601f82011682018060405250810190611048919061207b565b60ff168152602001866001600160a01b031663aaf5eb686040518163ffffffff1660e01b815260040160206040518083038186803b15801561108957600080fd5b505afa15801561109d573d6000803e3d6000fd5b505050506040513d601f19601f820116820180604052508101906110c1919061207b565b60ff16905260408801525050505b505b505b50506001016103f8565b50949350505050565b60606000836001600160a01b0316630261bf8b6040518163ffffffff1660e01b815260040160206040518083038186803b15801561112357600080fd5b505afa158015611137573d6000803e3d6000fd5b505050506040513d601f19601f8201168201806040525081019061115b9190611dbe565b90506000816001600160a01b031663d1946dbc6040518163ffffffff1660e01b815260040160006040518083038186803b15801561119857600080fd5b505afa1580156111ac573d6000803e3d6000fd5b505050506040513d6000823e601f3d908101601f191682016040526111d49190810190611dda565b905060006001600160a01b0385166111ed5760006111f0565b81515b67ffffffffffffffff8111801561120657600080fd5b5060405190808252806020026020018201604052801561124057816020015b61122d611c65565b8152602001906001900390816112255790505b50905060005b8251811015611c19576000846001600160a01b03166335ea6a7585848151811061126c57fe5b60200260200101516040518263ffffffff1660e01b8152600401611290919061225b565b6101806040518083038186803b1580156112a957600080fd5b505afa1580156112bd573d6000803e3d6000fd5b505050506040513d601f19601f820116820180604052508101906112e19190611ebf565b90508382815181106112ef57fe5b602002602001015183838151811061130357fe5b60209081029190910101516001600160a01b039091169052611323611c9e565b8160e001516001600160a01b03166375d264136040518163ffffffff1660e01b815260040160206040518083038186803b15801561136057600080fd5b505afa925050508015611390575060408051601f3d908101601f1916820190925261138d91810190611dbe565b60015b6113ca573d8080156113be576040519150601f19603f3d011682016040523d82523d6000602084013e6113c3565b606091505b50506115f7565b6001600160a01b038116156115f5576000816001600160a01b03166399248ea76040518163ffffffff1660e01b815260040160206040518083038186803b15801561141457600080fd5b505afa158015611428573d6000803e3d6000fd5b505050506040513d601f19601f8201168201806040525081019061144c9190611dbe565b60e0850151604051630cdcfb9360e21b81529192506001600160a01b03841691633373ee4c91611481918e919060040161226f565b60206040518083038186803b15801561149957600080fd5b505afa1580156114ad573d6000803e3d6000fd5b505050506040513d601f19601f820116820180604052508101906114d19190611fea565b8352604051630cc7d40f60e11b81526001600160a01b0383169063198fa81e906114ff908d9060040161225b565b60206040518083038186803b15801561151757600080fd5b505afa15801561152b573d6000803e3d6000fd5b505050506040513d601f19601f8201168201806040525081019061154f9190611fea565b60208085019190915260e08501516001600160a01b03908116604080870191909152838216606087018190529185166080870152805163313ce56760e01b81529051919263313ce56792600480840193829003018186803b1580156115b357600080fd5b505afa1580156115c7573d6000803e3d6000fd5b505050506040513d601f19601f820116820180604052508101906115eb919061207b565b60ff1660a0840152505b505b8084848151811061160457fe5b60200260200101516020018190525061161b611c9e565b8261012001516001600160a01b03166375d264136040518163ffffffff1660e01b815260040160206040518083038186803b15801561165957600080fd5b505afa925050508015611689575060408051601f3d908101601f1916820190925261168691810190611dbe565b60015b6116c3573d8080156116b7576040519150601f19603f3d011682016040523d82523d6000602084013e6116bc565b606091505b50506118f2565b6001600160a01b038116156118f0576000816001600160a01b03166399248ea76040518163ffffffff1660e01b815260040160206040518083038186803b15801561170d57600080fd5b505afa158015611721573d6000803e3d6000fd5b505050506040513d601f19601f820116820180604052508101906117459190611dbe565b610120860151604051630cdcfb9360e21b81529192506001600160a01b03841691633373ee4c9161177b918f919060040161226f565b60206040518083038186803b15801561179357600080fd5b505afa1580156117a7573d6000803e3d6000fd5b505050506040513d601f19601f820116820180604052508101906117cb9190611fea565b8352604051630cc7d40f60e11b81526001600160a01b0383169063198fa81e906117f9908e9060040161225b565b60206040518083038186803b15801561181157600080fd5b505afa158015611825573d6000803e3d6000fd5b505050506040513d601f19601f820116820180604052508101906118499190611fea565b6020808501919091526101208601516001600160a01b03908116604080870191909152838216606087018190529185166080870152805163313ce56760e01b81529051919263313ce56792600480840193829003018186803b1580156118ae57600080fd5b505afa1580156118c2573d6000803e3d6000fd5b505050506040513d601f19601f820116820180604052508101906118e6919061207b565b60ff1660a0840152505b505b808585815181106118ff57fe5b602002602001015160400181905250611916611c9e565b8361010001516001600160a01b03166375d264136040518163ffffffff1660e01b815260040160206040518083038186803b15801561195457600080fd5b505afa925050508015611984575060408051601f3d908101601f1916820190925261198191810190611dbe565b60015b6119be573d8080156119b2576040519150601f19603f3d011682016040523d82523d6000602084013e6119b7565b606091505b5050611bec565b6001600160a01b03811615611bea576000816001600160a01b03166399248ea76040518163ffffffff1660e01b815260040160206040518083038186803b158015611a0857600080fd5b505afa158015611a1c573d6000803e3d6000fd5b505050506040513d601f19601f82011682018060405250810190611a409190611dbe565b9050816001600160a01b0316633373ee4c8d8861010001516040518363ffffffff1660e01b8152600401611a7592919061226f565b60206040518083038186803b158015611a8d57600080fd5b505afa158015611aa1573d6000803e3d6000fd5b505050506040513d601f19601f82011682018060405250810190611ac59190611fea565b8352604051630cc7d40f60e11b81526001600160a01b0383169063198fa81e90611af3908f9060040161225b565b60206040518083038186803b158015611b0b57600080fd5b505afa158015611b1f573d6000803e3d6000fd5b505050506040513d601f19601f82011682018060405250810190611b439190611fea565b6020808501919091526101008701516001600160a01b03908116604080870191909152838216606087018190529185166080870152805163313ce56760e01b81529051919263313ce56792600480840193829003018186803b158015611ba857600080fd5b505afa158015611bbc573d6000803e3d6000fd5b505050506040513d601f19601f82011682018060405250810190611be0919061207b565b60ff1660a0840152505b505b80868681518110611bf957fe5b602002602001015160600181905250505050508080600101915050611246565b5095945050505050565b604051806080016040528060006001600160a01b03168152602001611c46611cd3565b8152602001611c53611cd3565b8152602001611c60611cd3565b905290565b604051806080016040528060006001600160a01b03168152602001611c88611c9e565b8152602001611c95611c9e565b8152602001611c605b6040805160c081018252600080825260208201819052918101829052606081018290526080810182905260a081019190915290565b6040805161012081018252600080825260208201819052918101829052606081018290526080810182905260a0810182905260c0810182905260e0810182905261010081019190915290565b80516101d78161230a565b600060208284031215611d3b578081fd5b6040516020810181811067ffffffffffffffff82111715611d5857fe5b6040529151825250919050565b80516001600160801b03811681146101d757600080fd5b805164ffffffffff811681146101d757600080fd5b805160ff811681146101d757600080fd5b600060208284031215611db3578081fd5b81356101c28161230a565b600060208284031215611dcf578081fd5b81516101c28161230a565b60006020808385031215611dec578182fd5b825167ffffffffffffffff80821115611e03578384fd5b818501915085601f830112611e16578384fd5b815181811115611e2257fe5b8381029150611e328483016122e6565b8181528481019084860184860187018a1015611e4c578788fd5b8795505b83861015611e7a5780519450611e658561230a565b84835260019590950194918601918601611e50565b5098975050505050505050565b60008060408385031215611e99578081fd5b8235611ea48161230a565b91506020830135611eb48161230a565b809150509250929050565b6000610180808385031215611ed2578182fd5b611edb816122e6565b9050611ee78484611d2a565b8152611ef560208401611d65565b6020820152611f0660408401611d65565b6040820152611f1760608401611d65565b6060820152611f2860808401611d65565b6080820152611f3960a08401611d65565b60a0820152611f4a60c08401611d7c565b60c0820152611f5b60e08401611d1f565b60e0820152610100611f6e818501611d1f565b90820152610120611f80848201611d1f565b90820152610140611f92848201611d1f565b90820152610160611fa4848201611d91565b908201529392505050565b600080600060608486031215611fc3578081fd5b611fcc84611d65565b9250611fda60208501611d65565b9150604084015190509250925092565b600060208284031215611ffb578081fd5b5051919050565b600080600060608486031215612016578283fd5b8351925060208401519150604084015190509250925092565b600080600080600060a08688031215612046578081fd5b85519450602086015193506040860151925060608601519150608086015161206d8161230a565b809150509295509295909350565b60006020828403121561208c578081fd5b6101c282611d91565b6000815180845260208085019450808401835b8381101561210b57815180516001600160a01b03168852838101516120cf858a018261218b565b5060408101516120e36101408a018261218b565b50606001516120f661026089018261218b565b506103809690960195908201906001016120a8565b509495945050505050565b6000815180845260208085019450808401835b8381101561210b57815180516001600160a01b0316885283810151612150858a0182612207565b50604081015161216360e08a0182612207565b50606001516121766101a0890182612207565b50610260969096019590820190600101612129565b80518252602081015160208301526040810151604083015260608101516060830152608081015160018060a01b0380821660808501528060a08401511660a08501528060c08401511660c0850152505060e08101516121ed60e0840182612254565b506101008082015161220182850182612254565b50505050565b8051825260208101516020830152604081015160018060a01b038082166040850152806060840151166060850152806080840151166080850152505060ff60a08201511660a08301525050565b60ff169052565b6001600160a01b0391909116815260200190565b6001600160a01b0392831681529116602082015260400190565b6000602082526101c26020830184612095565b6000604082526122af6040830185612095565b82810360208401526122c18185612116565b95945050505050565b6000602082526101c26020830184612116565b90815260200190565b60405181810167ffffffffffffffff8111828210171561230257fe5b604052919050565b6001600160a01b038116811461231f57600080fd5b5056fea264697066735822122098ac18ab00d6a012c06cdb468a3d2cc6d5df962cc00d4aaf2a6cff34d9b7325b64736f6c63430007060033",
  "linkReferences": {},
  "deployedLinkReferences": {}
}