{
  "_format": "hh-sol-artifact-1",
  "contractName": "ProtocolOwnedDEXLiquidity",
  "sourceName": "contracts/staking/ProtocolOwnedDEXLiquidity.sol",
  "abi": [
    {
      "inputs": [
        {
          "internalType": "uint256",
          "name": "_lockMultiplier",
          "type": "uint256"
        },
        {
          "internalType": "uint256",
          "name": "_minBuy",
          "type": "uint256"
        },
        {
          "internalType": "uint256",
          "name": "_minLock",
          "type": "uint256"
        },
        {
          "internalType": "uint256",
          "name": "_cooldown",
          "type": "uint256"
        },
        {
          "internalType": "uint256",
          "name": "_podlCooldown",
          "type": "uint256"
        }
      ],
      "stateMutability": "nonpayable",
      "type": "constructor"
    },
    {
      "anonymous": false,
      "inputs": [
        {
          "indexed": true,
          "internalType": "address",
          "name": "podler",
          "type": "address"
        },
        {
          "indexed": false,
          "internalType": "uint256",
          "name": "amount",
          "type": "uint256"
        }
      ],
      "name": "AaaaaaahAndImSuperPODLiiiiing",
      "type": "event"
    },
    {
      "anonymous": false,
      "inputs": [
        {
          "indexed": true,
          "internalType": "address",
          "name": "previousOwner",
          "type": "address"
        },
        {
          "indexed": true,
          "internalType": "address",
          "name": "newOwner",
          "type": "address"
        }
      ],
      "name": "OwnershipTransferred",
      "type": "event"
    },
    {
      "anonymous": false,
      "inputs": [
        {
          "indexed": false,
          "internalType": "contract IERC20",
          "name": "_sFTM",
          "type": "address"
        }
      ],
      "name": "SetsFTM",
      "type": "event"
    },
    {
      "anonymous": false,
      "inputs": [
        {
          "indexed": true,
          "internalType": "address",
          "name": "buyer",
          "type": "address"
        },
        {
          "indexed": false,
          "internalType": "uint256",
          "name": "amount",
          "type": "uint256"
        }
      ],
      "name": "SoldFTM",
      "type": "event"
    },
    {
      "inputs": [],
      "name": "availableFTM",
      "outputs": [
        {
          "internalType": "uint256",
          "name": "",
          "type": "uint256"
        }
      ],
      "stateMutability": "view",
      "type": "function"
    },
    {
      "inputs": [
        {
          "internalType": "address",
          "name": "_user",
          "type": "address"
        }
      ],
      "name": "availableForUser",
      "outputs": [
        {
          "internalType": "uint256",
          "name": "",
          "type": "uint256"
        }
      ],
      "stateMutability": "view",
      "type": "function"
    },
    {
      "inputs": [],
      "name": "buyCooldown",
      "outputs": [
        {
          "internalType": "uint256",
          "name": "",
          "type": "uint256"
        }
      ],
      "stateMutability": "view",
      "type": "function"
    },
    {
      "inputs": [
        {
          "internalType": "uint256",
          "name": "_amount",
          "type": "uint256"
        }
      ],
      "name": "buyFTM",
      "outputs": [],
      "stateMutability": "nonpayable",
      "type": "function"
    },
    {
      "inputs": [],
      "name": "lockedBalanceMultiplier",
      "outputs": [
        {
          "internalType": "uint256",
          "name": "",
          "type": "uint256"
        }
      ],
      "stateMutability": "view",
      "type": "function"
    },
    {
      "inputs": [],
      "name": "lpToken",
      "outputs": [
        {
          "internalType": "contract IUniswapLPToken",
          "name": "",
          "type": "address"
        }
      ],
      "stateMutability": "view",
      "type": "function"
    },
    {
      "inputs": [],
      "name": "lpTokensPerOneFTM",
      "outputs": [
        {
          "internalType": "uint256",
          "name": "",
          "type": "uint256"
        }
      ],
      "stateMutability": "view",
      "type": "function"
    },
    {
      "inputs": [],
      "name": "minBuyAmount",
      "outputs": [
        {
          "internalType": "uint256",
          "name": "",
          "type": "uint256"
        }
      ],
      "stateMutability": "view",
      "type": "function"
    },
    {
      "inputs": [],
      "name": "minSuperPODLLock",
      "outputs": [
        {
          "internalType": "uint256",
          "name": "",
          "type": "uint256"
        }
      ],
      "stateMutability": "view",
      "type": "function"
    },
    {
      "inputs": [],
      "name": "owner",
      "outputs": [
        {
          "internalType": "address",
          "name": "",
          "type": "address"
        }
      ],
      "stateMutability": "view",
      "type": "function"
    },
    {
      "inputs": [],
      "name": "protocolOwnedReserves",
      "outputs": [
        {
          "internalType": "uint256",
          "name": "wftm",
          "type": "uint256"
        },
        {
          "internalType": "uint256",
          "name": "sculp",
          "type": "uint256"
        }
      ],
      "stateMutability": "view",
      "type": "function"
    },
    {
      "inputs": [],
      "name": "renounceOwnership",
      "outputs": [],
      "stateMutability": "nonpayable",
      "type": "function"
    },
    {
      "inputs": [],
      "name": "sFTM",
      "outputs": [
        {
          "internalType": "contract IERC20",
          "name": "",
          "type": "address"
        }
      ],
      "stateMutability": "view",
      "type": "function"
    },
    {
      "inputs": [
        {
          "internalType": "uint256",
          "name": "_lockMultiplier",
          "type": "uint256"
        },
        {
          "internalType": "uint256",
          "name": "_minBuy",
          "type": "uint256"
        },
        {
          "internalType": "uint256",
          "name": "_minLock",
          "type": "uint256"
        },
        {
          "internalType": "uint256",
          "name": "_cooldown",
          "type": "uint256"
        },
        {
          "internalType": "uint256",
          "name": "_podlCooldown",
          "type": "uint256"
        }
      ],
      "name": "setParams",
      "outputs": [],
      "stateMutability": "nonpayable",
      "type": "function"
    },
    {
      "inputs": [
        {
          "internalType": "contract IERC20",
          "name": "_sFTM",
          "type": "address"
        }
      ],
      "name": "setsFTM",
      "outputs": [],
      "stateMutability": "nonpayable",
      "type": "function"
    },
    {
      "inputs": [
        {
          "internalType": "uint256",
          "name": "_amount",
          "type": "uint256"
        }
      ],
      "name": "superPODL",
      "outputs": [],
      "stateMutability": "nonpayable",
      "type": "function"
    },
    {
      "inputs": [],
      "name": "superPODLCooldown",
      "outputs": [
        {
          "internalType": "uint256",
          "name": "",
          "type": "uint256"
        }
      ],
      "stateMutability": "view",
      "type": "function"
    },
    {
      "inputs": [],
      "name": "totalSoldFTM",
      "outputs": [
        {
          "internalType": "uint256",
          "name": "",
          "type": "uint256"
        }
      ],
      "stateMutability": "view",
      "type": "function"
    },
    {
      "inputs": [
        {
          "internalType": "address",
          "name": "newOwner",
          "type": "address"
        }
      ],
      "name": "transferOwnership",
      "outputs": [],
      "stateMutability": "nonpayable",
      "type": "function"
    },
    {
      "inputs": [],
      "name": "treasury",
      "outputs": [
        {
          "internalType": "contract IMultiFeeDistribution",
          "name": "",
          "type": "address"
        }
      ],
      "stateMutability": "view",
      "type": "function"
    },
    {
      "inputs": [
        {
          "internalType": "address",
          "name": "",
          "type": "address"
        }
      ],
      "name": "userData",
      "outputs": [
        {
          "internalType": "uint256",
          "name": "nextClaimTime",
          "type": "uint256"
        },
        {
          "internalType": "uint256",
          "name": "claimCount",
          "type": "uint256"
        },
        {
          "internalType": "uint256",
          "name": "totalBoughtFTM",
          "type": "uint256"
        }
      ],
      "stateMutability": "view",
      "type": "function"
    }
  ],
  "bytecode": "0x608060405234801561001057600080fd5b5060405161133a38038061133a833981810160405260a081101561003357600080fd5b50805160208201516040830151606084015160809094015192939192909190600061005c6100bd565b600080546001600160a01b0319166001600160a01b0383169081178255604051929350917f8be0079c531659141344cd1fd0a4f28419497f9722a3daafe3b4186f6b6457e0908290a3506100b385858585856100c1565b5050505050610157565b3390565b6100c96100bd565b6000546001600160a01b0390811691161461012b576040805162461bcd60e51b815260206004820181905260248201527f4f776e61626c653a2063616c6c6572206973206e6f7420746865206f776e6572604482015290519081900360640190fd5b67016345785d8a000084101561014057600080fd5b600894909455600492909255600555600655600755565b6111d4806101666000396000f3fe608060405234801561001057600080fd5b50600436106101375760003560e01c8063acef2e0f116100b8578063c89109131161007c578063c891091314610263578063d828bb88146102a7578063e6e789b4146102dc578063f1c49e64146102e4578063f2fde38b146102ec578063f66bf2291461031257610137565b8063acef2e0f146101f3578063b517f4ca146101fb578063b8b35b9314610221578063c34b6d2f1461023e578063c49185231461024657610137565b8063670e97ed116100ff578063670e97ed146101c9578063704fbfe5146101d1578063715018a6146101d95780638da5cb5b146101e35780639fad09e5146101eb57610137565b80633c3d8c8f1461013c578063404ea7d91461017457806348c749501461017c5780635fcbd2851461019d57806361d027b3146101c1575b600080fd5b6101626004803603602081101561015257600080fd5b50356001600160a01b031661031a565b60408051918252519081900360200190f35b6101626104ac565b6101846104b2565b6040805192835260208301919091528051918290030190f35b6101a561066f565b604080516001600160a01b039092168252519081900360200190f35b6101a5610687565b61016261069f565b6101626106a5565b6101e16106ab565b005b6101a561074d565b61016261075c565b6101626107e6565b6101e16004803603602081101561021157600080fd5b50356001600160a01b03166107ec565b6101e16004803603602081101561023757600080fd5b5035610898565b6101a56109a6565b6101e16004803603602081101561025c57600080fd5b50356109b5565b6102896004803603602081101561027957600080fd5b50356001600160a01b0316610a21565b60408051938452602084019290925282820152519081900360600190f35b6101e1600480360360a08110156102bd57600080fd5b5080359060208101359060408101359060608101359060800135610a41565b610162610ac5565b610162610bee565b6101e16004803603602081101561030257600080fd5b50356001600160a01b0316610bf4565b610162610cec565b6001600160a01b038116600090815260026020526040812080544210156103455760009150506104a7565b600061034f61075c565b90506000737c32f68811c7de69fb3c26e0ed47b823fbdcf7956001600160a01b0316630483a7f6866040518263ffffffff1660e01b815260040180826001600160a01b0316815260200191505060206040518083038186803b1580156103b457600080fd5b505afa1580156103c8573d6000803e3d6000fd5b505050506040513d60208110156103de57600080fd5b50516040805163ca5c7b9160e01b81529051919250600091737c32f68811c7de69fb3c26e0ed47b823fbdcf7959163ca5c7b91916004808301926020929190829003018186803b15801561043157600080fd5b505afa158015610445573d6000803e3d6000fd5b505050506040513d602081101561045b57600080fd5b505160085490915060009061048990839061048390869061047d908990610cf2565b90610cf2565b90610d54565b9050838111156104a05783955050505050506104a7565b9450505050505b919050565b60085481565b6000806000807321effccb384fc8996d8b1df5d9ba1f9732efaa186001600160a01b0316630902f1ac6040518163ffffffff1660e01b815260040160606040518083038186803b15801561050557600080fd5b505afa158015610519573d6000803e3d6000fd5b505050506040513d606081101561052f57600080fd5b508051602091820151604080516370a0823160e01b815230600482015290516001600160701b0393841696509290911693506000927321effccb384fc8996d8b1df5d9ba1f9732efaa18926370a08231926024808201939291829003018186803b15801561059c57600080fd5b505afa1580156105b0573d6000803e3d6000fd5b505050506040513d60208110156105c657600080fd5b5051604080516318160ddd60e01b815290519192506000917321effccb384fc8996d8b1df5d9ba1f9732efaa18916318160ddd916004808301926020929190829003018186803b15801561061957600080fd5b505afa15801561062d573d6000803e3d6000fd5b505050506040513d602081101561064357600080fd5b50519050610655816104838685610cf2565b610663826104838686610cf2565b95509550505050509091565b7321effccb384fc8996d8b1df5d9ba1f9732efaa1881565b737c32f68811c7de69fb3c26e0ed47b823fbdcf79581565b60055481565b60065481565b6106b3610d96565b6000546001600160a01b03908116911614610703576040805162461bcd60e51b8152602060048201819052602482015260008051602061117f833981519152604482015290519081900360640190fd5b600080546040516001600160a01b03909116907f8be0079c531659141344cd1fd0a4f28419497f9722a3daafe3b4186f6b6457e0908390a3600080546001600160a01b0319169055565b6000546001600160a01b031690565b600154604080516370a0823160e01b815230600482015290516000926002926001600160a01b03909116916370a0823191602480820192602092909190829003018186803b1580156107ad57600080fd5b505afa1580156107c1573d6000803e3d6000fd5b505050506040513d60208110156107d757600080fd5b5051816107e057fe5b04905090565b60035481565b6107f4610d96565b6000546001600160a01b03908116911614610844576040805162461bcd60e51b8152602060048201819052602482015260008051602061117f833981519152604482015290519081900360640190fd5b600180546001600160a01b0383166001600160a01b0319909116811790915560408051918252517f65c4b4aa376670ccf3cc922b382f0a2d46dbcfe3a292c736b47e1f213666d25e9181900360200190a150565b60055460408051630241d3fb60e11b81523360048201529051737c32f68811c7de69fb3c26e0ed47b823fbdcf79591630483a7f6916024808301926020929190829003018186803b1580156108ec57600080fd5b505afa158015610900573d6000803e3d6000fd5b505050506040513d602081101561091657600080fd5b50511015610961576040805162461bcd60e51b81526020600482015260136024820152724e65656420746f206c6f636b205343554c502160681b604482015290519081900360640190fd5b61096d81600754610d9a565b60408051828152905133917f401d77fee42d0956b84fda240a2c5b12c0fe605ed0e021e1907aaa5bb0ad37ca919081900360200190a250565b6001546001600160a01b031681565b6109be3361031a565b811115610a12576040805162461bcd60e51b815260206004820152601960248201527f416d6f756e7420657863656564732075736572206c696d697400000000000000604482015290519081900360640190fd5b610a1e81600654610d9a565b50565b600260208190526000918252604090912080546001820154919092015483565b610a49610d96565b6000546001600160a01b03908116911614610a99576040805162461bcd60e51b8152602060048201819052602482015260008051602061117f833981519152604482015290519081900360640190fd5b67016345785d8a0000841015610aae57600080fd5b600894909455600492909255600555600655600755565b6000807321effccb384fc8996d8b1df5d9ba1f9732efaa186001600160a01b03166318160ddd6040518163ffffffff1660e01b815260040160206040518083038186803b158015610b1557600080fd5b505afa158015610b29573d6000803e3d6000fd5b505050506040513d6020811015610b3f57600080fd5b505160408051630240bc6b60e21b815290519192506000917321effccb384fc8996d8b1df5d9ba1f9732efaa1891630902f1ac916004808301926060929190829003018186803b158015610b9257600080fd5b505afa158015610ba6573d6000803e3d6000fd5b505050506040513d6060811015610bbc57600080fd5b50516001600160701b03169050610be760646104838381602d61047d88670de0b6b3a7640000610cf2565b9250505090565b60075481565b610bfc610d96565b6000546001600160a01b03908116911614610c4c576040805162461bcd60e51b8152602060048201819052602482015260008051602061117f833981519152604482015290519081900360640190fd5b6001600160a01b038116610c915760405162461bcd60e51b81526004018080602001828103825260268152602001806111386026913960400191505060405180910390fd5b600080546040516001600160a01b03808516939216917f8be0079c531659141344cd1fd0a4f28419497f9722a3daafe3b4186f6b6457e091a3600080546001600160a01b0319166001600160a01b0392909216919091179055565b60045481565b600082610d0157506000610d4e565b82820282848281610d0e57fe5b0414610d4b5760405162461bcd60e51b815260040180806020018281038252602181526020018061115e6021913960400191505060405180910390fd5b90505b92915050565b6000610d4b83836040518060400160405280601a81526020017f536166654d6174683a206469766973696f6e206279207a65726f00000000000081525061103b565b3390565b600454821015610de8576040805162461bcd60e51b815260206004820152601460248201527310995b1bddc81b5a5b88189d5e48185b5bdd5b9d60621b604482015290519081900360640190fd5b6000610e08670de0b6b3a7640000610483610e01610ac5565b8690610cf2565b604080516323b872dd60e01b81523360048201523060248201526044810183905290519192507321effccb384fc8996d8b1df5d9ba1f9732efaa18916323b872dd916064808201926020929091908290030181600087803b158015610e6c57600080fd5b505af1158015610e80573d6000803e3d6000fd5b505050506040513d6020811015610e9657600080fd5b50506001546040805163a9059cbb60e01b81523360048201526024810186905290516001600160a01b039092169163a9059cbb916044808201926020929091908290030181600087803b158015610eec57600080fd5b505af1158015610f00573d6000803e3d6000fd5b505050506040513d6020811015610f1657600080fd5b50506001546040805163a9059cbb60e01b8152737c32f68811c7de69fb3c26e0ed47b823fbdcf79560048201526024810186905290516001600160a01b039092169163a9059cbb916044808201926020929091908290030181600087803b158015610f8057600080fd5b505af1158015610f94573d6000803e3d6000fd5b505050506040513d6020811015610faa57600080fd5b5050336000908152600260205260409020610fc542846110dd565b8155600180820154610fd6916110dd565b60018201556002810154610fea90856110dd565b6002820155600354610ffc90856110dd565b60035560408051858152905133917fd5e10681669a12e566fa5dde10ebec2f2ade55a7f730274c5d5463e8d48fa7d0919081900360200190a250505050565b600081836110c75760405162461bcd60e51b81526004018080602001828103825283818151815260200191508051906020019080838360005b8381101561108c578181015183820152602001611074565b50505050905090810190601f1680156110b95780820380516001836020036101000a031916815260200191505b509250505060405180910390fd5b5060008385816110d357fe5b0495945050505050565b600082820183811015610d4b576040805162461bcd60e51b815260206004820152601b60248201527f536166654d6174683a206164646974696f6e206f766572666c6f770000000000604482015290519081900360640190fdfe4f776e61626c653a206e6577206f776e657220697320746865207a65726f2061646472657373536166654d6174683a206d756c7469706c69636174696f6e206f766572666c6f774f776e61626c653a2063616c6c6572206973206e6f7420746865206f776e6572a26469706673582212202e375daef1851d1cc7cd0d5ec18f9b0ea909aeb82eab4b6d61712ddf08dbe78664736f6c63430007060033",
  "linkReferences": {},
  "deployedLinkReferences": {}
}