{
  "_format": "hh-sol-artifact-1",
  "contractName": "DefaultReserveInterestRateStrategy",
  "sourceName": "contracts/protocol/lendingpool/DefaultReserveInterestRateStrategy.sol",
  "abi": [
    {
      "inputs": [
        {
          "internalType": "contract ILendingPoolAddressesProvider",
          "name": "provider_",
          "type": "address"
        },
        {
          "internalType": "uint256",
          "name": "optimalUtilizationRate_",
          "type": "uint256"
        },
        {
          "internalType": "uint256",
          "name": "baseVariableBorrowRate_",
          "type": "uint256"
        },
        {
          "internalType": "uint256",
          "name": "variableRateSlope1_",
          "type": "uint256"
        },
        {
          "internalType": "uint256",
          "name": "variableRateSlope2_",
          "type": "uint256"
        },
        {
          "internalType": "uint256",
          "name": "stableRateSlope1_",
          "type": "uint256"
        },
        {
          "internalType": "uint256",
          "name": "stableRateSlope2_",
          "type": "uint256"
        }
      ],
      "stateMutability": "nonpayable",
      "type": "constructor"
    },
    {
      "anonymous": false,
      "inputs": [
        {
          "indexed": false,
          "internalType": "address",
          "name": "_provider",
          "type": "address"
        }
      ],
      "name": "NewAddressProvider",
      "type": "event"
    },
    {
      "anonymous": false,
      "inputs": [
        {
          "indexed": true,
          "internalType": "address",
          "name": "previousOwner",
          "type": "address"
        },
        {
          "indexed": true,
          "internalType": "address",
          "name": "newOwner",
          "type": "address"
        }
      ],
      "name": "OwnershipTransferred",
      "type": "event"
    },
    {
      "inputs": [],
      "name": "EXCESS_UTILIZATION_RATE",
      "outputs": [
        {
          "internalType": "uint256",
          "name": "",
          "type": "uint256"
        }
      ],
      "stateMutability": "view",
      "type": "function"
    },
    {
      "inputs": [],
      "name": "OPTIMAL_UTILIZATION_RATE",
      "outputs": [
        {
          "internalType": "uint256",
          "name": "",
          "type": "uint256"
        }
      ],
      "stateMutability": "view",
      "type": "function"
    },
    {
      "inputs": [],
      "name": "addressesProvider",
      "outputs": [
        {
          "internalType": "contract ILendingPoolAddressesProvider",
          "name": "",
          "type": "address"
        }
      ],
      "stateMutability": "view",
      "type": "function"
    },
    {
      "inputs": [],
      "name": "baseVariableBorrowRate",
      "outputs": [
        {
          "internalType": "uint256",
          "name": "",
          "type": "uint256"
        }
      ],
      "stateMutability": "view",
      "type": "function"
    },
    {
      "inputs": [
        {
          "internalType": "address",
          "name": "reserve",
          "type": "address"
        },
        {
          "internalType": "address",
          "name": "aToken",
          "type": "address"
        },
        {
          "internalType": "uint256",
          "name": "liquidityAdded",
          "type": "uint256"
        },
        {
          "internalType": "uint256",
          "name": "liquidityTaken",
          "type": "uint256"
        },
        {
          "internalType": "uint256",
          "name": "totalStableDebt",
          "type": "uint256"
        },
        {
          "internalType": "uint256",
          "name": "totalVariableDebt",
          "type": "uint256"
        },
        {
          "internalType": "uint256",
          "name": "averageStableBorrowRate",
          "type": "uint256"
        },
        {
          "internalType": "uint256",
          "name": "reserveFactor",
          "type": "uint256"
        }
      ],
      "name": "calculateInterestRates",
      "outputs": [
        {
          "internalType": "uint256",
          "name": "",
          "type": "uint256"
        },
        {
          "internalType": "uint256",
          "name": "",
          "type": "uint256"
        },
        {
          "internalType": "uint256",
          "name": "",
          "type": "uint256"
        }
      ],
      "stateMutability": "view",
      "type": "function"
    },
    {
      "inputs": [
        {
          "internalType": "address",
          "name": "reserve",
          "type": "address"
        },
        {
          "internalType": "uint256",
          "name": "availableLiquidity",
          "type": "uint256"
        },
        {
          "internalType": "uint256",
          "name": "totalStableDebt",
          "type": "uint256"
        },
        {
          "internalType": "uint256",
          "name": "totalVariableDebt",
          "type": "uint256"
        },
        {
          "internalType": "uint256",
          "name": "averageStableBorrowRate",
          "type": "uint256"
        },
        {
          "internalType": "uint256",
          "name": "reserveFactor",
          "type": "uint256"
        }
      ],
      "name": "calculateInterestRates",
      "outputs": [
        {
          "internalType": "uint256",
          "name": "",
          "type": "uint256"
        },
        {
          "internalType": "uint256",
          "name": "",
          "type": "uint256"
        },
        {
          "internalType": "uint256",
          "name": "",
          "type": "uint256"
        }
      ],
      "stateMutability": "view",
      "type": "function"
    },
    {
      "inputs": [],
      "name": "getMaxVariableBorrowRate",
      "outputs": [
        {
          "internalType": "uint256",
          "name": "",
          "type": "uint256"
        }
      ],
      "stateMutability": "view",
      "type": "function"
    },
    {
      "inputs": [],
      "name": "owner",
      "outputs": [
        {
          "internalType": "address",
          "name": "",
          "type": "address"
        }
      ],
      "stateMutability": "view",
      "type": "function"
    },
    {
      "inputs": [],
      "name": "renounceOwnership",
      "outputs": [],
      "stateMutability": "nonpayable",
      "type": "function"
    },
    {
      "inputs": [
        {
          "internalType": "address",
          "name": "_provider",
          "type": "address"
        }
      ],
      "name": "setNewAddressProvider",
      "outputs": [],
      "stateMutability": "nonpayable",
      "type": "function"
    },
    {
      "inputs": [],
      "name": "stableRateSlope1",
      "outputs": [
        {
          "internalType": "uint256",
          "name": "",
          "type": "uint256"
        }
      ],
      "stateMutability": "view",
      "type": "function"
    },
    {
      "inputs": [],
      "name": "stableRateSlope2",
      "outputs": [
        {
          "internalType": "uint256",
          "name": "",
          "type": "uint256"
        }
      ],
      "stateMutability": "view",
      "type": "function"
    },
    {
      "inputs": [
        {
          "internalType": "address",
          "name": "newOwner",
          "type": "address"
        }
      ],
      "name": "transferOwnership",
      "outputs": [],
      "stateMutability": "nonpayable",
      "type": "function"
    },
    {
      "inputs": [],
      "name": "variableRateSlope1",
      "outputs": [
        {
          "internalType": "uint256",
          "name": "",
          "type": "uint256"
        }
      ],
      "stateMutability": "view",
      "type": "function"
    },
    {
      "inputs": [],
      "name": "variableRateSlope2",
      "outputs": [
        {
          "internalType": "uint256",
          "name": "",
          "type": "uint256"
        }
      ],
      "stateMutability": "view",
      "type": "function"
    }
  ],
  "bytecode": "0x6101606040523480156200001257600080fd5b506040516200135738038062001357833981810160405260e08110156200003857600080fd5b508051602082015160408301516060840151608085015160a086015160c090960151949593949293919290919060006200007162000134565b600080546001600160a01b0319166001600160a01b0383169081178255604051929350917f8be0079c531659141344cd1fd0a4f28419497f9722a3daafe3b4186f6b6457e0908290a3508560808181525050620000f186620000dd6200013860201b62000b5a1760201c565b6200014860201b62000b6a1790919060201c565b60a052600180546001600160a01b0319166001600160a01b03989098169790971790965560c09390935260e0919091526101005261012052506101405262000234565b3390565b6b033b2e3c9fd0803ce800000090565b60006200019283836040518060400160405280601e81526020017f536166654d6174683a207375627472616374696f6e206f766572666c6f7700008152506200019960201b60201c565b9392505050565b600081848411156200022c5760405162461bcd60e51b81526004018080602001828103825283818151815260200191508051906020019080838360005b83811015620001f0578181015183820152602001620001d6565b50505050905090810190601f1680156200021e5780820380516001836020036101000a031916815260200191505b509250505060405180910390fd5b505050900390565b60805160a05160c05160e05161010051610120516101405161107f620002d8600039806107aa5280610a2e52508061028752806107da52806108c45250806104475280610548528061080b52508061051f528061058d5280610856528061092e52508061056c5280610835528061095452806109fb5250806102ab528061074452508061071852806107685280610890528061090852806109d7525061107f6000f3fe608060405234801561001057600080fd5b50600436106100f55760003560e01c806380031e3711610097578063b258954411610066578063b258954414610247578063c72c4d101461024f578063ccab01a314610257578063f2fde38b1461025f576100f5565b806380031e37146101cf5780638da5cb5b146101d75780639584df28146101fb578063a15f30ac1461023f576100f5565b806329db497d116100d357806329db497d1461014457806365614f81146101b7578063715018a6146101bf5780637b832f58146101c7576100f5565b80630bdf953f146100fa578063173198731461011457806324732f031461011c575b600080fd5b610102610285565b60408051918252519081900360200190f35b6101026102a9565b6101426004803603602081101561013257600080fd5b50356001600160a01b03166102cd565b005b610199600480360361010081101561015b57600080fd5b506001600160a01b03813581169160208101359091169060408101359060608101359060808101359060a08101359060c08101359060e0013561038b565b60408051938452602084019290925282820152519081900360600190f35b610102610445565b610142610469565b61010261051d565b610102610541565b6101df6105bc565b604080516001600160a01b039092168252519081900360200190f35b610199600480360360c081101561021157600080fd5b506001600160a01b038135169060208101359060408101359060608101359060808101359060a001356105cb565b6101026109d5565b6101026109f9565b6101df610a1d565b610102610a2c565b6101426004803603602081101561027557600080fd5b50356001600160a01b0316610a50565b7f000000000000000000000000000000000000000000000000000000000000000090565b7f000000000000000000000000000000000000000000000000000000000000000081565b6102d5610bb5565b6000546001600160a01b03908116911614610337576040805162461bcd60e51b815260206004820181905260248201527f4f776e61626c653a2063616c6c6572206973206e6f7420746865206f776e6572604482015290519081900360640190fd5b600180546001600160a01b0383166001600160a01b0319909116811790915560408051918252517f8dcd1f183e0f2418af86f56116cc52ce3ab6f8e0f9f74eae5d6e3b86c6cb74909181900360200190a150565b6000806000808b6001600160a01b03166370a082318c6040518263ffffffff1660e01b815260040180826001600160a01b0316815260200191505060206040518083038186803b1580156103de57600080fd5b505afa1580156103f2573d6000803e3d6000fd5b505050506040513d602081101561040857600080fd5b505190506104208961041a838d610bb9565b90610b6a565b90506104308c828a8a8a8a6105cb565b93509350935050985098509895505050505050565b7f000000000000000000000000000000000000000000000000000000000000000090565b610471610bb5565b6000546001600160a01b039081169116146104d3576040805162461bcd60e51b815260206004820181905260248201527f4f776e61626c653a2063616c6c6572206973206e6f7420746865206f776e6572604482015290519081900360640190fd5b600080546040516001600160a01b03909116907f8be0079c531659141344cd1fd0a4f28419497f9722a3daafe3b4186f6b6457e0908390a3600080546001600160a01b0319169055565b7f000000000000000000000000000000000000000000000000000000000000000090565b60006105b77f00000000000000000000000000000000000000000000000000000000000000006105b17f00000000000000000000000000000000000000000000000000000000000000007f0000000000000000000000000000000000000000000000000000000000000000610bb9565b90610bb9565b905090565b6000546001600160a01b031690565b60008060006105d8610ff4565b6105e28888610bb9565b8082526000602083018190526040830181905260608301521561061d57805161061890610610908b90610bb9565b825190610c13565b610620565b60005b608082015260015460408051631b0c55dd60e11b815290516001600160a01b0390921691633618abba91600480820192602092909190829003018186803b15801561066a57600080fd5b505afa15801561067e573d6000803e3d6000fd5b505050506040513d602081101561069457600080fd5b50516040805163bb85c0bb60e01b81526001600160a01b038d811660048301529151919092169163bb85c0bb916024808301926020929190829003018186803b1580156106e057600080fd5b505afa1580156106f4573d6000803e3d6000fd5b505050506040513d602081101561070a57600080fd5b5051604082015260808101517f000000000000000000000000000000000000000000000000000000000000000010156108855760006107a07f000000000000000000000000000000000000000000000000000000000000000061079a7f00000000000000000000000000000000000000000000000000000000000000008560800151610b6a90919063ffffffff16565b90610c13565b90506107fe6107cf7f000000000000000000000000000000000000000000000000000000000000000083610d57565b60408401516105b1907f0000000000000000000000000000000000000000000000000000000000000000610bb9565b604083015261087a6108307f000000000000000000000000000000000000000000000000000000000000000083610d57565b6105b17f00000000000000000000000000000000000000000000000000000000000000007f0000000000000000000000000000000000000000000000000000000000000000610bb9565b60208301525061097f565b6108f46108e96108c27f00000000000000000000000000000000000000000000000000000000000000008460800151610c1390919063ffffffff16565b7f000000000000000000000000000000000000000000000000000000000000000090610d57565b604083015190610bb9565b6040820152608081015161097990610952907f00000000000000000000000000000000000000000000000000000000000000009061079a907f0000000000000000000000000000000000000000000000000000000000000000610d57565b7f000000000000000000000000000000000000000000000000000000000000000090610bb9565b60208201525b6109b261098e61271087610b6a565b6109ac83608001516109a68c8c87602001518d610e18565b90610d57565b90610e7f565b606082018190526040820151602090920151909b919a5098509650505050505050565b7f000000000000000000000000000000000000000000000000000000000000000081565b7f000000000000000000000000000000000000000000000000000000000000000090565b6001546001600160a01b031681565b7f000000000000000000000000000000000000000000000000000000000000000090565b610a58610bb5565b6000546001600160a01b03908116911614610aba576040805162461bcd60e51b815260206004820181905260248201527f4f776e61626c653a2063616c6c6572206973206e6f7420746865206f776e6572604482015290519081900360640190fd5b6001600160a01b038116610aff5760405162461bcd60e51b81526004018080602001828103825260268152602001806110246026913960400191505060405180910390fd5b600080546040516001600160a01b03808516939216917f8be0079c531659141344cd1fd0a4f28419497f9722a3daafe3b4186f6b6457e091a3600080546001600160a01b0319166001600160a01b0392909216919091179055565b6b033b2e3c9fd0803ce800000090565b6000610bac83836040518060400160405280601e81526020017f536166654d6174683a207375627472616374696f6e206f766572666c6f770000815250610f1c565b90505b92915050565b3390565b600082820183811015610bac576040805162461bcd60e51b815260206004820152601b60248201527f536166654d6174683a206164646974696f6e206f766572666c6f770000000000604482015290519081900360640190fd5b604080518082019091526002815261035360f41b602082015260009082610cb85760405162461bcd60e51b81526004018080602001828103825283818151815260200191508051906020019080838360005b83811015610c7d578181015183820152602001610c65565b50505050905090810190601f168015610caa5780820380516001836020036101000a031916815260200191505b509250505060405180910390fd5b5060408051808201909152600280825261068760f31b60208301528304906b033b2e3c9fd0803ce8000000821904851115610d345760405162461bcd60e51b8152602060048201818152835160248401528351909283926044909101919085019080838360008315610c7d578181015183820152602001610c65565b5082816b033b2e3c9fd0803ce800000086020181610d4e57fe5b04949350505050565b6000821580610d64575081155b15610d7157506000610baf565b816b019d971e4fe8401e740000001981610d8757fe5b0483111560405180604001604052806002815260200161068760f31b81525090610df25760405162461bcd60e51b8152602060048201818152835160248401528351909283926044909101919085019080838360008315610c7d578181015183820152602001610c65565b506b033b2e3c9fd0803ce80000006002815b048385020181610e1057fe5b049392505050565b600080610e258686610bb9565b905080610e36576000915050610e77565b6000610e45856109a688610f76565b90506000610e56856109a68a610f76565b90506000610e70610e6685610f76565b61079a8585610bb9565b9450505050505b949350505050565b6000821580610e8c575081155b15610e9957506000610baf565b816113881981610ea557fe5b0483111560405180604001604052806002815260200161068760f31b81525090610f105760405162461bcd60e51b8152602060048201818152835160248401528351909283926044909101919085019080838360008315610c7d578181015183820152602001610c65565b50612710600281610e04565b60008184841115610f6e5760405162461bcd60e51b8152602060048201818152835160248401528351909283926044909101919085019080838360008315610c7d578181015183820152602001610c65565b505050900390565b6000633b9aca0082810290839082041460405180604001604052806002815260200161068760f31b81525090610fed5760405162461bcd60e51b8152602060048201818152835160248401528351909283926044909101919085019080838360008315610c7d578181015183820152602001610c65565b5092915050565b6040518060a001604052806000815260200160008152602001600081526020016000815260200160008152509056fe4f776e61626c653a206e6577206f776e657220697320746865207a65726f2061646472657373a2646970667358221220d9afdbbe7da6557ffb87faae370b2e58100d807dec60a9a6f8ca8549eb32ea8d64736f6c63430007060033",
  "linkReferences": {},
  "deployedLinkReferences": {}
}