{
  "_format": "hh-sol-artifact-1",
  "contractName": "MasterChef",
  "sourceName": "contracts/staking/MasterChef.sol",
  "abi": [
    {
      "inputs": [
        {
          "internalType": "uint128[]",
          "name": "_startTimeOffset",
          "type": "uint128[]"
        },
        {
          "internalType": "uint128[]",
          "name": "_rewardsPerSecond",
          "type": "uint128[]"
        },
        {
          "internalType": "address",
          "name": "_poolConfigurator",
          "type": "address"
        },
        {
          "internalType": "contract IMultiFeeDistribution",
          "name": "_rewardMinter",
          "type": "address"
        },
        {
          "internalType": "uint256",
          "name": "_maxMintable",
          "type": "uint256"
        }
      ],
      "stateMutability": "nonpayable",
      "type": "constructor"
    },
    {
      "anonymous": false,
      "inputs": [
        {
          "indexed": true,
          "internalType": "address",
          "name": "token",
          "type": "address"
        },
        {
          "indexed": true,
          "internalType": "address",
          "name": "user",
          "type": "address"
        },
        {
          "indexed": false,
          "internalType": "uint256",
          "name": "amount",
          "type": "uint256"
        }
      ],
      "name": "Deposit",
      "type": "event"
    },
    {
      "anonymous": false,
      "inputs": [
        {
          "indexed": true,
          "internalType": "address",
          "name": "token",
          "type": "address"
        },
        {
          "indexed": true,
          "internalType": "address",
          "name": "user",
          "type": "address"
        },
        {
          "indexed": false,
          "internalType": "uint256",
          "name": "amount",
          "type": "uint256"
        }
      ],
      "name": "EmergencyWithdraw",
      "type": "event"
    },
    {
      "anonymous": false,
      "inputs": [
        {
          "indexed": true,
          "internalType": "address",
          "name": "previousOwner",
          "type": "address"
        },
        {
          "indexed": true,
          "internalType": "address",
          "name": "newOwner",
          "type": "address"
        }
      ],
      "name": "OwnershipTransferred",
      "type": "event"
    },
    {
      "anonymous": false,
      "inputs": [
        {
          "indexed": true,
          "internalType": "address",
          "name": "token",
          "type": "address"
        },
        {
          "indexed": true,
          "internalType": "address",
          "name": "user",
          "type": "address"
        },
        {
          "indexed": false,
          "internalType": "uint256",
          "name": "amount",
          "type": "uint256"
        }
      ],
      "name": "Withdraw",
      "type": "event"
    },
    {
      "inputs": [
        {
          "internalType": "address",
          "name": "_token",
          "type": "address"
        },
        {
          "internalType": "uint256",
          "name": "_allocPoint",
          "type": "uint256"
        }
      ],
      "name": "addPool",
      "outputs": [],
      "stateMutability": "nonpayable",
      "type": "function"
    },
    {
      "inputs": [
        {
          "internalType": "address[]",
          "name": "_tokens",
          "type": "address[]"
        },
        {
          "internalType": "uint256[]",
          "name": "_allocPoints",
          "type": "uint256[]"
        }
      ],
      "name": "batchUpdateAllocPoint",
      "outputs": [],
      "stateMutability": "nonpayable",
      "type": "function"
    },
    {
      "inputs": [
        {
          "internalType": "address",
          "name": "_user",
          "type": "address"
        },
        {
          "internalType": "address[]",
          "name": "_tokens",
          "type": "address[]"
        }
      ],
      "name": "claim",
      "outputs": [],
      "stateMutability": "nonpayable",
      "type": "function"
    },
    {
      "inputs": [
        {
          "internalType": "address",
          "name": "",
          "type": "address"
        }
      ],
      "name": "claimReceiver",
      "outputs": [
        {
          "internalType": "address",
          "name": "",
          "type": "address"
        }
      ],
      "stateMutability": "view",
      "type": "function"
    },
    {
      "inputs": [
        {
          "internalType": "address",
          "name": "_user",
          "type": "address"
        },
        {
          "internalType": "address[]",
          "name": "_tokens",
          "type": "address[]"
        }
      ],
      "name": "claimableReward",
      "outputs": [
        {
          "internalType": "uint256[]",
          "name": "",
          "type": "uint256[]"
        }
      ],
      "stateMutability": "view",
      "type": "function"
    },
    {
      "inputs": [
        {
          "internalType": "address",
          "name": "_token",
          "type": "address"
        },
        {
          "internalType": "uint256",
          "name": "_amount",
          "type": "uint256"
        }
      ],
      "name": "deposit",
      "outputs": [],
      "stateMutability": "nonpayable",
      "type": "function"
    },
    {
      "inputs": [
        {
          "internalType": "address",
          "name": "_token",
          "type": "address"
        }
      ],
      "name": "emergencyWithdraw",
      "outputs": [],
      "stateMutability": "nonpayable",
      "type": "function"
    },
    {
      "inputs": [
        {
          "internalType": "uint256",
          "name": "",
          "type": "uint256"
        }
      ],
      "name": "emissionSchedule",
      "outputs": [
        {
          "internalType": "uint128",
          "name": "startTimeOffset",
          "type": "uint128"
        },
        {
          "internalType": "uint128",
          "name": "rewardsPerSecond",
          "type": "uint128"
        }
      ],
      "stateMutability": "view",
      "type": "function"
    },
    {
      "inputs": [],
      "name": "maxMintableTokens",
      "outputs": [
        {
          "internalType": "uint256",
          "name": "",
          "type": "uint256"
        }
      ],
      "stateMutability": "view",
      "type": "function"
    },
    {
      "inputs": [],
      "name": "mintedTokens",
      "outputs": [
        {
          "internalType": "uint256",
          "name": "",
          "type": "uint256"
        }
      ],
      "stateMutability": "view",
      "type": "function"
    },
    {
      "inputs": [],
      "name": "owner",
      "outputs": [
        {
          "internalType": "address",
          "name": "",
          "type": "address"
        }
      ],
      "stateMutability": "view",
      "type": "function"
    },
    {
      "inputs": [],
      "name": "poolConfigurator",
      "outputs": [
        {
          "internalType": "address",
          "name": "",
          "type": "address"
        }
      ],
      "stateMutability": "view",
      "type": "function"
    },
    {
      "inputs": [
        {
          "internalType": "address",
          "name": "",
          "type": "address"
        }
      ],
      "name": "poolInfo",
      "outputs": [
        {
          "internalType": "uint256",
          "name": "allocPoint",
          "type": "uint256"
        },
        {
          "internalType": "uint256",
          "name": "lastRewardTime",
          "type": "uint256"
        },
        {
          "internalType": "uint256",
          "name": "accRewardPerShare",
          "type": "uint256"
        },
        {
          "internalType": "contract IOnwardIncentivesController",
          "name": "onwardIncentives",
          "type": "address"
        }
      ],
      "stateMutability": "view",
      "type": "function"
    },
    {
      "inputs": [],
      "name": "poolLength",
      "outputs": [
        {
          "internalType": "uint256",
          "name": "",
          "type": "uint256"
        }
      ],
      "stateMutability": "view",
      "type": "function"
    },
    {
      "inputs": [
        {
          "internalType": "uint256",
          "name": "",
          "type": "uint256"
        }
      ],
      "name": "registeredTokens",
      "outputs": [
        {
          "internalType": "address",
          "name": "",
          "type": "address"
        }
      ],
      "stateMutability": "view",
      "type": "function"
    },
    {
      "inputs": [],
      "name": "renounceOwnership",
      "outputs": [],
      "stateMutability": "nonpayable",
      "type": "function"
    },
    {
      "inputs": [],
      "name": "rewardMinter",
      "outputs": [
        {
          "internalType": "contract IMultiFeeDistribution",
          "name": "",
          "type": "address"
        }
      ],
      "stateMutability": "view",
      "type": "function"
    },
    {
      "inputs": [],
      "name": "rewardsPerSecond",
      "outputs": [
        {
          "internalType": "uint256",
          "name": "",
          "type": "uint256"
        }
      ],
      "stateMutability": "view",
      "type": "function"
    },
    {
      "inputs": [
        {
          "internalType": "address",
          "name": "_user",
          "type": "address"
        },
        {
          "internalType": "address",
          "name": "_receiver",
          "type": "address"
        }
      ],
      "name": "setClaimReceiver",
      "outputs": [],
      "stateMutability": "nonpayable",
      "type": "function"
    },
    {
      "inputs": [
        {
          "internalType": "address",
          "name": "_token",
          "type": "address"
        },
        {
          "internalType": "contract IOnwardIncentivesController",
          "name": "_incentives",
          "type": "address"
        }
      ],
      "name": "setOnwardIncentives",
      "outputs": [],
      "stateMutability": "nonpayable",
      "type": "function"
    },
    {
      "inputs": [],
      "name": "start",
      "outputs": [],
      "stateMutability": "nonpayable",
      "type": "function"
    },
    {
      "inputs": [],
      "name": "startTime",
      "outputs": [
        {
          "internalType": "uint256",
          "name": "",
          "type": "uint256"
        }
      ],
      "stateMutability": "view",
      "type": "function"
    },
    {
      "inputs": [],
      "name": "totalAllocPoint",
      "outputs": [
        {
          "internalType": "uint256",
          "name": "",
          "type": "uint256"
        }
      ],
      "stateMutability": "view",
      "type": "function"
    },
    {
      "inputs": [
        {
          "internalType": "address",
          "name": "newOwner",
          "type": "address"
        }
      ],
      "name": "transferOwnership",
      "outputs": [],
      "stateMutability": "nonpayable",
      "type": "function"
    },
    {
      "inputs": [
        {
          "internalType": "address",
          "name": "",
          "type": "address"
        },
        {
          "internalType": "address",
          "name": "",
          "type": "address"
        }
      ],
      "name": "userInfo",
      "outputs": [
        {
          "internalType": "uint256",
          "name": "amount",
          "type": "uint256"
        },
        {
          "internalType": "uint256",
          "name": "rewardDebt",
          "type": "uint256"
        }
      ],
      "stateMutability": "view",
      "type": "function"
    },
    {
      "inputs": [
        {
          "internalType": "address",
          "name": "_token",
          "type": "address"
        },
        {
          "internalType": "uint256",
          "name": "_amount",
          "type": "uint256"
        }
      ],
      "name": "withdraw",
      "outputs": [],
      "stateMutability": "nonpayable",
      "type": "function"
    }
  ],
  "bytecode": "0x60a060405260006009553480156200001657600080fd5b50604051620022a6380380620022a6833981810160405260a08110156200003c57600080fd5b81019080805160405193929190846401000000008211156200005d57600080fd5b9083019060208201858111156200007357600080fd5b82518660208202830111640100000000821117156200009157600080fd5b82525081516020918201928201910280838360005b83811015620000c0578181015183820152602001620000a6565b5050505090500160405260200180516040519392919084640100000000821115620000ea57600080fd5b9083019060208201858111156200010057600080fd5b82518660208202830111640100000000821117156200011e57600080fd5b82525081516020918201928201910280838360005b838110156200014d57818101518382015260200162000133565b50505050919091016040908152602083015190830151606090930151909450919250600090506200017d620002b8565b600080546001600160a01b0319166001600160a01b0383169081178255604051929350917f8be0079c531659141344cd1fd0a4f28419497f9722a3daafe3b4186f6b6457e0908290a350600180546001600160a01b038086166001600160a01b0319928316179092556002805492851692909116919091179055845160001981015b6001810115620002a857600760405180604001604052808984815181106200022357fe5b60200260200101516001600160801b031681526020018884815181106200024657fe5b6020908102919091018101516001600160801b03908116909252835460018101855560009485529381902083519401805493909101518216600160801b029382166001600160801b0319909316929092171691909117905560001901620001ff565b505060805250620002bc92505050565b3390565b608051611fc5620002e1600039806106ae5280611a575280611a8b5250611fc56000f3fe608060405234801561001057600080fd5b506004361061018e5760003560e01c80638da5cb5b116100de578063cd1a4d8611610097578063e5b5349811610071578063e5b5349814610554578063eacdaabc14610622578063f2fde38b1461062a578063f3fef3a3146106505761018e565b8063cd1a4d86146104f8578063de7e410c14610526578063e20c5a8a1461052e5761018e565b80638da5cb5b146103d45780638e2eba09146103f85780639a0ba2ea146104765780639a7b5f11146104935780639b8e5563146104e8578063be9a6555146104f05761018e565b8063334d0bbd1161014b5780636ff1c9bc116101255780636ff1c9bc14610396578063715018a6146103bc57806378e97925146103c45780638d75fe05146103cc5761018e565b8063334d0bbd1461026057806334c54230146102ac57806347e7ef241461036a5761018e565b8063081e3eda146101935780630f208beb146101ad57806317caf6f1146101f45780631a848e01146101fc57806332a9caba146102045780633328756414610232575b600080fd5b61019b61067c565b60408051918252519081900360200190f35b6101db600480360360408110156101c357600080fd5b506001600160a01b0381358116916020013516610682565b6040805192835260208301919091528051918290030190f35b61019b6106a6565b61019b6106ac565b6102306004803603604081101561021a57600080fd5b506001600160a01b0381351690602001356106d0565b005b6102306004803603604081101561024857600080fd5b506001600160a01b0381358116916020013516610809565b61027d6004803603602081101561027657600080fd5b503561086f565b60405180836001600160801b03168152602001826001600160801b031681526020019250505060405180910390f35b610230600480360360408110156102c257600080fd5b810190602081018135600160201b8111156102dc57600080fd5b8201836020820111156102ee57600080fd5b803590602001918460208302840111600160201b8311171561030f57600080fd5b919390929091602081019035600160201b81111561032c57600080fd5b82018360208201111561033e57600080fd5b803590602001918460208302840111600160201b8311171561035f57600080fd5b5090925090506108a4565b6102306004803603604081101561038057600080fd5b506001600160a01b0381351690602001356109d2565b610230600480360360208110156103ac57600080fd5b50356001600160a01b0316610c18565b610230610daa565b61019b610e4c565b61019b610e52565b6103dc610e58565b604080516001600160a01b039092168252519081900360200190f35b6102306004803603604081101561040e57600080fd5b6001600160a01b038235169190810190604081016020820135600160201b81111561043857600080fd5b82018360208201111561044a57600080fd5b803590602001918460208302840111600160201b8311171561046b57600080fd5b509092509050610e67565b6103dc6004803603602081101561048c57600080fd5b5035610fd8565b6104b9600480360360208110156104a957600080fd5b50356001600160a01b0316611002565b604080519485526020850193909352838301919091526001600160a01b03166060830152519081900360800190f35b6103dc611032565b610230611041565b6102306004803603604081101561050e57600080fd5b506001600160a01b03813581169160200135166110ac565b6103dc61115a565b6103dc6004803603602081101561054457600080fd5b50356001600160a01b0316611169565b6105d26004803603604081101561056a57600080fd5b6001600160a01b038235169190810190604081016020820135600160201b81111561059457600080fd5b8201836020820111156105a657600080fd5b803590602001918460208302840111600160201b831117156105c757600080fd5b509092509050611184565b60408051602080825283518183015283519192839290830191858101910280838360005b8381101561060e5781810151838201526020016105f6565b505050509050019250505060405180910390f35b61019b611367565b6102306004803603602081101561064057600080fd5b50356001600160a01b031661136d565b6102306004803603604081101561066657600080fd5b506001600160a01b038135169060200135611465565b60055490565b60086020908152600092835260408084209091529082529020805460019091015482565b60095481565b7f000000000000000000000000000000000000000000000000000000000000000081565b6106d86116e1565b6000546001600160a01b03908116911614610728576040805162461bcd60e51b81526020600482018190526024820152600080516020611f46833981519152604482015290519081900360640190fd5b6001600160a01b0382166000908152600660205260409020600101541561074e57600080fd5b6107566116e5565b600954610763908261179f565b6009556005805460018181019092557f036b6384b5eca791c62761152d0c79bb0604c104a5fb6f4eb0703f3154bb3db00180546001600160a01b039485166001600160a01b0319918216811790925560408051608081018252948552426020868101918252600087840181815260608901828152968252600690925292909220955186555193850193909355915160028401555160039092018054929093169116179055565b336001600160a01b03831614806108385750610823610e58565b6001600160a01b0316336001600160a01b0316145b61084157600080fd5b6001600160a01b039182166000908152600b6020526040902080546001600160a01b03191691909216179055565b6007818154811061087f57600080fd5b6000918252602090912001546001600160801b038082169250600160801b9091041682565b6108ac6116e1565b6000546001600160a01b039081169116146108fc576040805162461bcd60e51b81526020600482018190526024820152600080516020611f46833981519152604482015290519081900360640190fd5b82811461090857600080fd5b610910611802565b60095460005b848110156109c85760006006600088888581811061093057fe5b905060200201356001600160a01b03166001600160a01b03166001600160a01b031681526020019081526020016000209050600081600101541161097357600080fd5b6109a685858481811061098257fe5b905060200201356109a083600001548661184690919063ffffffff16565b9061179f565b92508484838181106109b457fe5b602002919091013590915550600101610916565b5060095550505050565b6001600160a01b038216600090815260066020526040902060018101546109f857600080fd5b6001600160a01b03831660009081526008602090815260408083203384529091529020610a236116e5565b610a2f84600954611888565b805415610a7e576000610a708260010154610a6a64e8d4a51000610a64876002015487600001546119b790919063ffffffff16565b90611a10565b90611846565b9050610a7c3382611a52565b505b610a936001600160a01b038516333086611b63565b8054610a9f908461179f565b8082556002830154610abc9164e8d4a5100091610a6491906119b7565b600182015560038201546001600160a01b031615610bd2576000846001600160a01b03166370a08231306040518263ffffffff1660e01b815260040180826001600160a01b0316815260200191505060206040518083038186803b158015610b2357600080fd5b505afa158015610b37573d6000803e3d6000fd5b505050506040513d6020811015610b4d57600080fd5b5051600384015483546040805163ae0b537160e01b81526001600160a01b038a81166004830152336024830152604482019390935260648101859052905193945091169163ae0b53719160848082019260009290919082900301818387803b158015610bb857600080fd5b505af1158015610bcc573d6000803e3d6000fd5b50505050505b60408051848152905133916001600160a01b038716917f5548c837ab068cf56a2c2479df0882a4922fd203edb7517321831d95078c5f629181900360200190a350505050565b6001600160a01b0381166000818152600660209081526040808320600883528184203380865293529220805492939092610c529290611bbd565b8054604080519182525133916001600160a01b038616917ff24ef89f38eadc1bde50701ad6e4d6d11a2dc24f7cf834a486991f38833285049181900360200190a36000808255600182015560038201546001600160a01b031615610da5576000836001600160a01b03166370a08231306040518263ffffffff1660e01b815260040180826001600160a01b0316815260200191505060206040518083038186803b158015610cff57600080fd5b505afa158015610d13573d6000803e3d6000fd5b505050506040513d6020811015610d2957600080fd5b505160038401546040805163ae0b537160e01b81526001600160a01b0388811660048301523360248301526000604483018190526064830186905292519495509092169263ae0b537192608480820193929182900301818387803b158015610d9057600080fd5b505af1925050508015610da1575060015b505b505b505050565b610db26116e1565b6000546001600160a01b03908116911614610e02576040805162461bcd60e51b81526020600482018190526024820152600080516020611f46833981519152604482015290519081900360640190fd5b600080546040516001600160a01b03909116907f8be0079c531659141344cd1fd0a4f28419497f9722a3daafe3b4186f6b6457e0908390a3600080546001600160a01b0319169055565b600a5481565b60045481565b6000546001600160a01b031690565b610e6f6116e5565b600954600090815b83811015610fcd57600060066000878785818110610e9157fe5b905060200201356001600160a01b03166001600160a01b03166001600160a01b0316815260200190815260200160002090506000816001015411610ed457600080fd5b610ef9868684818110610ee357fe5b905060200201356001600160a01b031684611888565b600060086000888886818110610f0b57fe5b905060200201356001600160a01b03166001600160a01b03166001600160a01b031681526020019081526020016000206000896001600160a01b03166001600160a01b031681526020019081526020016000209050610f96610f8f8260010154610a6a64e8d4a51000610a64876002015487600001546119b790919063ffffffff16565b869061179f565b9450610fbc64e8d4a51000610a64846002015484600001546119b790919063ffffffff16565b600191820155919091019050610e77565b50610da18583611a52565b60058181548110610fe857600080fd5b6000918252602090912001546001600160a01b0316905081565b6006602052600090815260409020805460018201546002830154600390930154919290916001600160a01b031684565b6002546001600160a01b031681565b6110496116e1565b6000546001600160a01b03908116911614611099576040805162461bcd60e51b81526020600482018190526024820152600080516020611f46833981519152604482015290519081900360640190fd5b600a54156110a657600080fd5b42600a55565b6110b46116e1565b6000546001600160a01b03908116911614611104576040805162461bcd60e51b81526020600482018190526024820152600080516020611f46833981519152604482015290519081900360640190fd5b6001600160a01b03821660009081526006602052604090206001015461112957600080fd5b6001600160a01b03918216600090815260066020526040902060030180546001600160a01b03191691909216179055565b6001546001600160a01b031681565b600b602052600090815260409020546001600160a01b031681565b606060008267ffffffffffffffff8111801561119f57600080fd5b506040519080825280602002602001820160405280156111c9578160200160208202803683370190505b50905060005b8381101561135e5760008585838181106111e557fe5b6001600160a01b03602091820293909301358316600081815260068352604080822060088552818320968e168352958452808220600287015482516370a0823160e01b8152306004820152925194985090955093919287926370a082319260248082019391829003018186803b15801561125e57600080fd5b505afa158015611272573d6000803e3d6000fd5b505050506040513d602081101561128857600080fd5b505160018501549091504211801561129f57508015155b1561130e5760006112bd85600101544261184690919063ffffffff16565b905060006112ea600954610a6488600001546112e4600354876119b790919063ffffffff16565b906119b7565b905061130961130284610a648464e8d4a510006119b7565b859061179f565b935050505b6113368360010154610a6a64e8d4a51000610a648688600001546119b790919063ffffffff16565b87878151811061134257fe5b60209081029190910101525050600190930192506111cf915050565b50949350505050565b60035481565b6113756116e1565b6000546001600160a01b039081169116146113c5576040805162461bcd60e51b81526020600482018190526024820152600080516020611f46833981519152604482015290519081900360640190fd5b6001600160a01b03811661140a5760405162461bcd60e51b8152600401808060200182810382526026815260200180611eff6026913960400191505060405180910390fd5b600080546040516001600160a01b03808516939216917f8be0079c531659141344cd1fd0a4f28419497f9722a3daafe3b4186f6b6457e091a3600080546001600160a01b0319166001600160a01b0392909216919091179055565b6001600160a01b0382166000908152600660205260409020600181015461148b57600080fd5b6001600160a01b0383166000908152600860209081526040808320338452909152902080548311156114f9576040805162461bcd60e51b81526020600482015260126024820152711dda5d1a191c985dce881b9bdd0819dbdbd960721b604482015290519081900360640190fd5b6115016116e5565b61150d84600954611888565b600061153b8260010154610a6a64e8d4a51000610a64876002015487600001546119b790919063ffffffff16565b90506115473382611a52565b81546115539085611846565b80835560028401546115709164e8d4a5100091610a6491906119b7565b60018301556115896001600160a01b0386163386611bbd565b60038301546001600160a01b03161561169a576000856001600160a01b03166370a08231306040518263ffffffff1660e01b815260040180826001600160a01b0316815260200191505060206040518083038186803b1580156115eb57600080fd5b505afa1580156115ff573d6000803e3d6000fd5b505050506040513d602081101561161557600080fd5b5051600385015484546040805163ae0b537160e01b81526001600160a01b038b81166004830152336024830152604482019390935260648101859052905193945091169163ae0b53719160848082019260009290919082900301818387803b15801561168057600080fd5b505af1158015611694573d6000803e3d6000fd5b50505050505b60408051858152905133916001600160a01b038816917f9b1bfa7fa9ee420a16e124f794c35ac9f90472acc99140eb2f6447c714cad8eb9181900360200190a35050505050565b3390565b600754600a54158015906116f95750600081115b1561179c5760006007600183038154811061171057fe5b6000918252602091829020604080518082019091529101546001600160801b03808216808452600160801b9092041692820192909252600a54909250611757904290611846565b111561179a57611765611802565b60208101516001600160801b0316600355600780548061178157fe5b6000828152602081208201600019908101919091550190555b505b50565b6000828201838110156117f9576040805162461bcd60e51b815260206004820152601b60248201527f536166654d6174683a206164646974696f6e206f766572666c6f770000000000604482015290519081900360640190fd5b90505b92915050565b60095460055460005b81811015610da55761183e6005828154811061182357fe5b6000918252602090912001546001600160a01b031684611888565b60010161180b565b60006117f983836040518060400160405280601e81526020017f536166654d6174683a207375627472616374696f6e206f766572666c6f770000815250611c0f565b6001600160a01b0382166000908152600660205260409020600181015442116118b1575061179a565b6000836001600160a01b03166370a08231306040518263ffffffff1660e01b815260040180826001600160a01b0316815260200191505060206040518083038186803b15801561190057600080fd5b505afa158015611914573d6000803e3d6000fd5b505050506040513d602081101561192a57600080fd5b505190508061194057504260019091015561179a565b600061195983600101544261184690919063ffffffff16565b9050600061197e85610a6486600001546112e4600354876119b790919063ffffffff16565b90506119a161199684610a648464e8d4a510006119b7565b60028601549061179f565b6002850155505042600190920191909155505050565b6000826119c6575060006117fc565b828202828482816119d357fe5b04146117f95760405162461bcd60e51b8152600401808060200182810382526021815260200180611f256021913960400191505060405180910390fd5b60006117f983836040518060400160405280601a81526020017f536166654d6174683a206469766973696f6e206279207a65726f000000000000815250611ca6565b6004547f0000000000000000000000000000000000000000000000000000000000000000611a80828461179f565b1115611ab357611ab07f000000000000000000000000000000000000000000000000000000000000000082611846565b91505b8115610da557611ac3818361179f565b6004556001600160a01b038084166000908152600b60205260409020541680611ae95750825b600254604080516334686fad60e21b81526001600160a01b03848116600483015260248201879052600160448301529151919092169163d1a1beb491606480830192600092919082900301818387803b158015611b4557600080fd5b505af1158015611b59573d6000803e3d6000fd5b5050505050505050565b604080516001600160a01b0380861660248301528416604482015260648082018490528251808303909101815260849091019091526020810180516001600160e01b03166323b872dd60e01b179052610da3908590611d0b565b604080516001600160a01b038416602482015260448082018490528251808303909101815260649091019091526020810180516001600160e01b031663a9059cbb60e01b179052610da5908490611d0b565b60008184841115611c9e5760405162461bcd60e51b81526004018080602001828103825283818151815260200191508051906020019080838360005b83811015611c63578181015183820152602001611c4b565b50505050905090810190601f168015611c905780820380516001836020036101000a031916815260200191505b509250505060405180910390fd5b505050900390565b60008183611cf55760405162461bcd60e51b8152602060048201818152835160248401528351909283926044909101919085019080838360008315611c63578181015183820152602001611c4b565b506000838581611d0157fe5b0495945050505050565b611d1d826001600160a01b0316611ec2565b611d6e576040805162461bcd60e51b815260206004820152601f60248201527f5361666545524332303a2063616c6c20746f206e6f6e2d636f6e747261637400604482015290519081900360640190fd5b600080836001600160a01b0316836040518082805190602001908083835b60208310611dab5780518252601f199092019160209182019101611d8c565b6001836020036101000a0380198251168184511680821785525050505050509050019150506000604051808303816000865af19150503d8060008114611e0d576040519150601f19603f3d011682016040523d82523d6000602084013e611e12565b606091505b509150915081611e69576040805162461bcd60e51b815260206004820181905260248201527f5361666545524332303a206c6f772d6c6576656c2063616c6c206661696c6564604482015290519081900360640190fd5b805115610da357808060200190516020811015611e8557600080fd5b5051610da35760405162461bcd60e51b815260040180806020018281038252602a815260200180611f66602a913960400191505060405180910390fd5b6000813f7fc5d2460186f7233c927e7db2dcc703c0e500b653ca82273b7bfad8045d85a470818114801590611ef657508115155b94935050505056fe4f776e61626c653a206e6577206f776e657220697320746865207a65726f2061646472657373536166654d6174683a206d756c7469706c69636174696f6e206f766572666c6f774f776e61626c653a2063616c6c6572206973206e6f7420746865206f776e65725361666545524332303a204552433230206f7065726174696f6e20646964206e6f742073756363656564a26469706673582212209859eab70cd302eb7314166ea8027a9b168c2fb6faacfe37d516d12921703f7e64736f6c63430007060033",
  "linkReferences": {},
  "deployedLinkReferences": {}
}