{
  "_format": "hh-sol-artifact-1",
  "contractName": "MockPriceFeed",
  "sourceName": "contracts/misc/MockPriceFeed.sol",
  "abi": [
    {
      "inputs": [
        {
          "internalType": "contract IChainlinkAggregator",
          "name": "_chainlinkOracleAddress",
          "type": "address"
        },
        {
          "internalType": "contract IBandStdReference",
          "name": "_bandOracleAddress",
          "type": "address"
        },
        {
          "internalType": "uint256",
          "name": "_timeout",
          "type": "uint256"
        },
        {
          "internalType": "string",
          "name": "_bandBase",
          "type": "string"
        },
        {
          "internalType": "uint256",
          "name": "_setPrice",
          "type": "uint256"
        }
      ],
      "stateMutability": "nonpayable",
      "type": "constructor"
    },
    {
      "inputs": [],
      "name": "DECIMAL_PRECISION",
      "outputs": [
        {
          "internalType": "uint256",
          "name": "",
          "type": "uint256"
        }
      ],
      "stateMutability": "view",
      "type": "function"
    },
    {
      "inputs": [],
      "name": "MAX_PRICE_DEVIATION_FROM_PREVIOUS_ROUND",
      "outputs": [
        {
          "internalType": "uint256",
          "name": "",
          "type": "uint256"
        }
      ],
      "stateMutability": "view",
      "type": "function"
    },
    {
      "inputs": [],
      "name": "MAX_PRICE_DIFFERENCE_BETWEEN_ORACLES",
      "outputs": [
        {
          "internalType": "uint256",
          "name": "",
          "type": "uint256"
        }
      ],
      "stateMutability": "view",
      "type": "function"
    },
    {
      "inputs": [],
      "name": "TARGET_DIGITS",
      "outputs": [
        {
          "internalType": "uint256",
          "name": "",
          "type": "uint256"
        }
      ],
      "stateMutability": "view",
      "type": "function"
    },
    {
      "inputs": [],
      "name": "TIMEOUT",
      "outputs": [
        {
          "internalType": "uint256",
          "name": "",
          "type": "uint256"
        }
      ],
      "stateMutability": "view",
      "type": "function"
    },
    {
      "inputs": [],
      "name": "bandBase",
      "outputs": [
        {
          "internalType": "string",
          "name": "",
          "type": "string"
        }
      ],
      "stateMutability": "view",
      "type": "function"
    },
    {
      "inputs": [],
      "name": "bandOracle",
      "outputs": [
        {
          "internalType": "contract IBandStdReference",
          "name": "",
          "type": "address"
        }
      ],
      "stateMutability": "view",
      "type": "function"
    },
    {
      "inputs": [],
      "name": "bandQuote",
      "outputs": [
        {
          "internalType": "string",
          "name": "",
          "type": "string"
        }
      ],
      "stateMutability": "view",
      "type": "function"
    },
    {
      "inputs": [],
      "name": "chainlinkOracle",
      "outputs": [
        {
          "internalType": "contract IChainlinkAggregator",
          "name": "",
          "type": "address"
        }
      ],
      "stateMutability": "view",
      "type": "function"
    },
    {
      "inputs": [],
      "name": "fetchPrice",
      "outputs": [
        {
          "internalType": "uint256",
          "name": "",
          "type": "uint256"
        }
      ],
      "stateMutability": "view",
      "type": "function"
    },
    {
      "inputs": [],
      "name": "lastGoodPrice",
      "outputs": [
        {
          "internalType": "uint256",
          "name": "",
          "type": "uint256"
        }
      ],
      "stateMutability": "view",
      "type": "function"
    },
    {
      "inputs": [],
      "name": "status",
      "outputs": [
        {
          "internalType": "enum MockPriceFeed.Status",
          "name": "",
          "type": "uint8"
        }
      ],
      "stateMutability": "view",
      "type": "function"
    },
    {
      "inputs": [],
      "name": "updatePrice",
      "outputs": [
        {
          "internalType": "uint256",
          "name": "",
          "type": "uint256"
        }
      ],
      "stateMutability": "nonpayable",
      "type": "function"
    }
  ],
  "bytecode": "0x60a0604052670de0b6b3a764000060055534801561001c57600080fd5b50604051610587380380610587833981810160405260a081101561003f57600080fd5b81516020830151604080850151606086018051925194969395919493918201928464010000000082111561007257600080fd5b90830190602082018581111561008757600080fd5b82516401000000008111828201881017156100a157600080fd5b82525081516020918201929091019080838360005b838110156100ce5781810151838201526020016100b6565b50505050905090810190601f1680156100fb5780820380516001836020036101000a031916815260200191505b50604052602090810151600080546001600160a01b03808b166001600160a01b03199283161790925560018054928a16929091169190911790556080869052845190935061014f9250600291850190610162565b5060058190556003555061020392505050565b828054600181600116156101000203166002900490600052602060002090601f01602090048101928261019857600085556101de565b82601f106101b157805160ff19168380011785556101de565b828001600101855582156101de579182015b828111156101de5782518255916020019190600101906101c3565b506101ea9291506101ee565b5090565b5b808211156101ea57600081556001016101ef565b60805161036a61021d60003980610312525061036a6000f3fe608060405234801561001057600080fd5b50600436106100cf5760003560e01c806358a6aa881161008c578063a20baee611610066578063a20baee6146101e0578063afa22d1f146101e8578063ef06e72c146101f0578063f56f48f2146101f8576100cf565b806358a6aa88146101ac578063673a7e28146101b4578063956dcd1f146101bc576100cf565b80630490be83146100d45780630fdb11cf146100ee5780631be5c92f146100f6578063200d2ed2146100fe57806326d182d51461012757806345079cb4146101a4575b600080fd5b6100dc610200565b60408051918252519081900360200190f35b6100dc610206565b6100dc61020c565b610106610211565b6040518082600481111561011657fe5b815260200191505060405180910390f35b61012f61021a565b6040805160208082528351818301528351919283929083019185019080838360005b83811015610169578181015183820152602001610151565b50505050905090810190601f1680156101965780820380516001836020036101000a031916815260200191505b509250505060405180910390f35b6100dc6102a5565b6100dc6102b0565b6100dc6102bc565b6101c46102c7565b604080516001600160a01b039092168252519081900360200190f35b6100dc6102d6565b61012f6102e2565b6101c4610301565b6100dc610310565b60035481565b60055490565b601281565b60045460ff1681565b6002805460408051602060018416156101000260001901909316849004601f8101849004840282018401909252818152929183018282801561029d5780601f106102725761010080835404028352916020019161029d565b820191906000526020600020905b81548152906001019060200180831161028057829003601f168201915b505050505081565b66b1a2bc2ec5000081565b6706f05b59d3b2000081565b600554600381905590565b6001546001600160a01b031681565b670de0b6b3a764000081565b604051806040016040528060038152602001621554d160ea1b81525081565b6000546001600160a01b031681565b7f00000000000000000000000000000000000000000000000000000000000000008156fea264697066735822122074a450bde93c1351b49c83c2b9f2bbd6ef0a480cf3281538d69231cb3559abdc64736f6c63430007060033",
  "linkReferences": {},
  "deployedLinkReferences": {}
}