{
  "_format": "hh-sol-artifact-1",
  "contractName": "TokenVestingTeam",
  "sourceName": "contracts/staking/TokenVestingTeam.sol",
  "abi": [
    {
      "inputs": [
        {
          "internalType": "contract IMultiFeeDistribution",
          "name": "_minter",
          "type": "address"
        },
        {
          "internalType": "uint256",
          "name": "_maxMintable",
          "type": "uint256"
        },
        {
          "internalType": "address[]",
          "name": "_receivers",
          "type": "address[]"
        },
        {
          "internalType": "uint256[]",
          "name": "_amounts",
          "type": "uint256[]"
        }
      ],
      "stateMutability": "nonpayable",
      "type": "constructor"
    },
    {
      "inputs": [
        {
          "internalType": "address",
          "name": "_receiver",
          "type": "address"
        }
      ],
      "name": "claim",
      "outputs": [],
      "stateMutability": "nonpayable",
      "type": "function"
    },
    {
      "inputs": [
        {
          "internalType": "address",
          "name": "_claimer",
          "type": "address"
        }
      ],
      "name": "claimable",
      "outputs": [
        {
          "internalType": "uint256",
          "name": "",
          "type": "uint256"
        }
      ],
      "stateMutability": "view",
      "type": "function"
    },
    {
      "inputs": [],
      "name": "duration",
      "outputs": [
        {
          "internalType": "uint256",
          "name": "",
          "type": "uint256"
        }
      ],
      "stateMutability": "view",
      "type": "function"
    },
    {
      "inputs": [],
      "name": "lastTimeRewardMint",
      "outputs": [
        {
          "internalType": "uint256",
          "name": "",
          "type": "uint256"
        }
      ],
      "stateMutability": "view",
      "type": "function"
    },
    {
      "inputs": [],
      "name": "maxMintableTokens",
      "outputs": [
        {
          "internalType": "uint256",
          "name": "",
          "type": "uint256"
        }
      ],
      "stateMutability": "view",
      "type": "function"
    },
    {
      "inputs": [],
      "name": "mintedTokens",
      "outputs": [
        {
          "internalType": "uint256",
          "name": "",
          "type": "uint256"
        }
      ],
      "stateMutability": "view",
      "type": "function"
    },
    {
      "inputs": [],
      "name": "minter",
      "outputs": [
        {
          "internalType": "contract IMultiFeeDistribution",
          "name": "",
          "type": "address"
        }
      ],
      "stateMutability": "view",
      "type": "function"
    },
    {
      "inputs": [],
      "name": "owner",
      "outputs": [
        {
          "internalType": "address",
          "name": "",
          "type": "address"
        }
      ],
      "stateMutability": "view",
      "type": "function"
    },
    {
      "inputs": [],
      "name": "start",
      "outputs": [],
      "stateMutability": "nonpayable",
      "type": "function"
    },
    {
      "inputs": [],
      "name": "startTime",
      "outputs": [
        {
          "internalType": "uint256",
          "name": "",
          "type": "uint256"
        }
      ],
      "stateMutability": "view",
      "type": "function"
    },
    {
      "inputs": [],
      "name": "unlockDuration",
      "outputs": [
        {
          "internalType": "uint256",
          "name": "",
          "type": "uint256"
        }
      ],
      "stateMutability": "view",
      "type": "function"
    },
    {
      "inputs": [
        {
          "internalType": "address",
          "name": "",
          "type": "address"
        }
      ],
      "name": "vests",
      "outputs": [
        {
          "internalType": "uint256",
          "name": "total",
          "type": "uint256"
        },
        {
          "internalType": "uint256",
          "name": "claimed",
          "type": "uint256"
        }
      ],
      "stateMutability": "view",
      "type": "function"
    }
  ],
  "bytecode": "0x60a060405234801561001057600080fd5b50604051610a21380380610a218339818101604052608081101561003357600080fd5b8151602083015160408085018051915193959294830192918464010000000082111561005e57600080fd5b90830190602082018581111561007357600080fd5b825186602082028301116401000000008211171561009057600080fd5b82525081516020918201928201910280838360005b838110156100bd5781810151838201526020016100a5565b50505050905001604052602001805160405193929190846401000000008211156100e657600080fd5b9083019060208201858111156100fb57600080fd5b825186602082028301116401000000008211171561011857600080fd5b82525081516020918201928201910280838360005b8381101561014557818101518382015260200161012d565b50505050905001604052505050805182511461016057600080fd5b600380546001600160a01b0319166001600160a01b0386161790556000805b835181101561024c576005600085838151811061019857fe5b60200260200101516001600160a01b03166001600160a01b03168152602001908152602001600020600001546000146101d057600080fd5b6101fa8382815181106101df57fe5b60200260200101518361027860201b6104961790919060201c565b915082818151811061020857fe5b60200260200101516005600086848151811061022057fe5b6020908102919091018101516001600160a01b031682528101919091526040016000205560010161017f565b5083811461025957600080fd5b6080525050600480546001600160a01b03191633179055506102d99050565b6000828201838110156102d2576040805162461bcd60e51b815260206004820152601b60248201527f536166654d6174683a206164646974696f6e206f766572666c6f770000000000604482015290519081900360640190fd5b9392505050565b6080516107296102f8600039806101db52806102ed52506107296000f3fe608060405234801561001057600080fd5b50600436106100b45760003560e01c80635c712bc0116100715780635c712bc01461015557806378e97925146101945780638a1fcd601461019c5780638d75fe05146101a45780638da5cb5b146101ac578063be9a6555146101b4576100b4565b806307546172146100b95780630e99e423146100dd5780630fb5a6b4146100f75780631a848e01146100ff5780631e83409a14610107578063402914f51461012f575b600080fd5b6100c16101bc565b604080516001600160a01b039092168252519081900360200190f35b6100e56101cb565b60408051918252519081900360200190f35b6100e56101d1565b6100e56101d9565b61012d6004803603602081101561011d57600080fd5b50356001600160a01b03166101fd565b005b6100e56004803603602081101561014557600080fd5b50356001600160a01b03166103a3565b61017b6004803603602081101561016b57600080fd5b50356001600160a01b031661042d565b6040805192835260208301919091528051918290030190f35b6100e5610446565b6100e561044c565b6100e5610452565b6100c1610458565b61012d610467565b6003546001600160a01b031681565b60015481565b63015eaf0081565b7f000000000000000000000000000000000000000000000000000000000000000081565b60005461020957600080fd5b61012c6001540142101561025c576040805162461bcd60e51b81526020600482015260156024820152742ab73637b1b59032bb32b93c9019103bb2b2b5b99760591b604482015290519081900360640190fd5b336000908152600560205260408120815490919061027b9042906104f9565b905063015eaf00811115610290575063015eaf005b81546000906102af9063015eaf00906102a9908561053b565b90610594565b9050826001015481111561039d5760006102d68460010154836104f990919063ffffffff16565b6002549091506102e69082610496565b60028190557f0000000000000000000000000000000000000000000000000000000000000000101561031757600080fd5b600354604080516334686fad60e21b81526001600160a01b03888116600483015260248201859052600060448301819052925193169263d1a1beb49260648084019391929182900301818387803b15801561037157600080fd5b505af1158015610385573d6000803e3d6000fd5b5050505060018401829055801561039b57426001555b505b50505050565b600080546103b357506000610428565b6001600160a01b038216600090815260056020526040812081549091906103db9042906104f9565b905063015eaf008111156103f0575063015eaf005b81546000906104099063015eaf00906102a9908561053b565b90506104228360010154826104f990919063ffffffff16565b93505050505b919050565b6005602052600090815260409020805460019091015482565b60005481565b61012c81565b60025481565b6004546001600160a01b031681565b6004546001600160a01b0316331461047e57600080fd5b6000541561048b57600080fd5b426000819055600155565b6000828201838110156104f0576040805162461bcd60e51b815260206004820152601b60248201527f536166654d6174683a206164646974696f6e206f766572666c6f770000000000604482015290519081900360640190fd5b90505b92915050565b60006104f083836040518060400160405280601e81526020017f536166654d6174683a207375627472616374696f6e206f766572666c6f7700008152506105d6565b60008261054a575060006104f3565b8282028284828161055757fe5b04146104f05760405162461bcd60e51b81526004018080602001828103825260218152602001806106d36021913960400191505060405180910390fd5b60006104f083836040518060400160405280601a81526020017f536166654d6174683a206469766973696f6e206279207a65726f00000000000081525061066d565b600081848411156106655760405162461bcd60e51b81526004018080602001828103825283818151815260200191508051906020019080838360005b8381101561062a578181015183820152602001610612565b50505050905090810190601f1680156106575780820380516001836020036101000a031916815260200191505b509250505060405180910390fd5b505050900390565b600081836106bc5760405162461bcd60e51b815260206004820181815283516024840152835190928392604490910191908501908083836000831561062a578181015183820152602001610612565b5060008385816106c857fe5b049594505050505056fe536166654d6174683a206d756c7469706c69636174696f6e206f766572666c6f77a2646970667358221220581582d102bc1c8ef2b45876e3d96698ef12d293c1e7e6dec68e098b59a4505464736f6c63430007060033",
  "linkReferences": {},
  "deployedLinkReferences": {}
}