{
  "_format": "hh-sol-artifact-1",
  "contractName": "LendingPoolConfigurator",
  "sourceName": "contracts/protocol/lendingpool/LendingPoolConfigurator.sol",
  "abi": [
    {
      "anonymous": false,
      "inputs": [
        {
          "indexed": true,
          "internalType": "address",
          "name": "asset",
          "type": "address"
        },
        {
          "indexed": true,
          "internalType": "address",
          "name": "proxy",
          "type": "address"
        },
        {
          "indexed": true,
          "internalType": "address",
          "name": "implementation",
          "type": "address"
        }
      ],
      "name": "ATokenUpgraded",
      "type": "event"
    },
    {
      "anonymous": false,
      "inputs": [
        {
          "indexed": true,
          "internalType": "address",
          "name": "asset",
          "type": "address"
        }
      ],
      "name": "BorrowingDisabledOnReserve",
      "type": "event"
    },
    {
      "anonymous": false,
      "inputs": [
        {
          "indexed": true,
          "internalType": "address",
          "name": "asset",
          "type": "address"
        },
        {
          "indexed": false,
          "internalType": "bool",
          "name": "stableRateEnabled",
          "type": "bool"
        }
      ],
      "name": "BorrowingEnabledOnReserve",
      "type": "event"
    },
    {
      "anonymous": false,
      "inputs": [
        {
          "indexed": true,
          "internalType": "address",
          "name": "asset",
          "type": "address"
        },
        {
          "indexed": false,
          "internalType": "uint256",
          "name": "ltv",
          "type": "uint256"
        },
        {
          "indexed": false,
          "internalType": "uint256",
          "name": "liquidationThreshold",
          "type": "uint256"
        },
        {
          "indexed": false,
          "internalType": "uint256",
          "name": "liquidationBonus",
          "type": "uint256"
        }
      ],
      "name": "CollateralConfigurationChanged",
      "type": "event"
    },
    {
      "anonymous": false,
      "inputs": [
        {
          "indexed": true,
          "internalType": "address",
          "name": "asset",
          "type": "address"
        }
      ],
      "name": "ReserveActivated",
      "type": "event"
    },
    {
      "anonymous": false,
      "inputs": [
        {
          "indexed": true,
          "internalType": "address",
          "name": "asset",
          "type": "address"
        }
      ],
      "name": "ReserveDeactivated",
      "type": "event"
    },
    {
      "anonymous": false,
      "inputs": [
        {
          "indexed": true,
          "internalType": "address",
          "name": "asset",
          "type": "address"
        },
        {
          "indexed": false,
          "internalType": "uint256",
          "name": "decimals",
          "type": "uint256"
        }
      ],
      "name": "ReserveDecimalsChanged",
      "type": "event"
    },
    {
      "anonymous": false,
      "inputs": [
        {
          "indexed": true,
          "internalType": "address",
          "name": "asset",
          "type": "address"
        },
        {
          "indexed": false,
          "internalType": "uint256",
          "name": "factor",
          "type": "uint256"
        }
      ],
      "name": "ReserveFactorChanged",
      "type": "event"
    },
    {
      "anonymous": false,
      "inputs": [
        {
          "indexed": true,
          "internalType": "address",
          "name": "asset",
          "type": "address"
        }
      ],
      "name": "ReserveFrozen",
      "type": "event"
    },
    {
      "anonymous": false,
      "inputs": [
        {
          "indexed": true,
          "internalType": "address",
          "name": "asset",
          "type": "address"
        },
        {
          "indexed": true,
          "internalType": "address",
          "name": "aToken",
          "type": "address"
        },
        {
          "indexed": false,
          "internalType": "address",
          "name": "stableDebtToken",
          "type": "address"
        },
        {
          "indexed": false,
          "internalType": "address",
          "name": "variableDebtToken",
          "type": "address"
        },
        {
          "indexed": false,
          "internalType": "address",
          "name": "interestRateStrategyAddress",
          "type": "address"
        }
      ],
      "name": "ReserveInitialized",
      "type": "event"
    },
    {
      "anonymous": false,
      "inputs": [
        {
          "indexed": true,
          "internalType": "address",
          "name": "asset",
          "type": "address"
        },
        {
          "indexed": false,
          "internalType": "address",
          "name": "strategy",
          "type": "address"
        }
      ],
      "name": "ReserveInterestRateStrategyChanged",
      "type": "event"
    },
    {
      "anonymous": false,
      "inputs": [
        {
          "indexed": true,
          "internalType": "address",
          "name": "asset",
          "type": "address"
        }
      ],
      "name": "ReserveUnfrozen",
      "type": "event"
    },
    {
      "anonymous": false,
      "inputs": [
        {
          "indexed": true,
          "internalType": "address",
          "name": "asset",
          "type": "address"
        },
        {
          "indexed": true,
          "internalType": "address",
          "name": "proxy",
          "type": "address"
        },
        {
          "indexed": true,
          "internalType": "address",
          "name": "implementation",
          "type": "address"
        }
      ],
      "name": "StableDebtTokenUpgraded",
      "type": "event"
    },
    {
      "anonymous": false,
      "inputs": [
        {
          "indexed": true,
          "internalType": "address",
          "name": "asset",
          "type": "address"
        }
      ],
      "name": "StableRateDisabledOnReserve",
      "type": "event"
    },
    {
      "anonymous": false,
      "inputs": [
        {
          "indexed": true,
          "internalType": "address",
          "name": "asset",
          "type": "address"
        }
      ],
      "name": "StableRateEnabledOnReserve",
      "type": "event"
    },
    {
      "anonymous": false,
      "inputs": [
        {
          "indexed": true,
          "internalType": "address",
          "name": "asset",
          "type": "address"
        },
        {
          "indexed": true,
          "internalType": "address",
          "name": "proxy",
          "type": "address"
        },
        {
          "indexed": true,
          "internalType": "address",
          "name": "implementation",
          "type": "address"
        }
      ],
      "name": "VariableDebtTokenUpgraded",
      "type": "event"
    },
    {
      "inputs": [
        {
          "internalType": "address",
          "name": "asset",
          "type": "address"
        }
      ],
      "name": "activateReserve",
      "outputs": [],
      "stateMutability": "nonpayable",
      "type": "function"
    },
    {
      "inputs": [
        {
          "components": [
            {
              "internalType": "address",
              "name": "aTokenImpl",
              "type": "address"
            },
            {
              "internalType": "address",
              "name": "stableDebtTokenImpl",
              "type": "address"
            },
            {
              "internalType": "address",
              "name": "variableDebtTokenImpl",
              "type": "address"
            },
            {
              "internalType": "uint8",
              "name": "underlyingAssetDecimals",
              "type": "uint8"
            },
            {
              "internalType": "address",
              "name": "interestRateStrategyAddress",
              "type": "address"
            },
            {
              "internalType": "address",
              "name": "underlyingAsset",
              "type": "address"
            },
            {
              "internalType": "address",
              "name": "treasury",
              "type": "address"
            },
            {
              "internalType": "address",
              "name": "incentivesController",
              "type": "address"
            },
            {
              "internalType": "uint256",
              "name": "allocPoint",
              "type": "uint256"
            },
            {
              "internalType": "string",
              "name": "underlyingAssetName",
              "type": "string"
            },
            {
              "internalType": "string",
              "name": "aTokenName",
              "type": "string"
            },
            {
              "internalType": "string",
              "name": "aTokenSymbol",
              "type": "string"
            },
            {
              "internalType": "string",
              "name": "variableDebtTokenName",
              "type": "string"
            },
            {
              "internalType": "string",
              "name": "variableDebtTokenSymbol",
              "type": "string"
            },
            {
              "internalType": "string",
              "name": "stableDebtTokenName",
              "type": "string"
            },
            {
              "internalType": "string",
              "name": "stableDebtTokenSymbol",
              "type": "string"
            },
            {
              "internalType": "bytes",
              "name": "params",
              "type": "bytes"
            }
          ],
          "internalType": "struct ILendingPoolConfigurator.InitReserveInput[]",
          "name": "input",
          "type": "tuple[]"
        }
      ],
      "name": "batchInitReserve",
      "outputs": [],
      "stateMutability": "nonpayable",
      "type": "function"
    },
    {
      "inputs": [
        {
          "internalType": "address",
          "name": "asset",
          "type": "address"
        },
        {
          "internalType": "uint256",
          "name": "ltv",
          "type": "uint256"
        },
        {
          "internalType": "uint256",
          "name": "liquidationThreshold",
          "type": "uint256"
        },
        {
          "internalType": "uint256",
          "name": "liquidationBonus",
          "type": "uint256"
        }
      ],
      "name": "configureReserveAsCollateral",
      "outputs": [],
      "stateMutability": "nonpayable",
      "type": "function"
    },
    {
      "inputs": [
        {
          "internalType": "address",
          "name": "asset",
          "type": "address"
        }
      ],
      "name": "deactivateReserve",
      "outputs": [],
      "stateMutability": "nonpayable",
      "type": "function"
    },
    {
      "inputs": [
        {
          "internalType": "address",
          "name": "asset",
          "type": "address"
        }
      ],
      "name": "disableBorrowingOnReserve",
      "outputs": [],
      "stateMutability": "nonpayable",
      "type": "function"
    },
    {
      "inputs": [
        {
          "internalType": "address",
          "name": "asset",
          "type": "address"
        }
      ],
      "name": "disableReserveStableRate",
      "outputs": [],
      "stateMutability": "nonpayable",
      "type": "function"
    },
    {
      "inputs": [
        {
          "internalType": "address",
          "name": "asset",
          "type": "address"
        },
        {
          "internalType": "bool",
          "name": "stableBorrowRateEnabled",
          "type": "bool"
        }
      ],
      "name": "enableBorrowingOnReserve",
      "outputs": [],
      "stateMutability": "nonpayable",
      "type": "function"
    },
    {
      "inputs": [
        {
          "internalType": "address",
          "name": "asset",
          "type": "address"
        }
      ],
      "name": "enableReserveStableRate",
      "outputs": [],
      "stateMutability": "nonpayable",
      "type": "function"
    },
    {
      "inputs": [
        {
          "internalType": "address",
          "name": "asset",
          "type": "address"
        }
      ],
      "name": "freezeReserve",
      "outputs": [],
      "stateMutability": "nonpayable",
      "type": "function"
    },
    {
      "inputs": [
        {
          "internalType": "contract ILendingPool",
          "name": "_pool",
          "type": "address"
        },
        {
          "internalType": "address",
          "name": "_incentivesController",
          "type": "address"
        },
        {
          "internalType": "address",
          "name": "_treasury",
          "type": "address"
        },
        {
          "internalType": "uint256",
          "name": "_allocPoint",
          "type": "uint256"
        },
        {
          "internalType": "address",
          "name": "_aTokenProxy",
          "type": "address"
        },
        {
          "internalType": "address",
          "name": "_stableProxy",
          "type": "address"
        },
        {
          "internalType": "address",
          "name": "_variableProxy",
          "type": "address"
        },
        {
          "internalType": "address",
          "name": "_interestRateStrategy",
          "type": "address"
        },
        {
          "internalType": "address",
          "name": "_underlyingAsset",
          "type": "address"
        },
        {
          "internalType": "uint8",
          "name": "_underlyingAssetDecimals",
          "type": "uint8"
        }
      ],
      "name": "initReserveSetting",
      "outputs": [],
      "stateMutability": "nonpayable",
      "type": "function"
    },
    {
      "inputs": [
        {
          "internalType": "contract ILendingPoolAddressesProvider",
          "name": "provider",
          "type": "address"
        }
      ],
      "name": "initialize",
      "outputs": [],
      "stateMutability": "nonpayable",
      "type": "function"
    },
    {
      "inputs": [
        {
          "internalType": "bool",
          "name": "val",
          "type": "bool"
        }
      ],
      "name": "setPoolPause",
      "outputs": [],
      "stateMutability": "nonpayable",
      "type": "function"
    },
    {
      "inputs": [
        {
          "internalType": "address",
          "name": "asset",
          "type": "address"
        },
        {
          "internalType": "uint256",
          "name": "reserveFactor",
          "type": "uint256"
        }
      ],
      "name": "setReserveFactor",
      "outputs": [],
      "stateMutability": "nonpayable",
      "type": "function"
    },
    {
      "inputs": [
        {
          "internalType": "address",
          "name": "asset",
          "type": "address"
        },
        {
          "internalType": "address",
          "name": "rateStrategyAddress",
          "type": "address"
        }
      ],
      "name": "setReserveInterestRateStrategyAddress",
      "outputs": [],
      "stateMutability": "nonpayable",
      "type": "function"
    },
    {
      "inputs": [
        {
          "internalType": "address",
          "name": "asset",
          "type": "address"
        }
      ],
      "name": "unfreezeReserve",
      "outputs": [],
      "stateMutability": "nonpayable",
      "type": "function"
    },
    {
      "inputs": [
        {
          "components": [
            {
              "internalType": "address",
              "name": "asset",
              "type": "address"
            },
            {
              "internalType": "address",
              "name": "treasury",
              "type": "address"
            },
            {
              "internalType": "address",
              "name": "incentivesController",
              "type": "address"
            },
            {
              "internalType": "string",
              "name": "name",
              "type": "string"
            },
            {
              "internalType": "string",
              "name": "symbol",
              "type": "string"
            },
            {
              "internalType": "address",
              "name": "implementation",
              "type": "address"
            },
            {
              "internalType": "bytes",
              "name": "params",
              "type": "bytes"
            }
          ],
          "internalType": "struct ILendingPoolConfigurator.UpdateATokenInput",
          "name": "input",
          "type": "tuple"
        }
      ],
      "name": "updateAToken",
      "outputs": [],
      "stateMutability": "nonpayable",
      "type": "function"
    },
    {
      "inputs": [
        {
          "components": [
            {
              "internalType": "address",
              "name": "asset",
              "type": "address"
            },
            {
              "internalType": "address",
              "name": "incentivesController",
              "type": "address"
            },
            {
              "internalType": "string",
              "name": "name",
              "type": "string"
            },
            {
              "internalType": "string",
              "name": "symbol",
              "type": "string"
            },
            {
              "internalType": "address",
              "name": "implementation",
              "type": "address"
            },
            {
              "internalType": "bytes",
              "name": "params",
              "type": "bytes"
            }
          ],
          "internalType": "struct ILendingPoolConfigurator.UpdateDebtTokenInput",
          "name": "input",
          "type": "tuple"
        }
      ],
      "name": "updateStableDebtToken",
      "outputs": [],
      "stateMutability": "nonpayable",
      "type": "function"
    },
    {
      "inputs": [
        {
          "components": [
            {
              "internalType": "address",
              "name": "asset",
              "type": "address"
            },
            {
              "internalType": "address",
              "name": "incentivesController",
              "type": "address"
            },
            {
              "internalType": "string",
              "name": "name",
              "type": "string"
            },
            {
              "internalType": "string",
              "name": "symbol",
              "type": "string"
            },
            {
              "internalType": "address",
              "name": "implementation",
              "type": "address"
            },
            {
              "internalType": "bytes",
              "name": "params",
              "type": "bytes"
            }
          ],
          "internalType": "struct ILendingPoolConfigurator.UpdateDebtTokenInput",
          "name": "input",
          "type": "tuple"
        }
      ],
      "name": "updateVariableDebtToken",
      "outputs": [],
      "stateMutability": "nonpayable",
      "type": "function"
    }
  ],
  "bytecode": "0x60806040526000805534801561001457600080fd5b50614455806100246000396000f3fe608060405234801561001057600080fd5b50600436106101165760003560e01c8063ab646186116100a2578063bf34418311610071578063bf34418314610214578063c4d66de814610227578063eede87c11461023a578063ef1f93731461024d578063f53a25151461026057610116565b8063ab646186146101c8578063ad4e6432146101db578063b75d6f34146101ee578063bb01c37c1461020157610116565b80637626cde3116100e95780637626cde3146101695780637641f3d91461017c5780637aca76eb1461018f5780637c4e560b146101a2578063a8dc0f45146101b557610116565b80631d2118f91461011b5780633e72a454146101305780634b4e675314610143578063710f637114610156575b600080fd5b61012e6101293660046134ed565b610273565b005b61012e61013e3660046134ae565b6103e5565b61012e610151366004613559565b6105d9565b61012e610164366004613647565b6107d1565b61012e610177366004613850565b610b78565b61012e61018a36600461362d565b610e8d565b61012e61019d3660046134ae565b610fb2565b61012e6101b0366004613584565b61119d565b61012e6101c33660046134ae565b6114bf565b61012e6101d63660046135be565b6116aa565b61012e6101e9366004613850565b6117b6565b61012e6101fc3660046134ae565b611a54565b61012e61020f366004613818565b611c3f565b61012e6102223660046134ae565b611eef565b61012e6102353660046134ae565b6120da565b61012e610248366004613525565b61222b565b61012e61025b3660046134ae565b612421565b61012e61026e3660046134ae565b61260c565b603454604080516315d9b46f60e31b8152905133926001600160a01b03169163aecda378916004808301926020929190829003018186803b1580156102b757600080fd5b505afa1580156102cb573d6000803e3d6000fd5b505050506040513d601f19601f820116820180604052508101906102ef91906134d1565b6001600160a01b03161460405180604001604052806002815260200161333360f01b8152509061033b5760405162461bcd60e51b81526004016103329190613b7f565b60405180910390fd5b50603554604051631d2118f960e01b81526001600160a01b0390911690631d2118f99061036e9085908590600401613945565b600060405180830381600087803b15801561038857600080fd5b505af115801561039c573d6000803e3d6000fd5b50505050816001600160a01b03167f5644b64ebb0ce18c4032248ca52f58355469092ff072866c3dcd8640e817d6a5826040516103d99190613931565b60405180910390a25050565b603454604080516315d9b46f60e31b8152905133926001600160a01b03169163aecda378916004808301926020929190829003018186803b15801561042957600080fd5b505afa15801561043d573d6000803e3d6000fd5b505050506040513d601f19601f8201168201806040525081019061046191906134d1565b6001600160a01b03161460405180604001604052806002815260200161333360f01b815250906104a45760405162461bcd60e51b81526004016103329190613b7f565b506104ae816127f7565b60355460405163c44b11f760e01b81526000916001600160a01b03169063c44b11f7906104df908590600401613931565b60206040518083038186803b1580156104f757600080fd5b505afa15801561050b573d6000803e3d6000fd5b505050506040513d601f19601f8201168201806040525081019061052f919061370d565b905061053c816000612951565b6035548151604051635c69493b60e11b81526001600160a01b039092169163b8d292769161056f918691906004016139e0565b600060405180830381600087803b15801561058957600080fd5b505af115801561059d573d6000803e3d6000fd5b50506040516001600160a01b03851692507f6f60cf8bd0f218cabe1ea3150bd07b0b758c35c4cfdf7138017a283e65564d5e9150600090a25050565b603454604080516315d9b46f60e31b8152905133926001600160a01b03169163aecda378916004808301926020929190829003018186803b15801561061d57600080fd5b505afa158015610631573d6000803e3d6000fd5b505050506040513d601f19601f8201168201806040525081019061065591906134d1565b6001600160a01b03161460405180604001604052806002815260200161333360f01b815250906106985760405162461bcd60e51b81526004016103329190613b7f565b5060355460405163c44b11f760e01b81526000916001600160a01b03169063c44b11f7906106ca908690600401613931565b60206040518083038186803b1580156106e257600080fd5b505afa1580156106f6573d6000803e3d6000fd5b505050506040513d601f19601f8201168201806040525081019061071a919061370d565b9050610726818361297f565b6035548151604051635c69493b60e11b81526001600160a01b039092169163b8d2927691610759918791906004016139e0565b600060405180830381600087803b15801561077357600080fd5b505af1158015610787573d6000803e3d6000fd5b50505050826001600160a01b03167f2694ccb0b585b6a54b8d8b4a47aa874b05c257b43d34e98aee50838be00d3405836040516107c49190613b92565b60405180910390a2505050565b603454604080516315d9b46f60e31b8152905133926001600160a01b03169163aecda378916004808301926020929190829003018186803b15801561081557600080fd5b505afa158015610829573d6000803e3d6000fd5b505050506040513d601f19601f8201168201806040525081019061084d91906134d1565b6001600160a01b03161460405180604001604052806002815260200161333360f01b815250906108905760405162461bcd60e51b81526004016103329190613b7f565b50604051631954e55d60e11b815289906001600160a01b038216906332a9caba906108c1908a908c906004016139e0565b600060405180830381600087803b1580156108db57600080fd5b505af11580156108ef573d6000803e3d6000fd5b5050604051639c9b2e2160e01b81526001600160a01b038c169250639c9b2e21915061091f908a90600401613931565b600060405180830381600087803b15801561093957600080fd5b505af115801561094d573d6000803e3d6000fd5b5050604051631954e55d60e11b81526001600160a01b03841692506332a9caba915061097f9088908c906004016139e0565b600060405180830381600087803b15801561099957600080fd5b505af11580156109ad573d6000803e3d6000fd5b5050604051633d38474960e11b81526001600160a01b038e169250637a708e9291506109e59086908b908b908b908b90600401613982565b600060405180830381600087803b1580156109ff57600080fd5b505af1158015610a13573d6000803e3d6000fd5b505060405163c44b11f760e01b8152600092506001600160a01b038e16915063c44b11f790610a46908790600401613931565b60206040518083038186803b158015610a5e57600080fd5b505afa158015610a72573d6000803e3d6000fd5b505050506040513d601f19601f82011682018060405250810190610a96919061370d565b9050610aa58160ff8516612a41565b610ab0816001612951565b610abb816000612ac2565b8051604051635c69493b60e11b81526001600160a01b038e169163b8d2927691610ae99188916004016139e0565b600060405180830381600087803b158015610b0357600080fd5b505af1158015610b17573d6000803e3d6000fd5b50505050876001600160a01b0316846001600160a01b03167f3a0ca721fc364424566385a1aa271ed508cc2c0949c2272575fb3013a163a45f898989604051610b629392919061395f565b60405180910390a3505050505050505050505050565b603454604080516315d9b46f60e31b8152905133926001600160a01b03169163aecda378916004808301926020929190829003018186803b158015610bbc57600080fd5b505afa158015610bd0573d6000803e3d6000fd5b505050506040513d601f19601f82011682018060405250810190610bf491906134d1565b6001600160a01b03161460405180604001604052806002815260200161333360f01b81525090610c375760405162461bcd60e51b81526004016103329190613b7f565b506035546001600160a01b03166000816335ea6a75610c5960208601866134ae565b6040518263ffffffff1660e01b8152600401610c759190613931565b6101806040518083038186803b158015610c8e57600080fd5b505afa158015610ca2573d6000803e3d6000fd5b505050506040513d601f19601f82011682018060405250810190610cc69190613728565b90506000610d5a6001600160a01b03841663c44b11f7610ce960208801886134ae565b6040518263ffffffff1660e01b8152600401610d059190613931565b60206040518083038186803b158015610d1d57600080fd5b505afa158015610d31573d6000803e3d6000fd5b505050506040513d601f19601f82011682018060405250810190610d55919061370d565b612af0565b50935060009250636111764560e11b9150859050610d7b60208801886134ae565b610d8b6040890160208a016134ae565b85610d9960408b018b613bfd565b610da660608d018d613bfd565b610db360a08f018f613bb1565b604051602401610dcc9a99989796959493929190613acc565b60408051601f198184030181529190526020810180516001600160e01b03166001600160e01b031990931692909217909152610100840151909150610e2190610e1b60a08801608089016134ae565b83612b1b565b610e3160a08601608087016134ae565b6101008401516001600160a01b039182169116610e5160208801886134ae565b6001600160a01b03167f7a943a5b6c214bf7726c069a878b1e2a8e7371981d516048b84e03743e67bc2860405160405180910390a45050505050565b60345460408051636ee554f560e11b8152905133926001600160a01b03169163ddcaa9ea916004808301926020929190829003018186803b158015610ed157600080fd5b505afa158015610ee5573d6000803e3d6000fd5b505050506040513d601f19601f82011682018060405250810190610f0991906134d1565b6001600160a01b031614604051806040016040528060028152602001611b9b60f11b81525090610f4c5760405162461bcd60e51b81526004016103329190613b7f565b5060355460405163bedb86fb60e01b81526001600160a01b039091169063bedb86fb90610f7d9084906004016139f9565b600060405180830381600087803b158015610f9757600080fd5b505af1158015610fab573d6000803e3d6000fd5b5050505050565b603454604080516315d9b46f60e31b8152905133926001600160a01b03169163aecda378916004808301926020929190829003018186803b158015610ff657600080fd5b505afa15801561100a573d6000803e3d6000fd5b505050506040513d601f19601f8201168201806040525081019061102e91906134d1565b6001600160a01b03161460405180604001604052806002815260200161333360f01b815250906110715760405162461bcd60e51b81526004016103329190613b7f565b5060355460405163c44b11f760e01b81526000916001600160a01b03169063c44b11f7906110a3908590600401613931565b60206040518083038186803b1580156110bb57600080fd5b505afa1580156110cf573d6000803e3d6000fd5b505050506040513d601f19601f820116820180604052508101906110f3919061370d565b9050611100816001612ac2565b6035548151604051635c69493b60e11b81526001600160a01b039092169163b8d2927691611133918691906004016139e0565b600060405180830381600087803b15801561114d57600080fd5b505af1158015611161573d6000803e3d6000fd5b50506040516001600160a01b03851692507f85dc710add8a0914461a7dc5a63f6fc529a7700f8c6089a3faf5e93256ccf12a9150600090a25050565b603454604080516315d9b46f60e31b8152905133926001600160a01b03169163aecda378916004808301926020929190829003018186803b1580156111e157600080fd5b505afa1580156111f5573d6000803e3d6000fd5b505050506040513d601f19601f8201168201806040525081019061121991906134d1565b6001600160a01b03161460405180604001604052806002815260200161333360f01b8152509061125c5760405162461bcd60e51b81526004016103329190613b7f565b5060355460405163c44b11f760e01b81526000916001600160a01b03169063c44b11f79061128e908890600401613931565b60206040518083038186803b1580156112a657600080fd5b505afa1580156112ba573d6000803e3d6000fd5b505050506040513d601f19601f820116820180604052508101906112de919061370d565b90508284111560405180604001604052806002815260200161373560f01b8152509061131d5760405162461bcd60e51b81526004016103329190613b7f565b5082156113ae57604080518082019091526002815261373560f01b6020820152612710831161135f5760405162461bcd60e51b81526004016103329190613b7f565b5061271061136d8484612b83565b111560405180604001604052806002815260200161373560f01b815250906113a85760405162461bcd60e51b81526004016103329190613b7f565b506113f0565b604080518082019091526002815261373560f01b602082015282156113e65760405162461bcd60e51b81526004016103329190613b7f565b506113f0856127f7565b6113fa8185612c28565b6114048184612c9f565b61140e8183612d1e565b6035548151604051635c69493b60e11b81526001600160a01b039092169163b8d2927691611441918991906004016139e0565b600060405180830381600087803b15801561145b57600080fd5b505af115801561146f573d6000803e3d6000fd5b50505050846001600160a01b03167f637febbda9275aea2e85c0ff690444c8d87eb2e8339bbede9715abcc89cb09958585856040516114b093929190613b9b565b60405180910390a25050505050565b603454604080516315d9b46f60e31b8152905133926001600160a01b03169163aecda378916004808301926020929190829003018186803b15801561150357600080fd5b505afa158015611517573d6000803e3d6000fd5b505050506040513d601f19601f8201168201806040525081019061153b91906134d1565b6001600160a01b03161460405180604001604052806002815260200161333360f01b8152509061157e5760405162461bcd60e51b81526004016103329190613b7f565b5060355460405163c44b11f760e01b81526000916001600160a01b03169063c44b11f7906115b0908590600401613931565b60206040518083038186803b1580156115c857600080fd5b505afa1580156115dc573d6000803e3d6000fd5b505050506040513d601f19601f82011682018060405250810190611600919061370d565b905061160d816000612d9f565b6035548151604051635c69493b60e11b81526001600160a01b039092169163b8d2927691611640918691906004016139e0565b600060405180830381600087803b15801561165a57600080fd5b505af115801561166e573d6000803e3d6000fd5b50506040516001600160a01b03851692507fe9a7e5fd4fc8ea18e602350324bf48e8f05d12434af0ce0be05743e6a5fdcb9e9150600090a25050565b603454604080516315d9b46f60e31b8152905133926001600160a01b03169163aecda378916004808301926020929190829003018186803b1580156116ee57600080fd5b505afa158015611702573d6000803e3d6000fd5b505050506040513d601f19601f8201168201806040525081019061172691906134d1565b6001600160a01b03161460405180604001604052806002815260200161333360f01b815250906117695760405162461bcd60e51b81526004016103329190613b7f565b506035546001600160a01b031660005b828110156117b0576117a88285858481811061179157fe5b90506020028101906117a39190613c13565b612dcd565b600101611779565b50505050565b603454604080516315d9b46f60e31b8152905133926001600160a01b03169163aecda378916004808301926020929190829003018186803b1580156117fa57600080fd5b505afa15801561180e573d6000803e3d6000fd5b505050506040513d601f19601f8201168201806040525081019061183291906134d1565b6001600160a01b03161460405180604001604052806002815260200161333360f01b815250906118755760405162461bcd60e51b81526004016103329190613b7f565b506035546001600160a01b03166000816335ea6a7561189760208601866134ae565b6040518263ffffffff1660e01b81526004016118b39190613931565b6101806040518083038186803b1580156118cc57600080fd5b505afa1580156118e0573d6000803e3d6000fd5b505050506040513d601f19601f820116820180604052508101906119049190613728565b905060006119276001600160a01b03841663c44b11f7610ce960208801886134ae565b50935060009250636111764560e11b915085905061194860208801886134ae565b6119586040890160208a016134ae565b8561196660408b018b613bfd565b61197360608d018d613bfd565b61198060a08f018f613bb1565b6040516024016119999a99989796959493929190613acc565b60408051601f198184030181529190526020810180516001600160e01b03166001600160e01b0319909316929092179091526101208401519091506119e890610e1b60a08801608089016134ae565b6119f860a08601608087016134ae565b6101208401516001600160a01b039182169116611a1860208801886134ae565b6001600160a01b03167f9439658a562a5c46b1173589df89cf001483d685bad28aedaff4a88656292d8160405160405180910390a45050505050565b603454604080516315d9b46f60e31b8152905133926001600160a01b03169163aecda378916004808301926020929190829003018186803b158015611a9857600080fd5b505afa158015611aac573d6000803e3d6000fd5b505050506040513d601f19601f82011682018060405250810190611ad091906134d1565b6001600160a01b03161460405180604001604052806002815260200161333360f01b81525090611b135760405162461bcd60e51b81526004016103329190613b7f565b5060355460405163c44b11f760e01b81526000916001600160a01b03169063c44b11f790611b45908590600401613931565b60206040518083038186803b158015611b5d57600080fd5b505afa158015611b71573d6000803e3d6000fd5b505050506040513d601f19601f82011682018060405250810190611b95919061370d565b9050611ba2816001612951565b6035548151604051635c69493b60e11b81526001600160a01b039092169163b8d2927691611bd5918691906004016139e0565b600060405180830381600087803b158015611bef57600080fd5b505af1158015611c03573d6000803e3d6000fd5b50506040516001600160a01b03851692507f35b80cd8ea3440e9a8454f116fa658b858da1b64c86c48451f4559cefcdfb56c9150600090a25050565b603454604080516315d9b46f60e31b8152905133926001600160a01b03169163aecda378916004808301926020929190829003018186803b158015611c8357600080fd5b505afa158015611c97573d6000803e3d6000fd5b505050506040513d601f19601f82011682018060405250810190611cbb91906134d1565b6001600160a01b03161460405180604001604052806002815260200161333360f01b81525090611cfe5760405162461bcd60e51b81526004016103329190613b7f565b506035546001600160a01b03166000816335ea6a75611d2060208601866134ae565b6040518263ffffffff1660e01b8152600401611d3c9190613931565b6101806040518083038186803b158015611d5557600080fd5b505afa158015611d69573d6000803e3d6000fd5b505050506040513d601f19601f82011682018060405250810190611d8d9190613728565b90506000611db06001600160a01b03841663c44b11f7610ce960208801886134ae565b5093506000925063183fb41360e01b9150859050611dd460408801602089016134ae565b611de160208901896134ae565b611df160608a0160408b016134ae565b86611dff60608c018c613bfd565b611e0c60808e018e613bfd565b8e8060c00190611e1c9190613bb1565b604051602401611e369b9a99989796959493929190613a04565b60408051601f198184030181529190526020810180516001600160e01b03166001600160e01b03199093169290921790915260e0840151909150611e8490610e1b60c0880160a089016134ae565b611e9460c0860160a087016134ae565b60e08401516001600160a01b039182169116611eb360208801886134ae565b6001600160a01b03167fa76f65411ec66a7fb6bc467432eb14767900449ae4469fa295e4441fe5e1cb7360405160405180910390a45050505050565b603454604080516315d9b46f60e31b8152905133926001600160a01b03169163aecda378916004808301926020929190829003018186803b158015611f3357600080fd5b505afa158015611f47573d6000803e3d6000fd5b505050506040513d601f19601f82011682018060405250810190611f6b91906134d1565b6001600160a01b03161460405180604001604052806002815260200161333360f01b81525090611fae5760405162461bcd60e51b81526004016103329190613b7f565b5060355460405163c44b11f760e01b81526000916001600160a01b03169063c44b11f790611fe0908590600401613931565b60206040518083038186803b158015611ff857600080fd5b505afa15801561200c573d6000803e3d6000fd5b505050506040513d601f19601f82011682018060405250810190612030919061370d565b905061203d816001613334565b6035548151604051635c69493b60e11b81526001600160a01b039092169163b8d2927691612070918691906004016139e0565b600060405180830381600087803b15801561208a57600080fd5b505af115801561209e573d6000803e3d6000fd5b50506040516001600160a01b03851692507f8dee2b2f3e98319ae6347eda521788f73f4086c9be9a594942b370b137fb8cb19150600090a25050565b60006120e4613362565b60015490915060ff16806120fb57506120fb613367565b80612107575060005481115b6121425760405162461bcd60e51b815260040180806020018281038252602e8152602001806143f2602e913960400191505060405180910390fd5b60015460ff16158015612161576001805460ff19168117905560008290555b603480546001600160a01b0319166001600160a01b03858116919091179182905560408051630261bf8b60e01b815290519290911691630261bf8b91600480820192602092909190829003018186803b1580156121bd57600080fd5b505afa1580156121d1573d6000803e3d6000fd5b505050506040513d601f19601f820116820180604052508101906121f591906134d1565b603580546001600160a01b0319166001600160a01b03929092169190911790558015612226576001805460ff191690555b505050565b603454604080516315d9b46f60e31b8152905133926001600160a01b03169163aecda378916004808301926020929190829003018186803b15801561226f57600080fd5b505afa158015612283573d6000803e3d6000fd5b505050506040513d601f19601f820116820180604052508101906122a791906134d1565b6001600160a01b03161460405180604001604052806002815260200161333360f01b815250906122ea5760405162461bcd60e51b81526004016103329190613b7f565b5060355460405163c44b11f760e01b81526000916001600160a01b03169063c44b11f79061231c908690600401613931565b60206040518083038186803b15801561233457600080fd5b505afa158015612348573d6000803e3d6000fd5b505050506040513d601f19601f8201168201806040525081019061236c919061370d565b9050612379816001612d9f565b6123838183613334565b6035548151604051635c69493b60e11b81526001600160a01b039092169163b8d29276916123b6918791906004016139e0565b600060405180830381600087803b1580156123d057600080fd5b505af11580156123e4573d6000803e3d6000fd5b50505050826001600160a01b03167fab2f7f9e5ca2772fafa94f355c1842a80ae6b9e41f83083098d81f67d7a0b508836040516107c491906139f9565b603454604080516315d9b46f60e31b8152905133926001600160a01b03169163aecda378916004808301926020929190829003018186803b15801561246557600080fd5b505afa158015612479573d6000803e3d6000fd5b505050506040513d601f19601f8201168201806040525081019061249d91906134d1565b6001600160a01b03161460405180604001604052806002815260200161333360f01b815250906124e05760405162461bcd60e51b81526004016103329190613b7f565b5060355460405163c44b11f760e01b81526000916001600160a01b03169063c44b11f790612512908590600401613931565b60206040518083038186803b15801561252a57600080fd5b505afa15801561253e573d6000803e3d6000fd5b505050506040513d601f19601f82011682018060405250810190612562919061370d565b905061256f816000612ac2565b6035548151604051635c69493b60e11b81526001600160a01b039092169163b8d29276916125a2918691906004016139e0565b600060405180830381600087803b1580156125bc57600080fd5b505af11580156125d0573d6000803e3d6000fd5b50506040516001600160a01b03851692507f838ecdc4709a31a26db48b0c853212cedde3f725f07030079d793fb0719647609150600090a25050565b603454604080516315d9b46f60e31b8152905133926001600160a01b03169163aecda378916004808301926020929190829003018186803b15801561265057600080fd5b505afa158015612664573d6000803e3d6000fd5b505050506040513d601f19601f8201168201806040525081019061268891906134d1565b6001600160a01b03161460405180604001604052806002815260200161333360f01b815250906126cb5760405162461bcd60e51b81526004016103329190613b7f565b5060355460405163c44b11f760e01b81526000916001600160a01b03169063c44b11f7906126fd908590600401613931565b60206040518083038186803b15801561271557600080fd5b505afa158015612729573d6000803e3d6000fd5b505050506040513d601f19601f8201168201806040525081019061274d919061370d565b905061275a816000613334565b6035548151604051635c69493b60e11b81526001600160a01b039092169163b8d292769161278d918691906004016139e0565b600060405180830381600087803b1580156127a757600080fd5b505af11580156127bb573d6000803e3d6000fd5b50506040516001600160a01b03851692507f8bbf35441ac2c607ddecadd3d8ee58636d32f217fad201fb2655581502dd84e39150600090a25050565b6035546040516335ea6a7560e01b81526000916001600160a01b0316906335ea6a7590612828908590600401613931565b6101806040518083038186803b15801561284157600080fd5b505afa158015612855573d6000803e3d6000fd5b505050506040513d601f19601f820116820180604052508101906128799190613728565b90506000826001600160a01b03166370a082318360e001516040518263ffffffff1660e01b81526004016128ad9190613931565b60206040518083038186803b1580156128c557600080fd5b505afa1580156128d9573d6000803e3d6000fd5b505050506040513d601f19601f820116820180604052508101906128fd9190613888565b905080158015612918575060608201516001600160801b0316155b604051806040016040528060028152602001610ccd60f21b815250906117b05760405162461bcd60e51b81526004016103329190613b7f565b60388161295f576000612962565b60015b8351670100000000000000191660ff9190911690911b1790915250565b604080518082019091526002815261373160f01b602082015261ffff821115612a265760405162461bcd60e51b81526004018080602001828103825283818151815260200191508051906020019080838360005b838110156129eb5781810151838201526020016129d3565b50505050905090810190601f168015612a185780820380516001836020036101000a031916815260200191505b509250505060405180910390fd5b50815169ffff0000000000000000191660409190911b179052565b604080518082019091526002815261037360f41b602082015260ff821115612aaa5760405162461bcd60e51b81526020600482018181528351602484015283519092839260449091019190850190808383600083156129eb5781810151838201526020016129d3565b50815166ff000000000000191660309190911b179052565b603981612ad0576000612ad3565b60015b8351670200000000000000191660ff9190911690911b1790915250565b5161ffff80821692601083901c821692602081901c831692603082901c60ff169260409290921c1690565b60405163278f794360e11b815283906001600160a01b03821690634f1ef28690612b4b90869086906004016139b4565b600060405180830381600087803b158015612b6557600080fd5b505af1158015612b79573d6000803e3d6000fd5b5050505050505050565b6000821580612b90575081155b15612b9d57506000612c22565b816113881981612ba957fe5b0483111560405180604001604052806002815260200161068760f31b81525090612c145760405162461bcd60e51b81526020600482018181528351602484015283519092839260449091019190850190808383600083156129eb5781810151838201526020016129d3565b505061271061138882840201045b92915050565b604080518082019091526002815261363760f01b602082015261ffff821115612c925760405162461bcd60e51b81526020600482018181528351602484015283519092839260449091019190850190808383600083156129eb5781810151838201526020016129d3565b50815161ffff1916179052565b60408051808201909152600281526106c760f31b602082015261ffff821115612d095760405162461bcd60e51b81526020600482018181528351602484015283519092839260449091019190850190808383600083156129eb5781810151838201526020016129d3565b50815163ffff0000191660109190911b179052565b604080518082019091526002815261363960f01b602082015261ffff821115612d885760405162461bcd60e51b81526020600482018181528351602484015283519092839260449091019190850190808383600083156129eb5781810151838201526020016129d3565b50815165ffff00000000191660209190911b179052565b603a81612dad576000612db0565b60015b8351670400000000000000191660ff9190911690911b1790915250565b6000612de0610100830160e084016134ae565b90506000612eac612df460208501856134ae565b63183fb41360e01b86612e0d60e0880160c089016134ae565b612e1d60c0890160a08a016134ae565b87612e2e60808b0160608c016138a0565b612e3c6101408c018c613bfd565b612e4a6101608e018e613bfd565b8e806102000190612e5b9190613bb1565b604051602401612e759b9a99989796959493929190613a85565b60408051601f198184030181529190526020810180516001600160e01b03166001600160e01b03199093169290921790915261336d565b604051631954e55d60e11b81529091506001600160a01b038316906332a9caba90612ee2908490610100880135906004016139e0565b600060405180830381600087803b158015612efc57600080fd5b505af1158015612f10573d6000803e3d6000fd5b50612f259250505060e0840160c085016134ae565b6001600160a01b0316639c9b2e21826040518263ffffffff1660e01b8152600401612f509190613931565b600060405180830381600087803b158015612f6a57600080fd5b505af1158015612f7e573d6000803e3d6000fd5b50505050600061301a846020016020810190612f9a91906134ae565b636111764560e11b87612fb360c0890160a08a016134ae565b612fc46101008a0160e08b016134ae565b612fd460808b0160608c016138a0565b612fe26101c08c018c613bfd565b612ff06101e08e018e613bfd565b8e8061020001906130019190613bb1565b604051602401612e759a99989796959493929190613b41565b9050600061309861303160608701604088016134ae565b636111764560e11b8861304a60c08a0160a08b016134ae565b61305b6101008b0160e08c016134ae565b61306b60808c0160608d016138a0565b6130796101808d018d613bfd565b6130876101a08f018f613bfd565b8f8061020001906130019190613bb1565b604051631954e55d60e11b81529091506001600160a01b038516906332a9caba906130ce9084906101008a0135906004016139e0565b600060405180830381600087803b1580156130e857600080fd5b505af11580156130fc573d6000803e3d6000fd5b5050506001600160a01b0387169050637a708e9261312060c0880160a089016134ae565b85858561313360a08c0160808d016134ae565b6040518663ffffffff1660e01b8152600401613153959493929190613982565b600060405180830381600087803b15801561316d57600080fd5b505af1158015613181573d6000803e3d6000fd5b506000925050506001600160a01b03871663c44b11f76131a760c0890160a08a016134ae565b6040518263ffffffff1660e01b81526004016131c39190613931565b60206040518083038186803b1580156131db57600080fd5b505afa1580156131ef573d6000803e3d6000fd5b505050506040513d601f19601f82011682018060405250810190613213919061370d565b905061323261322860808801606089016138a0565b829060ff16612a41565b61323d816001612951565b613248816000612ac2565b6001600160a01b03871663b8d2927661326760c0890160a08a016134ae565b83516040516001600160e01b031960e085901b16815261328b9291906004016139e0565b600060405180830381600087803b1580156132a557600080fd5b505af11580156132b9573d6000803e3d6000fd5b5050506001600160a01b03851690506132d860c0880160a089016134ae565b6001600160a01b03167f3a0ca721fc364424566385a1aa271ed508cc2c0949c2272575fb3013a163a45f858561331460a08c0160808d016134ae565b6040516133239392919061395f565b60405180910390a350505050505050565b603b81613342576000613345565b60015b8351670800000000000000191660ff9190911690911b1790915250565b600190565b303b1590565b6000803060405161337d9061340f565b6133879190613931565b604051809103906000f0801580156133a3573d6000803e3d6000fd5b5060405163347d5e2560e21b81529091506001600160a01b0382169063d1f57894906133d590879087906004016139b4565b600060405180830381600087803b1580156133ef57600080fd5b505af1158015613403573d6000803e3d6000fd5b50929695505050505050565b61077380613c7f83390190565b805161342781613c57565b919050565b8035801515811461342757600080fd5b60006020828403121561344d578081fd5b6040516020810181811067ffffffffffffffff8211171561346a57fe5b6040529151825250919050565b80516001600160801b038116811461342757600080fd5b805164ffffffffff8116811461342757600080fd5b805161342781613c6f565b6000602082840312156134bf578081fd5b81356134ca81613c57565b9392505050565b6000602082840312156134e2578081fd5b81516134ca81613c57565b600080604083850312156134ff578081fd5b823561350a81613c57565b9150602083013561351a81613c57565b809150509250929050565b60008060408385031215613537578182fd5b823561354281613c57565b91506135506020840161342c565b90509250929050565b6000806040838503121561356b578182fd5b823561357681613c57565b946020939093013593505050565b60008060008060808587031215613599578182fd5b84356135a481613c57565b966020860135965060408601359560600135945092505050565b600080602083850312156135d0578182fd5b823567ffffffffffffffff808211156135e7578384fd5b818501915085601f8301126135fa578384fd5b813581811115613608578485fd5b866020808302850101111561361b578485fd5b60209290920196919550909350505050565b60006020828403121561363e578081fd5b6134ca8261342c565b6000806000806000806000806000806101408b8d031215613666578788fd5b8a3561367181613c57565b995060208b013561368181613c57565b985060408b013561369181613c57565b975060608b0135965060808b01356136a881613c57565b955060a08b01356136b881613c57565b945060c08b01356136c881613c57565b935060e08b01356136d881613c57565b92506101008b01356136e981613c57565b91506101208b01356136fa81613c6f565b809150509295989b9194979a5092959850565b60006020828403121561371e578081fd5b6134ca838361343c565b600061018080838503121561373b578182fd5b61374481613c33565b9050613750848461343c565b815261375e60208401613477565b602082015261376f60408401613477565b604082015261378060608401613477565b606082015261379160808401613477565b60808201526137a260a08401613477565b60a08201526137b360c0840161348e565b60c08201526137c460e0840161341c565b60e08201526101006137d781850161341c565b908201526101206137e984820161341c565b908201526101406137fb84820161341c565b9082015261016061380d8482016134a3565b908201529392505050565b600060208284031215613829578081fd5b813567ffffffffffffffff81111561383f578182fd5b820160e081850312156134ca578182fd5b600060208284031215613861578081fd5b813567ffffffffffffffff811115613877578182fd5b820160c081850312156134ca578182fd5b600060208284031215613899578081fd5b5051919050565b6000602082840312156138b1578081fd5b81356134ca81613c6f565b60008284528282602086013780602084860101526020601f19601f85011685010190509392505050565b60008151808452815b8181101561390b576020818501810151868301820152016138ef565b8181111561391c5782602083870101525b50601f01601f19169290920160200192915050565b6001600160a01b0391909116815260200190565b6001600160a01b0392831681529116602082015260400190565b6001600160a01b0393841681529183166020830152909116604082015260600190565b6001600160a01b0395861681529385166020850152918416604084015283166060830152909116608082015260a00190565b6001600160a01b03831681526040602082018190526000906139d8908301846138e6565b949350505050565b6001600160a01b03929092168252602082015260400190565b901515815260200190565b6001600160a01b038c811682528b811660208301528a81166040830152891660608201526080810188905261010060a08201819052600090613a49838201898b6138bc565b905082810360c0840152613a5e8187896138bc565b905082810360e0840152613a738185876138bc565b9e9d5050505050505050505050505050565b6001600160a01b038c811682528b811660208301528a811660408301528916606082015260ff8816608082015261010060a08201819052600090613a49838201898b6138bc565b6001600160a01b038b811682528a81166020830152891660408201526060810188905260e060808201819052600090613b08908301888a6138bc565b82810360a0840152613b1b8187896138bc565b905082810360c0840152613b308185876138bc565b9d9c50505050505050505050505050565b6001600160a01b038b811682528a811660208301528916604082015260ff8816606082015260e060808201819052600090613b08908301888a6138bc565b6000602082526134ca60208301846138e6565b90815260200190565b9283526020830191909152604082015260600190565b6000808335601e19843603018112613bc7578283fd5b83018035915067ffffffffffffffff821115613be1578283fd5b602001915036819003821315613bf657600080fd5b9250929050565b6000808335601e19843603018112613bc7578182fd5b6000823561021e19833603018112613c29578182fd5b9190910192915050565b60405181810167ffffffffffffffff81118282101715613c4f57fe5b604052919050565b6001600160a01b0381168114613c6c57600080fd5b50565b60ff81168114613c6c57600080fdfe60a060405234801561001057600080fd5b506040516107733803806107738339818101604052602081101561003357600080fd5b5051606081901b6001600160601b0319166080526001600160a01b03166106f36100806000398061022852806102725280610331528061045e528061048752806105af52506106f36000f3fe60806040526004361061004a5760003560e01c80633659cfe6146100545780634f1ef286146100875780635c60da1b14610107578063d1f5789414610138578063f851a440146101ee575b610052610203565b005b34801561006057600080fd5b506100526004803603602081101561007757600080fd5b50356001600160a01b031661021d565b6100526004803603604081101561009d57600080fd5b6001600160a01b0382351691908101906040810160208201356401000000008111156100c857600080fd5b8201836020820111156100da57600080fd5b803590602001918460018302840111640100000000831117156100fc57600080fd5b509092509050610267565b34801561011357600080fd5b5061011c610324565b604080516001600160a01b039092168252519081900360200190f35b6100526004803603604081101561014e57600080fd5b6001600160a01b03823516919081019060408101602082013564010000000081111561017957600080fd5b82018360208201111561018b57600080fd5b803590602001918460018302840111640100000000831117156101ad57600080fd5b91908080601f016020809104026020016040519081016040528093929190818152602001838380828437600092019190915250929550610371945050505050565b3480156101fa57600080fd5b5061011c610451565b61020b6104ab565b61021b6102166104b3565b6104d8565b565b336001600160a01b037f000000000000000000000000000000000000000000000000000000000000000016141561025c57610257816104fc565b610264565b610264610203565b50565b336001600160a01b037f0000000000000000000000000000000000000000000000000000000000000000161415610317576102a1836104fc565b6000836001600160a01b031683836040518083838082843760405192019450600093509091505080830381855af49150503d80600081146102fe576040519150601f19603f3d011682016040523d82523d6000602084013e610303565b606091505b505090508061031157600080fd5b5061031f565b61031f610203565b505050565b6000336001600160a01b037f00000000000000000000000000000000000000000000000000000000000000001614156103665761035f6104b3565b905061036e565b61036e610203565b90565b600061037b6104b3565b6001600160a01b03161461038e57600080fd5b6103978261053c565b80511561044d576000826001600160a01b0316826040518082805190602001908083835b602083106103da5780518252601f1990920191602091820191016103bb565b6001836020036101000a038019825116818451168082178552505050505050905001915050600060405180830381855af49150503d806000811461043a576040519150601f19603f3d011682016040523d82523d6000602084013e61043f565b606091505b505090508061031f57600080fd5b5050565b6000336001600160a01b037f000000000000000000000000000000000000000000000000000000000000000016141561036657507f000000000000000000000000000000000000000000000000000000000000000061036e565b61021b6105a4565b7f360894a13ba1a3210667c828492db98dca3e2076cc3735a920a3ca505d382bbc5490565b3660008037600080366000845af43d6000803e8080156104f7573d6000f35b3d6000fd5b6105058161053c565b6040516001600160a01b038216907fbc7cd75a20ee27fd9adebab32041f755214dbc6bffa90cc0225b39da2e5c2d3b90600090a250565b61054581610614565b6105805760405162461bcd60e51b815260040180806020018281038252603b815260200180610683603b913960400191505060405180910390fd5b7f360894a13ba1a3210667c828492db98dca3e2076cc3735a920a3ca505d382bbc55565b336001600160a01b037f000000000000000000000000000000000000000000000000000000000000000016141561060c5760405162461bcd60e51b81526004018080602001828103825260328152602001806106516032913960400191505060405180910390fd5b61021b61021b565b6000813f7fc5d2460186f7233c927e7db2dcc703c0e500b653ca82273b7bfad8045d85a47081811480159061064857508115155b94935050505056fe43616e6e6f742063616c6c2066616c6c6261636b2066756e6374696f6e2066726f6d207468652070726f78792061646d696e43616e6e6f742073657420612070726f787920696d706c656d656e746174696f6e20746f2061206e6f6e2d636f6e74726163742061646472657373a2646970667358221220354176803b54436ecdaea6509259ddd412b0447c3107a85e8ae96b5f8424f8e564736f6c63430007060033436f6e747261637420696e7374616e63652068617320616c7265616479206265656e20696e697469616c697a6564a2646970667358221220a75d1c294f9e089920aebb725f55d806b900f8df010859a88c978436798df20264736f6c63430007060033",
  "linkReferences": {},
  "deployedLinkReferences": {}
}