{
  "_format": "hh-sol-artifact-1",
  "contractName": "ProtocolOwnedDEXLiquidityTreasury",
  "sourceName": "contracts/staking/ProtocolOwnedDEXLiquidityTreasury.sol",
  "abi": [
    {
      "inputs": [
        {
          "internalType": "uint256",
          "name": "_lockMultiplier",
          "type": "uint256"
        },
        {
          "internalType": "uint256",
          "name": "_minBuy",
          "type": "uint256"
        },
        {
          "internalType": "uint256",
          "name": "_minLock",
          "type": "uint256"
        },
        {
          "internalType": "uint256",
          "name": "_cooldown",
          "type": "uint256"
        },
        {
          "internalType": "uint256",
          "name": "_podlCooldown",
          "type": "uint256"
        }
      ],
      "stateMutability": "nonpayable",
      "type": "constructor"
    },
    {
      "anonymous": false,
      "inputs": [
        {
          "indexed": true,
          "internalType": "address",
          "name": "podler",
          "type": "address"
        },
        {
          "indexed": false,
          "internalType": "uint256",
          "name": "amount",
          "type": "uint256"
        }
      ],
      "name": "AaaaaaahAndImSuperPODLiiiiing",
      "type": "event"
    },
    {
      "anonymous": false,
      "inputs": [
        {
          "indexed": true,
          "internalType": "address",
          "name": "previousOwner",
          "type": "address"
        },
        {
          "indexed": true,
          "internalType": "address",
          "name": "newOwner",
          "type": "address"
        }
      ],
      "name": "OwnershipTransferred",
      "type": "event"
    },
    {
      "anonymous": false,
      "inputs": [
        {
          "indexed": false,
          "internalType": "contract IERC20",
          "name": "_sFTM",
          "type": "address"
        }
      ],
      "name": "SetsFTM",
      "type": "event"
    },
    {
      "anonymous": false,
      "inputs": [
        {
          "indexed": true,
          "internalType": "address",
          "name": "buyer",
          "type": "address"
        },
        {
          "indexed": false,
          "internalType": "uint256",
          "name": "amount",
          "type": "uint256"
        }
      ],
      "name": "SoldFTM",
      "type": "event"
    },
    {
      "inputs": [],
      "name": "availableFTM",
      "outputs": [
        {
          "internalType": "uint256",
          "name": "",
          "type": "uint256"
        }
      ],
      "stateMutability": "view",
      "type": "function"
    },
    {
      "inputs": [
        {
          "internalType": "address",
          "name": "_user",
          "type": "address"
        }
      ],
      "name": "availableForUser",
      "outputs": [
        {
          "internalType": "uint256",
          "name": "",
          "type": "uint256"
        }
      ],
      "stateMutability": "view",
      "type": "function"
    },
    {
      "inputs": [],
      "name": "burn",
      "outputs": [
        {
          "internalType": "address",
          "name": "",
          "type": "address"
        }
      ],
      "stateMutability": "view",
      "type": "function"
    },
    {
      "inputs": [],
      "name": "buyCooldown",
      "outputs": [
        {
          "internalType": "uint256",
          "name": "",
          "type": "uint256"
        }
      ],
      "stateMutability": "view",
      "type": "function"
    },
    {
      "inputs": [
        {
          "internalType": "uint256",
          "name": "_amount",
          "type": "uint256"
        }
      ],
      "name": "buyFTM",
      "outputs": [],
      "stateMutability": "nonpayable",
      "type": "function"
    },
    {
      "inputs": [],
      "name": "lockedBalanceMultiplier",
      "outputs": [
        {
          "internalType": "uint256",
          "name": "",
          "type": "uint256"
        }
      ],
      "stateMutability": "view",
      "type": "function"
    },
    {
      "inputs": [],
      "name": "lpToken",
      "outputs": [
        {
          "internalType": "contract IUniswapLPToken",
          "name": "",
          "type": "address"
        }
      ],
      "stateMutability": "view",
      "type": "function"
    },
    {
      "inputs": [],
      "name": "lpTokensPerOneFTM",
      "outputs": [
        {
          "internalType": "uint256",
          "name": "",
          "type": "uint256"
        }
      ],
      "stateMutability": "view",
      "type": "function"
    },
    {
      "inputs": [],
      "name": "minBuyAmount",
      "outputs": [
        {
          "internalType": "uint256",
          "name": "",
          "type": "uint256"
        }
      ],
      "stateMutability": "view",
      "type": "function"
    },
    {
      "inputs": [],
      "name": "minSuperPODLLock",
      "outputs": [
        {
          "internalType": "uint256",
          "name": "",
          "type": "uint256"
        }
      ],
      "stateMutability": "view",
      "type": "function"
    },
    {
      "inputs": [],
      "name": "owner",
      "outputs": [
        {
          "internalType": "address",
          "name": "",
          "type": "address"
        }
      ],
      "stateMutability": "view",
      "type": "function"
    },
    {
      "inputs": [],
      "name": "protocolOwnedReserves",
      "outputs": [
        {
          "internalType": "uint256",
          "name": "wftm",
          "type": "uint256"
        },
        {
          "internalType": "uint256",
          "name": "sculpt",
          "type": "uint256"
        }
      ],
      "stateMutability": "view",
      "type": "function"
    },
    {
      "inputs": [],
      "name": "renounceOwnership",
      "outputs": [],
      "stateMutability": "nonpayable",
      "type": "function"
    },
    {
      "inputs": [],
      "name": "sFTM",
      "outputs": [
        {
          "internalType": "contract IERC20",
          "name": "",
          "type": "address"
        }
      ],
      "stateMutability": "view",
      "type": "function"
    },
    {
      "inputs": [
        {
          "internalType": "uint256",
          "name": "_lockMultiplier",
          "type": "uint256"
        },
        {
          "internalType": "uint256",
          "name": "_minBuy",
          "type": "uint256"
        },
        {
          "internalType": "uint256",
          "name": "_minLock",
          "type": "uint256"
        },
        {
          "internalType": "uint256",
          "name": "_cooldown",
          "type": "uint256"
        },
        {
          "internalType": "uint256",
          "name": "_podlCooldown",
          "type": "uint256"
        }
      ],
      "name": "setParams",
      "outputs": [],
      "stateMutability": "nonpayable",
      "type": "function"
    },
    {
      "inputs": [
        {
          "internalType": "contract IERC20",
          "name": "_sFTM",
          "type": "address"
        }
      ],
      "name": "setsFTM",
      "outputs": [],
      "stateMutability": "nonpayable",
      "type": "function"
    },
    {
      "inputs": [
        {
          "internalType": "uint256",
          "name": "_amount",
          "type": "uint256"
        }
      ],
      "name": "superPODL",
      "outputs": [],
      "stateMutability": "nonpayable",
      "type": "function"
    },
    {
      "inputs": [],
      "name": "superPODLCooldown",
      "outputs": [
        {
          "internalType": "uint256",
          "name": "",
          "type": "uint256"
        }
      ],
      "stateMutability": "view",
      "type": "function"
    },
    {
      "inputs": [],
      "name": "totalSoldFTM",
      "outputs": [
        {
          "internalType": "uint256",
          "name": "",
          "type": "uint256"
        }
      ],
      "stateMutability": "view",
      "type": "function"
    },
    {
      "inputs": [
        {
          "internalType": "address",
          "name": "newOwner",
          "type": "address"
        }
      ],
      "name": "transferOwnership",
      "outputs": [],
      "stateMutability": "nonpayable",
      "type": "function"
    },
    {
      "inputs": [],
      "name": "treasury",
      "outputs": [
        {
          "internalType": "contract IMultiFeeDistribution",
          "name": "",
          "type": "address"
        }
      ],
      "stateMutability": "view",
      "type": "function"
    },
    {
      "inputs": [
        {
          "internalType": "address",
          "name": "",
          "type": "address"
        }
      ],
      "name": "userData",
      "outputs": [
        {
          "internalType": "uint256",
          "name": "nextClaimTime",
          "type": "uint256"
        },
        {
          "internalType": "uint256",
          "name": "claimCount",
          "type": "uint256"
        },
        {
          "internalType": "uint256",
          "name": "totalBoughtFTM",
          "type": "uint256"
        }
      ],
      "stateMutability": "view",
      "type": "function"
    }
  ],
  "bytecode": "0x608060405234801561001057600080fd5b506040516113dc3803806113dc833981810160405260a081101561003357600080fd5b50805160208201516040830151606084015160809094015192939192909190600061005c6100bd565b600080546001600160a01b0319166001600160a01b0383169081178255604051929350917f8be0079c531659141344cd1fd0a4f28419497f9722a3daafe3b4186f6b6457e0908290a3506100b385858585856100c1565b5050505050610157565b3390565b6100c96100bd565b6000546001600160a01b0390811691161461012b576040805162461bcd60e51b815260206004820181905260248201527f4f776e61626c653a2063616c6c6572206973206e6f7420746865206f776e6572604482015290519081900360640190fd5b67016345785d8a000084101561014057600080fd5b600894909455600492909255600555600655600755565b611276806101666000396000f3fe608060405234801561001057600080fd5b50600436106101425760003560e01c8063acef2e0f116100b8578063c89109131161007c578063c891091314610276578063d828bb88146102ba578063e6e789b4146102ef578063f1c49e64146102f7578063f2fde38b146102ff578063f66bf2291461032557610142565b8063acef2e0f14610206578063b517f4ca1461020e578063b8b35b9314610234578063c34b6d2f14610251578063c49185231461025957610142565b806361d027b31161010a57806361d027b3146101d4578063670e97ed146101dc578063704fbfe5146101e4578063715018a6146101ec5780638da5cb5b146101f65780639fad09e5146101fe57610142565b80633c3d8c8f14610147578063404ea7d91461017f57806344df8e701461018757806348c74950146101ab5780635fcbd285146101cc575b600080fd5b61016d6004803603602081101561015d57600080fd5b50356001600160a01b031661032d565b60408051918252519081900360200190f35b61016d6104bf565b61018f6104c5565b604080516001600160a01b039092168252519081900360200190f35b6101b36104dd565b6040805192835260208301919091528051918290030190f35b61018f6106ae565b61018f6106c6565b61016d6106de565b61016d6106e4565b6101f46106ea565b005b61018f61078c565b61016d61079b565b61016d610825565b6101f46004803603602081101561022457600080fd5b50356001600160a01b031661082b565b6101f46004803603602081101561024a57600080fd5b50356108d7565b61018f6109e6565b6101f46004803603602081101561026f57600080fd5b50356109f5565b61029c6004803603602081101561028c57600080fd5b50356001600160a01b0316610a61565b60408051938452602084019290925282820152519081900360600190f35b6101f4600480360360a08110156102d057600080fd5b5080359060208101359060408101359060608101359060800135610a81565b61016d610b05565b61016d610c2e565b6101f46004803603602081101561031557600080fd5b50356001600160a01b0316610c34565b61016d610d2c565b6001600160a01b038116600090815260026020526040812080544210156103585760009150506104ba565b600061036261079b565b90506000737c32f68811c7de69fb3c26e0ed47b823fbdcf7956001600160a01b0316630483a7f6866040518263ffffffff1660e01b815260040180826001600160a01b0316815260200191505060206040518083038186803b1580156103c757600080fd5b505afa1580156103db573d6000803e3d6000fd5b505050506040513d60208110156103f157600080fd5b50516040805163ca5c7b9160e01b81529051919250600091737c32f68811c7de69fb3c26e0ed47b823fbdcf7959163ca5c7b91916004808301926020929190829003018186803b15801561044457600080fd5b505afa158015610458573d6000803e3d6000fd5b505050506040513d602081101561046e57600080fd5b505160085490915060009061049c908390610496908690610490908990610d32565b90610d32565b90610d94565b9050838111156104b35783955050505050506104ba565b9450505050505b919050565b60085481565b73a17bacf997ca7e4caa15e3e409838b970bebd55f81565b6000806000807321effccb384fc8996d8b1df5d9ba1f9732efaa186001600160a01b0316630902f1ac6040518163ffffffff1660e01b815260040160606040518083038186803b15801561053057600080fd5b505afa158015610544573d6000803e3d6000fd5b505050506040513d606081101561055a57600080fd5b508051602091820151604080516370a0823160e01b815273a17bacf997ca7e4caa15e3e409838b970bebd55f600482015290516001600160701b0393841696509290911693506000927321effccb384fc8996d8b1df5d9ba1f9732efaa18926370a08231926024808201939291829003018186803b1580156105db57600080fd5b505afa1580156105ef573d6000803e3d6000fd5b505050506040513d602081101561060557600080fd5b5051604080516318160ddd60e01b815290519192506000917321effccb384fc8996d8b1df5d9ba1f9732efaa18916318160ddd916004808301926020929190829003018186803b15801561065857600080fd5b505afa15801561066c573d6000803e3d6000fd5b505050506040513d602081101561068257600080fd5b50519050610694816104968685610d32565b6106a2826104968686610d32565b95509550505050509091565b7321effccb384fc8996d8b1df5d9ba1f9732efaa1881565b737c32f68811c7de69fb3c26e0ed47b823fbdcf79581565b60055481565b60065481565b6106f2610dd6565b6000546001600160a01b03908116911614610742576040805162461bcd60e51b81526020600482018190526024820152600080516020611221833981519152604482015290519081900360640190fd5b600080546040516001600160a01b03909116907f8be0079c531659141344cd1fd0a4f28419497f9722a3daafe3b4186f6b6457e0908390a3600080546001600160a01b0319169055565b6000546001600160a01b031690565b600154604080516370a0823160e01b815230600482015290516000926002926001600160a01b03909116916370a0823191602480820192602092909190829003018186803b1580156107ec57600080fd5b505afa158015610800573d6000803e3d6000fd5b505050506040513d602081101561081657600080fd5b50518161081f57fe5b04905090565b60035481565b610833610dd6565b6000546001600160a01b03908116911614610883576040805162461bcd60e51b81526020600482018190526024820152600080516020611221833981519152604482015290519081900360640190fd5b600180546001600160a01b0383166001600160a01b0319909116811790915560408051918252517f65c4b4aa376670ccf3cc922b382f0a2d46dbcfe3a292c736b47e1f213666d25e9181900360200190a150565b60055460408051630241d3fb60e11b81523360048201529051737c32f68811c7de69fb3c26e0ed47b823fbdcf79591630483a7f6916024808301926020929190829003018186803b15801561092b57600080fd5b505afa15801561093f573d6000803e3d6000fd5b505050506040513d602081101561095557600080fd5b505110156109a1576040805162461bcd60e51b81526020600482015260146024820152734e65656420746f206c6f636b205343554c50542160601b604482015290519081900360640190fd5b6109ad81600754610dda565b60408051828152905133917f401d77fee42d0956b84fda240a2c5b12c0fe605ed0e021e1907aaa5bb0ad37ca919081900360200190a250565b6001546001600160a01b031681565b6109fe3361032d565b811115610a52576040805162461bcd60e51b815260206004820152601960248201527f416d6f756e7420657863656564732075736572206c696d697400000000000000604482015290519081900360640190fd5b610a5e81600654610dda565b50565b600260208190526000918252604090912080546001820154919092015483565b610a89610dd6565b6000546001600160a01b03908116911614610ad9576040805162461bcd60e51b81526020600482018190526024820152600080516020611221833981519152604482015290519081900360640190fd5b67016345785d8a0000841015610aee57600080fd5b600894909455600492909255600555600655600755565b6000807321effccb384fc8996d8b1df5d9ba1f9732efaa186001600160a01b03166318160ddd6040518163ffffffff1660e01b815260040160206040518083038186803b158015610b5557600080fd5b505afa158015610b69573d6000803e3d6000fd5b505050506040513d6020811015610b7f57600080fd5b505160408051630240bc6b60e21b815290519192506000917321effccb384fc8996d8b1df5d9ba1f9732efaa1891630902f1ac916004808301926060929190829003018186803b158015610bd257600080fd5b505afa158015610be6573d6000803e3d6000fd5b505050506040513d6060811015610bfc57600080fd5b50516001600160701b03169050610c2760646104968381602d61049088670de0b6b3a7640000610d32565b9250505090565b60075481565b610c3c610dd6565b6000546001600160a01b03908116911614610c8c576040805162461bcd60e51b81526020600482018190526024820152600080516020611221833981519152604482015290519081900360640190fd5b6001600160a01b038116610cd15760405162461bcd60e51b81526004018080602001828103825260268152602001806111da6026913960400191505060405180910390fd5b600080546040516001600160a01b03808516939216917f8be0079c531659141344cd1fd0a4f28419497f9722a3daafe3b4186f6b6457e091a3600080546001600160a01b0319166001600160a01b0392909216919091179055565b60045481565b600082610d4157506000610d8e565b82820282848281610d4e57fe5b0414610d8b5760405162461bcd60e51b81526004018080602001828103825260218152602001806112006021913960400191505060405180910390fd5b90505b92915050565b6000610d8b83836040518060400160405280601a81526020017f536166654d6174683a206469766973696f6e206279207a65726f0000000000008152506110dd565b3390565b336000908152600260205260409020600454831015610e37576040805162461bcd60e51b815260206004820152601460248201527310995b1bddc81b5a5b88189d5e48185b5bdd5b9d60621b604482015290519081900360640190fd5b8054421015610e84576040805162461bcd60e51b8152602060048201526014602482015273436c61696d656420746f6f20726563656e746c7960601b604482015290519081900360640190fd5b6000610ea4670de0b6b3a7640000610496610e9d610b05565b8790610d32565b604080516323b872dd60e01b815233600482015273a17bacf997ca7e4caa15e3e409838b970bebd55f60248201526044810183905290519192507321effccb384fc8996d8b1df5d9ba1f9732efaa18916323b872dd916064808201926020929091908290030181600087803b158015610f1c57600080fd5b505af1158015610f30573d6000803e3d6000fd5b505050506040513d6020811015610f4657600080fd5b50506001546040805163a9059cbb60e01b81523360048201526024810187905290516001600160a01b039092169163a9059cbb916044808201926020929091908290030181600087803b158015610f9c57600080fd5b505af1158015610fb0573d6000803e3d6000fd5b505050506040513d6020811015610fc657600080fd5b50506001546040805163a9059cbb60e01b8152737c32f68811c7de69fb3c26e0ed47b823fbdcf79560048201526024810187905290516001600160a01b039092169163a9059cbb916044808201926020929091908290030181600087803b15801561103057600080fd5b505af1158015611044573d6000803e3d6000fd5b505050506040513d602081101561105a57600080fd5b506110679050428461117f565b82556001808301546110789161117f565b6001830155600282015461108c908561117f565b600283015560035461109e908561117f565b60035560408051858152905133917fd5e10681669a12e566fa5dde10ebec2f2ade55a7f730274c5d5463e8d48fa7d0919081900360200190a250505050565b600081836111695760405162461bcd60e51b81526004018080602001828103825283818151815260200191508051906020019080838360005b8381101561112e578181015183820152602001611116565b50505050905090810190601f16801561115b5780820380516001836020036101000a031916815260200191505b509250505060405180910390fd5b50600083858161117557fe5b0495945050505050565b600082820183811015610d8b576040805162461bcd60e51b815260206004820152601b60248201527f536166654d6174683a206164646974696f6e206f766572666c6f770000000000604482015290519081900360640190fdfe4f776e61626c653a206e6577206f776e657220697320746865207a65726f2061646472657373536166654d6174683a206d756c7469706c69636174696f6e206f766572666c6f774f776e61626c653a2063616c6c6572206973206e6f7420746865206f776e6572a26469706673582212204d2be82fe489f7788dbd39081fac6f10b442ef8ec19bec8911dfc0d08bc23d7d64736f6c63430007060033",
  "linkReferences": {},
  "deployedLinkReferences": {}
}