{
  "_format": "hh-sol-artifact-1",
  "contractName": "ChefIncentivesController",
  "sourceName": "contracts/staking/ChefIncentivesController.sol",
  "abi": [
    {
      "inputs": [
        {
          "internalType": "uint128[]",
          "name": "_startTimeOffset",
          "type": "uint128[]"
        },
        {
          "internalType": "uint128[]",
          "name": "_rewardsPerSecond",
          "type": "uint128[]"
        },
        {
          "internalType": "address",
          "name": "_poolConfigurator",
          "type": "address"
        },
        {
          "internalType": "contract IMultiFeeDistribution",
          "name": "_rewardMinter",
          "type": "address"
        },
        {
          "internalType": "uint256",
          "name": "_maxMintable",
          "type": "uint256"
        }
      ],
      "stateMutability": "nonpayable",
      "type": "constructor"
    },
    {
      "anonymous": false,
      "inputs": [
        {
          "indexed": true,
          "internalType": "address",
          "name": "token",
          "type": "address"
        },
        {
          "indexed": true,
          "internalType": "address",
          "name": "user",
          "type": "address"
        },
        {
          "indexed": false,
          "internalType": "uint256",
          "name": "balance",
          "type": "uint256"
        },
        {
          "indexed": false,
          "internalType": "uint256",
          "name": "totalSupply",
          "type": "uint256"
        }
      ],
      "name": "BalanceUpdated",
      "type": "event"
    },
    {
      "anonymous": false,
      "inputs": [
        {
          "indexed": true,
          "internalType": "address",
          "name": "previousOwner",
          "type": "address"
        },
        {
          "indexed": true,
          "internalType": "address",
          "name": "newOwner",
          "type": "address"
        }
      ],
      "name": "OwnershipTransferred",
      "type": "event"
    },
    {
      "inputs": [
        {
          "internalType": "address",
          "name": "_token",
          "type": "address"
        },
        {
          "internalType": "uint256",
          "name": "_allocPoint",
          "type": "uint256"
        }
      ],
      "name": "addPool",
      "outputs": [],
      "stateMutability": "nonpayable",
      "type": "function"
    },
    {
      "inputs": [
        {
          "internalType": "address[]",
          "name": "_tokens",
          "type": "address[]"
        },
        {
          "internalType": "uint256[]",
          "name": "_allocPoints",
          "type": "uint256[]"
        }
      ],
      "name": "batchUpdateAllocPoint",
      "outputs": [],
      "stateMutability": "nonpayable",
      "type": "function"
    },
    {
      "inputs": [
        {
          "internalType": "address",
          "name": "_user",
          "type": "address"
        },
        {
          "internalType": "address[]",
          "name": "_tokens",
          "type": "address[]"
        }
      ],
      "name": "claim",
      "outputs": [],
      "stateMutability": "nonpayable",
      "type": "function"
    },
    {
      "inputs": [
        {
          "internalType": "address",
          "name": "",
          "type": "address"
        }
      ],
      "name": "claimReceiver",
      "outputs": [
        {
          "internalType": "address",
          "name": "",
          "type": "address"
        }
      ],
      "stateMutability": "view",
      "type": "function"
    },
    {
      "inputs": [
        {
          "internalType": "address",
          "name": "_user",
          "type": "address"
        },
        {
          "internalType": "address[]",
          "name": "_tokens",
          "type": "address[]"
        }
      ],
      "name": "claimableReward",
      "outputs": [
        {
          "internalType": "uint256[]",
          "name": "",
          "type": "uint256[]"
        }
      ],
      "stateMutability": "view",
      "type": "function"
    },
    {
      "inputs": [
        {
          "internalType": "uint256",
          "name": "",
          "type": "uint256"
        }
      ],
      "name": "emissionSchedule",
      "outputs": [
        {
          "internalType": "uint128",
          "name": "startTimeOffset",
          "type": "uint128"
        },
        {
          "internalType": "uint128",
          "name": "rewardsPerSecond",
          "type": "uint128"
        }
      ],
      "stateMutability": "view",
      "type": "function"
    },
    {
      "inputs": [
        {
          "internalType": "address",
          "name": "_user",
          "type": "address"
        },
        {
          "internalType": "uint256",
          "name": "_balance",
          "type": "uint256"
        },
        {
          "internalType": "uint256",
          "name": "_totalSupply",
          "type": "uint256"
        }
      ],
      "name": "handleAction",
      "outputs": [],
      "stateMutability": "nonpayable",
      "type": "function"
    },
    {
      "inputs": [],
      "name": "maxMintableTokens",
      "outputs": [
        {
          "internalType": "uint256",
          "name": "",
          "type": "uint256"
        }
      ],
      "stateMutability": "view",
      "type": "function"
    },
    {
      "inputs": [],
      "name": "mintedTokens",
      "outputs": [
        {
          "internalType": "uint256",
          "name": "",
          "type": "uint256"
        }
      ],
      "stateMutability": "view",
      "type": "function"
    },
    {
      "inputs": [],
      "name": "owner",
      "outputs": [
        {
          "internalType": "address",
          "name": "",
          "type": "address"
        }
      ],
      "stateMutability": "view",
      "type": "function"
    },
    {
      "inputs": [],
      "name": "poolConfigurator",
      "outputs": [
        {
          "internalType": "address",
          "name": "",
          "type": "address"
        }
      ],
      "stateMutability": "view",
      "type": "function"
    },
    {
      "inputs": [
        {
          "internalType": "address",
          "name": "",
          "type": "address"
        }
      ],
      "name": "poolInfo",
      "outputs": [
        {
          "internalType": "uint256",
          "name": "totalSupply",
          "type": "uint256"
        },
        {
          "internalType": "uint256",
          "name": "allocPoint",
          "type": "uint256"
        },
        {
          "internalType": "uint256",
          "name": "lastRewardTime",
          "type": "uint256"
        },
        {
          "internalType": "uint256",
          "name": "accRewardPerShare",
          "type": "uint256"
        },
        {
          "internalType": "contract IOnwardIncentivesController",
          "name": "onwardIncentives",
          "type": "address"
        }
      ],
      "stateMutability": "view",
      "type": "function"
    },
    {
      "inputs": [],
      "name": "poolLength",
      "outputs": [
        {
          "internalType": "uint256",
          "name": "",
          "type": "uint256"
        }
      ],
      "stateMutability": "view",
      "type": "function"
    },
    {
      "inputs": [
        {
          "internalType": "uint256",
          "name": "",
          "type": "uint256"
        }
      ],
      "name": "registeredTokens",
      "outputs": [
        {
          "internalType": "address",
          "name": "",
          "type": "address"
        }
      ],
      "stateMutability": "view",
      "type": "function"
    },
    {
      "inputs": [],
      "name": "renounceOwnership",
      "outputs": [],
      "stateMutability": "nonpayable",
      "type": "function"
    },
    {
      "inputs": [],
      "name": "rewardMinter",
      "outputs": [
        {
          "internalType": "contract IMultiFeeDistribution",
          "name": "",
          "type": "address"
        }
      ],
      "stateMutability": "view",
      "type": "function"
    },
    {
      "inputs": [],
      "name": "rewardsPerSecond",
      "outputs": [
        {
          "internalType": "uint256",
          "name": "",
          "type": "uint256"
        }
      ],
      "stateMutability": "view",
      "type": "function"
    },
    {
      "inputs": [
        {
          "internalType": "address",
          "name": "_user",
          "type": "address"
        },
        {
          "internalType": "address",
          "name": "_receiver",
          "type": "address"
        }
      ],
      "name": "setClaimReceiver",
      "outputs": [],
      "stateMutability": "nonpayable",
      "type": "function"
    },
    {
      "inputs": [
        {
          "internalType": "address",
          "name": "_token",
          "type": "address"
        },
        {
          "internalType": "contract IOnwardIncentivesController",
          "name": "_incentives",
          "type": "address"
        }
      ],
      "name": "setOnwardIncentives",
      "outputs": [],
      "stateMutability": "nonpayable",
      "type": "function"
    },
    {
      "inputs": [],
      "name": "start",
      "outputs": [],
      "stateMutability": "nonpayable",
      "type": "function"
    },
    {
      "inputs": [],
      "name": "startTime",
      "outputs": [
        {
          "internalType": "uint256",
          "name": "",
          "type": "uint256"
        }
      ],
      "stateMutability": "view",
      "type": "function"
    },
    {
      "inputs": [],
      "name": "totalAllocPoint",
      "outputs": [
        {
          "internalType": "uint256",
          "name": "",
          "type": "uint256"
        }
      ],
      "stateMutability": "view",
      "type": "function"
    },
    {
      "inputs": [
        {
          "internalType": "address",
          "name": "newOwner",
          "type": "address"
        }
      ],
      "name": "transferOwnership",
      "outputs": [],
      "stateMutability": "nonpayable",
      "type": "function"
    },
    {
      "inputs": [
        {
          "internalType": "address",
          "name": "",
          "type": "address"
        },
        {
          "internalType": "address",
          "name": "",
          "type": "address"
        }
      ],
      "name": "userInfo",
      "outputs": [
        {
          "internalType": "uint256",
          "name": "amount",
          "type": "uint256"
        },
        {
          "internalType": "uint256",
          "name": "rewardDebt",
          "type": "uint256"
        }
      ],
      "stateMutability": "view",
      "type": "function"
    }
  ],
  "bytecode": "0x60a060405260006009553480156200001657600080fd5b50604051620019b5380380620019b5833981810160405260a08110156200003c57600080fd5b81019080805160405193929190846401000000008211156200005d57600080fd5b9083019060208201858111156200007357600080fd5b82518660208202830111640100000000821117156200009157600080fd5b82525081516020918201928201910280838360005b83811015620000c0578181015183820152602001620000a6565b5050505090500160405260200180516040519392919084640100000000821115620000ea57600080fd5b9083019060208201858111156200010057600080fd5b82518660208202830111640100000000821117156200011e57600080fd5b82525081516020918201928201910280838360005b838110156200014d57818101518382015260200162000133565b50505050919091016040908152602083015190830151606090930151909450919250600090506200017d620002b8565b600080546001600160a01b0319166001600160a01b0383169081178255604051929350917f8be0079c531659141344cd1fd0a4f28419497f9722a3daafe3b4186f6b6457e0908290a350600180546001600160a01b038086166001600160a01b0319928316179092556002805492851692909116919091179055845160001981015b6001810115620002a857600760405180604001604052808984815181106200022357fe5b60200260200101516001600160801b031681526020018884815181106200024657fe5b6020908102919091018101516001600160801b03908116909252835460018101855560009485529381902083519401805493909101518216600160801b029382166001600160801b0319909316929092171691909117905560001901620001ff565b505060805250620002bc92505050565b3390565b6080516116d4620002e160003980610631528061138c52806113c052506116d46000f3fe608060405234801561001057600080fd5b50600436106101585760003560e01c80638da5cb5b116100c3578063cd1a4d861161007c578063cd1a4d86146104a7578063de7e410c146104d5578063e20c5a8a146104dd578063e5b5349814610503578063eacdaabc146105d1578063f2fde38b146105d957610158565b80638da5cb5b1461037e5780638e2eba09146103a25780639a0ba2ea146104205780639a7b5f111461043d5780639b8e556314610497578063be9a65551461049f57610158565b80633328756411610115578063332875641461022e578063334d0bbd1461025c57806334c54230146102a8578063715018a61461036657806378e979251461036e5780638d75fe051461037657610158565b8063081e3eda1461015d5780630f208beb1461017757806317caf6f1146101be5780631a848e01146101c657806331873e2e146101ce57806332a9caba14610202575b600080fd5b6101656105ff565b60408051918252519081900360200190f35b6101a56004803603604081101561018d57600080fd5b506001600160a01b0381358116916020013516610605565b6040805192835260208301919091528051918290030190f35b610165610629565b61016561062f565b610200600480360360608110156101e457600080fd5b506001600160a01b038135169060208101359060400135610653565b005b6102006004803603604081101561021857600080fd5b506001600160a01b0381351690602001356107fc565b6102006004803603604081101561024457600080fd5b506001600160a01b0381358116916020013516610903565b6102796004803603602081101561027257600080fd5b5035610969565b60405180836001600160801b03168152602001826001600160801b031681526020019250505060405180910390f35b610200600480360360408110156102be57600080fd5b810190602081018135600160201b8111156102d857600080fd5b8201836020820111156102ea57600080fd5b803590602001918460208302840111600160201b8311171561030b57600080fd5b919390929091602081019035600160201b81111561032857600080fd5b82018360208201111561033a57600080fd5b803590602001918460208302840111600160201b8311171561035b57600080fd5b50909250905061099e565b610200610acd565b610165610b6f565b610165610b75565b610386610b7b565b604080516001600160a01b039092168252519081900360200190f35b610200600480360360408110156103b857600080fd5b6001600160a01b038235169190810190604081016020820135600160201b8111156103e257600080fd5b8201836020820111156103f457600080fd5b803590602001918460208302840111600160201b8311171561041557600080fd5b509092509050610b8a565b6103866004803603602081101561043657600080fd5b5035610d02565b6104636004803603602081101561045357600080fd5b50356001600160a01b0316610d2c565b6040805195865260208601949094528484019290925260608401526001600160a01b03166080830152519081900360a00190f35b610386610d64565b610200610d73565b610200600480360360408110156104bd57600080fd5b506001600160a01b0381358116916020013516610dde565b610386610e8c565b610386600480360360208110156104f357600080fd5b50356001600160a01b0316610e9b565b6105816004803603604081101561051957600080fd5b6001600160a01b038235169190810190604081016020820135600160201b81111561054357600080fd5b82018360208201111561055557600080fd5b803590602001918460208302840111600160201b8311171561057657600080fd5b509092509050610eb6565b60408051602080825283518183015283519192839290830191858101910280838360005b838110156105bd5781810151838201526020016105a5565b505050509050019250505060405180910390f35b610165611035565b610200600480360360208110156105ef57600080fd5b50356001600160a01b031661103b565b60055490565b60086020908152600092835260408084209091529082529020805460019091015482565b60095481565b7f000000000000000000000000000000000000000000000000000000000000000081565b336000908152600660205260409020600281015461067057600080fd5b610678611133565b610684336009546111ed565b3360009081526008602090815260408083206001600160a01b038816845290915290208054156106f65760006106e882600101546106e264e8d4a510006106dc876003015487600001546112a190919063ffffffff16565b90611303565b90611345565b90506106f48682611387565b505b83815560038201546107149064e8d4a51000906106dc9087906112a1565b600182015582825560048201546001600160a01b0316156107ad576004808301546040805163ae0b537160e01b815233938101939093526001600160a01b0388811660248501526044840188905260648401879052905191169163ae0b537191608480830192600092919082900301818387803b15801561079457600080fd5b505af11580156107a8573d6000803e3d6000fd5b505050505b604080518581526020810185905281516001600160a01b0388169233927f526824944047da5b81071fb6349412005c5da81380b336103fbe5dd34556c776929081900390910190a35050505050565b6001546001600160a01b0316331461081357600080fd5b6001600160a01b0382166000908152600660205260409020600201541561083957600080fd5b610841611133565b60095461084e9082611499565b6009556005805460018181019092557f036b6384b5eca791c62761152d0c79bb0604c104a5fb6f4eb0703f3154bb3db00180546001600160a01b039485166001600160a01b031991821681179092556040805160a081018252600080825260208281019788524283850190815260608401838152608085018481529784526006909252939091209151825595519481019490945551600284015592516003830155516004919091018054919093169116179055565b336001600160a01b0383161480610932575061091d610b7b565b6001600160a01b0316336001600160a01b0316145b61093b57600080fd5b6001600160a01b039182166000908152600b6020526040902080546001600160a01b03191691909216179055565b6007818154811061097957600080fd5b6000918252602090912001546001600160801b038082169250600160801b9091041682565b6109a66114f3565b6000546001600160a01b039081169116146109f6576040805162461bcd60e51b8152602060048201819052602482015260008051602061167f833981519152604482015290519081900360640190fd5b828114610a0257600080fd5b610a0a6114f7565b60095460005b84811015610ac357600060066000888885818110610a2a57fe5b905060200201356001600160a01b03166001600160a01b03166001600160a01b0316815260200190815260200160002090506000816002015411610a6d57600080fd5b610aa0858584818110610a7c57fe5b90506020020135610a9a83600101548661134590919063ffffffff16565b90611499565b9250848483818110610aae57fe5b60200291909101356001928301555001610a10565b5060095550505050565b610ad56114f3565b6000546001600160a01b03908116911614610b25576040805162461bcd60e51b8152602060048201819052602482015260008051602061167f833981519152604482015290519081900360640190fd5b600080546040516001600160a01b03909116907f8be0079c531659141344cd1fd0a4f28419497f9722a3daafe3b4186f6b6457e0908390a3600080546001600160a01b0319169055565b600a5481565b60045481565b6000546001600160a01b031690565b610b92611133565b600954600090815b83811015610cf057600060066000878785818110610bb457fe5b905060200201356001600160a01b03166001600160a01b03166001600160a01b0316815260200190815260200160002090506000816002015411610bf757600080fd5b610c1c868684818110610c0657fe5b905060200201356001600160a01b0316846111ed565b600060086000888886818110610c2e57fe5b905060200201356001600160a01b03166001600160a01b03166001600160a01b031681526020019081526020016000206000896001600160a01b03166001600160a01b031681526020019081526020016000209050610cb9610cb282600101546106e264e8d4a510006106dc876003015487600001546112a190919063ffffffff16565b8690611499565b9450610cdf64e8d4a510006106dc846003015484600001546112a190919063ffffffff16565b600191820155919091019050610b9a565b50610cfb8583611387565b5050505050565b60058181548110610d1257600080fd5b6000918252602090912001546001600160a01b0316905081565b60066020526000908152604090208054600182015460028301546003840154600490940154929391929091906001600160a01b031685565b6002546001600160a01b031681565b610d7b6114f3565b6000546001600160a01b03908116911614610dcb576040805162461bcd60e51b8152602060048201819052602482015260008051602061167f833981519152604482015290519081900360640190fd5b600a5415610dd857600080fd5b42600a55565b610de66114f3565b6000546001600160a01b03908116911614610e36576040805162461bcd60e51b8152602060048201819052602482015260008051602061167f833981519152604482015290519081900360640190fd5b6001600160a01b038216600090815260066020526040902060020154610e5b57600080fd5b6001600160a01b03918216600090815260066020526040902060040180546001600160a01b03191691909216179055565b6001546001600160a01b031681565b600b602052600090815260409020546001600160a01b031681565b606060008267ffffffffffffffff81118015610ed157600080fd5b50604051908082528060200260200182016040528015610efb578160200160208202803683370190505b50905060005b8381101561102c576000858583818110610f1757fe5b6001600160a01b03602091820293909301358316600081815260068352604080822060088552818320968e16835295909352919091206003840154845460028601549396509193509142118015610f6d57508015155b15610fdc576000610f8b85600201544261134590919063ffffffff16565b90506000610fb86009546106dc8860010154610fb2600354876112a190919063ffffffff16565b906112a1565b9050610fd7610fd0846106dc8464e8d4a510006112a1565b8590611499565b935050505b61100483600101546106e264e8d4a510006106dc8688600001546112a190919063ffffffff16565b87878151811061101057fe5b6020908102919091010152505060019093019250610f01915050565b50949350505050565b60035481565b6110436114f3565b6000546001600160a01b03908116911614611093576040805162461bcd60e51b8152602060048201819052602482015260008051602061167f833981519152604482015290519081900360640190fd5b6001600160a01b0381166110d85760405162461bcd60e51b81526004018080602001828103825260268152602001806116386026913960400191505060405180910390fd5b600080546040516001600160a01b03808516939216917f8be0079c531659141344cd1fd0a4f28419497f9722a3daafe3b4186f6b6457e091a3600080546001600160a01b0319166001600160a01b0392909216919091179055565b600754600a54158015906111475750600081115b156111ea5760006007600183038154811061115e57fe5b6000918252602091829020604080518082019091529101546001600160801b03808216808452600160801b9092041692820192909252600a549092506111a5904290611345565b11156111e8576111b36114f7565b60208101516001600160801b031660035560078054806111cf57fe5b6000828152602081208201600019908101919091550190555b505b50565b6001600160a01b03821660009081526006602052604090206002810154421161121657506111e8565b80548061122a5750426002909101556111e8565b600061124383600201544261134590919063ffffffff16565b90506000611268856106dc8660010154610fb2600354876112a190919063ffffffff16565b905061128b611280846106dc8464e8d4a510006112a1565b600386015490611499565b6003850155505042600290920191909155505050565b6000826112b0575060006112fd565b828202828482816112bd57fe5b04146112fa5760405162461bcd60e51b815260040180806020018281038252602181526020018061165e6021913960400191505060405180910390fd5b90505b92915050565b60006112fa83836040518060400160405280601a81526020017f536166654d6174683a206469766973696f6e206279207a65726f00000000000081525061153b565b60006112fa83836040518060400160405280601e81526020017f536166654d6174683a207375627472616374696f6e206f766572666c6f7700008152506115dd565b6004547f00000000000000000000000000000000000000000000000000000000000000006113b58284611499565b11156113e8576113e57f000000000000000000000000000000000000000000000000000000000000000082611345565b91505b8115611494576113f88183611499565b6004556001600160a01b038084166000908152600b6020526040902054168061141e5750825b600254604080516334686fad60e21b81526001600160a01b03848116600483015260248201879052600160448301529151919092169163d1a1beb491606480830192600092919082900301818387803b15801561147a57600080fd5b505af115801561148e573d6000803e3d6000fd5b50505050505b505050565b6000828201838110156112fa576040805162461bcd60e51b815260206004820152601b60248201527f536166654d6174683a206164646974696f6e206f766572666c6f770000000000604482015290519081900360640190fd5b3390565b60095460055460005b81811015611494576115336005828154811061151857fe5b6000918252602090912001546001600160a01b0316846111ed565b600101611500565b600081836115c75760405162461bcd60e51b81526004018080602001828103825283818151815260200191508051906020019080838360005b8381101561158c578181015183820152602001611574565b50505050905090810190601f1680156115b95780820380516001836020036101000a031916815260200191505b509250505060405180910390fd5b5060008385816115d357fe5b0495945050505050565b6000818484111561162f5760405162461bcd60e51b815260206004820181815283516024840152835190928392604490910191908501908083836000831561158c578181015183820152602001611574565b50505090039056fe4f776e61626c653a206e6577206f776e657220697320746865207a65726f2061646472657373536166654d6174683a206d756c7469706c69636174696f6e206f766572666c6f774f776e61626c653a2063616c6c6572206973206e6f7420746865206f776e6572a26469706673582212209477ce07299b63b6148596a99fcb8b61aed17eee8a00b543c44d12834f13f77c64736f6c63430007060033",
  "linkReferences": {},
  "deployedLinkReferences": {}
}