{
  "_format": "hh-sol-artifact-1",
  "contractName": "UiDataCalcutor",
  "sourceName": "contracts/misc/UiDataCalcutor.sol",
  "abi": [
    {
      "inputs": [
        {
          "internalType": "contract IPriceOracleGetter",
          "name": "_oracle",
          "type": "address"
        }
      ],
      "stateMutability": "nonpayable",
      "type": "constructor"
    },
    {
      "inputs": [
        {
          "internalType": "contract ILendingPoolAddressesProvider",
          "name": "provider",
          "type": "address"
        },
        {
          "internalType": "address",
          "name": "asset",
          "type": "address"
        }
      ],
      "name": "calculateApr",
      "outputs": [
        {
          "internalType": "uint256",
          "name": "",
          "type": "uint256"
        },
        {
          "internalType": "uint256",
          "name": "",
          "type": "uint256"
        }
      ],
      "stateMutability": "view",
      "type": "function"
    },
    {
      "inputs": [
        {
          "internalType": "contract ILendingPoolAddressesProvider",
          "name": "provider",
          "type": "address"
        },
        {
          "internalType": "address",
          "name": "incentiveController",
          "type": "address"
        },
        {
          "internalType": "address",
          "name": "asset",
          "type": "address"
        },
        {
          "internalType": "address",
          "name": "pair",
          "type": "address"
        }
      ],
      "name": "calculateAprIncentive",
      "outputs": [
        {
          "internalType": "uint256",
          "name": "",
          "type": "uint256"
        },
        {
          "internalType": "uint256",
          "name": "",
          "type": "uint256"
        }
      ],
      "stateMutability": "view",
      "type": "function"
    },
    {
      "inputs": [
        {
          "internalType": "contract ILendingPoolAddressesProvider",
          "name": "provider",
          "type": "address"
        },
        {
          "internalType": "address",
          "name": "asset",
          "type": "address"
        }
      ],
      "name": "getReservesData",
      "outputs": [
        {
          "components": [
            {
              "components": [
                {
                  "internalType": "uint256",
                  "name": "data",
                  "type": "uint256"
                }
              ],
              "internalType": "struct DataTypes.ReserveConfigurationMap",
              "name": "configuration",
              "type": "tuple"
            },
            {
              "internalType": "uint128",
              "name": "liquidityIndex",
              "type": "uint128"
            },
            {
              "internalType": "uint128",
              "name": "variableBorrowIndex",
              "type": "uint128"
            },
            {
              "internalType": "uint128",
              "name": "currentLiquidityRate",
              "type": "uint128"
            },
            {
              "internalType": "uint128",
              "name": "currentVariableBorrowRate",
              "type": "uint128"
            },
            {
              "internalType": "uint128",
              "name": "currentStableBorrowRate",
              "type": "uint128"
            },
            {
              "internalType": "uint40",
              "name": "lastUpdateTimestamp",
              "type": "uint40"
            },
            {
              "internalType": "address",
              "name": "aTokenAddress",
              "type": "address"
            },
            {
              "internalType": "address",
              "name": "stableDebtTokenAddress",
              "type": "address"
            },
            {
              "internalType": "address",
              "name": "variableDebtTokenAddress",
              "type": "address"
            },
            {
              "internalType": "address",
              "name": "interestRateStrategyAddress",
              "type": "address"
            },
            {
              "internalType": "uint8",
              "name": "id",
              "type": "uint8"
            }
          ],
          "internalType": "struct DataTypes.ReserveData",
          "name": "",
          "type": "tuple"
        }
      ],
      "stateMutability": "view",
      "type": "function"
    },
    {
      "inputs": [
        {
          "internalType": "contract ILendingPoolAddressesProvider",
          "name": "provider",
          "type": "address"
        }
      ],
      "name": "getReservesList",
      "outputs": [
        {
          "internalType": "address[]",
          "name": "",
          "type": "address[]"
        }
      ],
      "stateMutability": "view",
      "type": "function"
    },
    {
      "inputs": [],
      "name": "oracle",
      "outputs": [
        {
          "internalType": "contract IPriceOracleGetter",
          "name": "",
          "type": "address"
        }
      ],
      "stateMutability": "view",
      "type": "function"
    },
    {
      "inputs": [
        {
          "internalType": "address",
          "name": "pair",
          "type": "address"
        }
      ],
      "name": "rewardPrice",
      "outputs": [
        {
          "internalType": "uint256",
          "name": "",
          "type": "uint256"
        }
      ],
      "stateMutability": "view",
      "type": "function"
    }
  ],
  "bytecode": "0x60a060405234801561001057600080fd5b506040516113ab3803806113ab83398101604081905261002f91610044565b60601b6001600160601b031916608052610072565b600060208284031215610055578081fd5b81516001600160a01b038116811461006b578182fd5b9392505050565b60805160601c61131261009960003980610310528061078e5280610b6252506113126000f3fe608060405234801561001057600080fd5b50600436106100625760003560e01c8063586c1442146100675780636ef01779146100905780637dc0d1d0146100b157806387e40db7146100c6578063d03fc594146100e6578063eb9afaed146100f9575b600080fd5b61007a610075366004610dd0565b610119565b6040516100879190611149565b60405180910390f35b6100a361009e366004610eed565b61020e565b604051610087929190611292565b6100b961078c565b6040516100879190611135565b6100d96100d4366004610eb5565b6107b0565b6040516100879190611196565b6100a36100f4366004610eb5565b6108b5565b61010c610107366004610dd0565b610a09565b6040516100879190611289565b60606000826001600160a01b0316630261bf8b6040518163ffffffff1660e01b815260040160206040518083038186803b15801561015657600080fd5b505afa15801561016a573d6000803e3d6000fd5b505050506040513d601f19601f8201168201806040525081019061018e9190610dec565b9050806001600160a01b031663d1946dbc6040518163ffffffff1660e01b815260040160006040518083038186803b1580156101c957600080fd5b505afa1580156101dd573d6000803e3d6000fd5b505050506040513d6000823e601f3d908101601f191682016040526102059190810190610e08565b9150505b919050565b60008060008590506000876001600160a01b0316630261bf8b6040518163ffffffff1660e01b815260040160206040518083038186803b15801561025157600080fd5b505afa158015610265573d6000803e3d6000fd5b505050506040513d601f19601f820116820180604052508101906102899190610dec565b90506000816001600160a01b03166335ea6a75886040518263ffffffff1660e01b81526004016102b99190611135565b6101806040518083038186803b1580156102d257600080fd5b505afa1580156102e6573d6000803e3d6000fd5b505050506040513d601f19601f8201168201806040525081019061030a9190610f48565b905060007f00000000000000000000000000000000000000000000000000000000000000006001600160a01b031663b3596f07896040518263ffffffff1660e01b815260040161035a9190611135565b60206040518083038186803b15801561037257600080fd5b505afa158015610386573d6000803e3d6000fd5b505050506040513d601f19601f820116820180604052508101906103aa9190611086565b905060006103b788610a1a565b90506000856001600160a01b031663eacdaabc6040518163ffffffff1660e01b815260040160206040518083038186803b1580156103f457600080fd5b505afa158015610408573d6000803e3d6000fd5b505050506040513d601f19601f8201168201806040525081019061042c9190611086565b61012085015160e0860151604051639a7b5f1160e01b8152929350909160009081906001600160a01b038b1690639a7b5f119061046d908790600401611135565b60a06040518083038186803b15801561048557600080fd5b505afa158015610499573d6000803e3d6000fd5b505050506040513d601f19601f820116820180604052508101906104bd919061109e565b505050915091506000808b6001600160a01b0316639a7b5f11866040518263ffffffff1660e01b81526004016104f39190611135565b60a06040518083038186803b15801561050b57600080fd5b505afa15801561051f573d6000803e3d6000fd5b505050506040513d601f19601f82011682018060405250810190610543919061109e565b50505091509150600061065b876001600160a01b031663313ce5676040518163ffffffff1660e01b815260040160206040518083038186803b15801561058857600080fd5b505afa15801561059c573d6000803e3d6000fd5b505050506040513d601f19601f820116820180604052508101906105c091906110ea565b60ff16600a0a8b8702816105d057fe5b048e6001600160a01b03166317caf6f16040518163ffffffff1660e01b815260040160206040518083038186803b15801561060a57600080fd5b505afa15801561061e573d6000803e3d6000fd5b505050506040513d601f19601f820116820180604052508101906106429190611086565b8b876301e133808d0202028161065457fe5b0490610a5d565b90506000610767886001600160a01b031663313ce5676040518163ffffffff1660e01b815260040160206040518083038186803b15801561069b57600080fd5b505afa1580156106af573d6000803e3d6000fd5b505050506040513d601f19601f820116820180604052508101906106d391906110ea565b60ff16600a0a8c8602816106e357fe5b048f6001600160a01b03166317caf6f16040518163ffffffff1660e01b815260040160206040518083038186803b15801561071d57600080fd5b505afa158015610731573d6000803e3d6000fd5b505050506040513d601f19601f820116820180604052508101906107559190611086565b8c866301e133808e0202028161065457fe5b905080606402826064029f509f50505050505050505050505050505094509492505050565b7f000000000000000000000000000000000000000000000000000000000000000081565b6107b8610cb8565b6000836001600160a01b0316630261bf8b6040518163ffffffff1660e01b815260040160206040518083038186803b1580156107f357600080fd5b505afa158015610807573d6000803e3d6000fd5b505050506040513d601f19601f8201168201806040525081019061082b9190610dec565b90506000816001600160a01b03166335ea6a75856040518263ffffffff1660e01b815260040161085b9190611135565b6101806040518083038186803b15801561087457600080fd5b505afa158015610888573d6000803e3d6000fd5b505050506040513d601f19601f820116820180604052508101906108ac9190610f48565b95945050505050565b6000806000846001600160a01b0316630261bf8b6040518163ffffffff1660e01b815260040160206040518083038186803b1580156108f357600080fd5b505afa158015610907573d6000803e3d6000fd5b505050506040513d601f19601f8201168201806040525081019061092b9190610dec565b90506000816001600160a01b03166335ea6a75866040518263ffffffff1660e01b815260040161095b9190611135565b6101806040518083038186803b15801561097457600080fd5b505afa158015610988573d6000803e3d6000fd5b505050506040513d601f19601f820116820180604052508101906109ac9190610f48565b905060006298968082606001516001600160801b0316816109c957fe5b046001600160801b0316905060006298968083608001516001600160801b0316816109f057fe5b929992046001600160801b031697509095505050505050565b6000610a1482610a1a565b92915050565b600080610a2f83670de0b6b3a7640000610aa6565b905060006ec097ce7bc90715b34b9f1000000000610a4b610b5d565b830281610a5457fe5b04949350505050565b6000610a9f83836040518060400160405280601a81526020017f536166654d6174683a206469766973696f6e206279207a65726f000000000000815250610c16565b9392505050565b600080839050600080826001600160a01b0316630902f1ac6040518163ffffffff1660e01b815260040160606040518083038186803b158015610ae857600080fd5b505afa158015610afc573d6000803e3d6000fd5b505050506040513d601f19601f82011682018060405250810190610b209190611038565b506001600160701b031691506001600160701b03169150600082670de0b6b3a76400000290508181870281610b5157fe5b04979650505050505050565b6000807f00000000000000000000000000000000000000000000000000000000000000006001600160a01b031663b3596f077321be370d5312f44cb42ce377bc9b8a0cef1a4c836040518263ffffffff1660e01b8152600401610bc09190611135565b60206040518083038186803b158015610bd857600080fd5b505afa158015610bec573d6000803e3d6000fd5b505050506040513d601f19601f82011682018060405250810190610c109190611086565b91505090565b60008183610ca25760405162461bcd60e51b81526004018080602001828103825283818151815260200191508051906020019080838360005b83811015610c67578181015183820152602001610c4f565b50505050905090810190601f168015610c945780820380516001836020036101000a031916815260200191505b509250505060405180910390fd5b506000838581610cae57fe5b0495945050505050565b604051806101800160405280610ccc610d23565b815260006020820181905260408201819052606082018190526080820181905260a0820181905260c0820181905260e082018190526101008201819052610120820181905261014082018190526101609091015290565b6040518060200160405280600081525090565b8051610209816112c4565b600060208284031215610d52578081fd5b6040516020810181811067ffffffffffffffff82111715610d6f57fe5b6040529151825250919050565b80516001600160701b038116811461020957600080fd5b80516001600160801b038116811461020957600080fd5b805164ffffffffff8116811461020957600080fd5b805160ff8116811461020957600080fd5b600060208284031215610de1578081fd5b8135610a9f816112c4565b600060208284031215610dfd578081fd5b8151610a9f816112c4565b60006020808385031215610e1a578182fd5b825167ffffffffffffffff80821115610e31578384fd5b818501915085601f830112610e44578384fd5b815181811115610e5057fe5b8381029150610e608483016112a0565b8181528481019084860184860187018a1015610e7a578788fd5b8795505b83861015610ea85780519450610e93856112c4565b84835260019590950194918601918601610e7e565b5098975050505050505050565b60008060408385031215610ec7578081fd5b8235610ed2816112c4565b91506020830135610ee2816112c4565b809150509250929050565b60008060008060808587031215610f02578182fd5b8435610f0d816112c4565b93506020850135610f1d816112c4565b92506040850135610f2d816112c4565b91506060850135610f3d816112c4565b939692955090935050565b6000610180808385031215610f5b578182fd5b610f64816112a0565b9050610f708484610d41565b8152610f7e60208401610d93565b6020820152610f8f60408401610d93565b6040820152610fa060608401610d93565b6060820152610fb160808401610d93565b6080820152610fc260a08401610d93565b60a0820152610fd360c08401610daa565b60c0820152610fe460e08401610d36565b60e0820152610100610ff7818501610d36565b90820152610120611009848201610d36565b9082015261014061101b848201610d36565b9082015261016061102d848201610dbf565b908201529392505050565b60008060006060848603121561104c578283fd5b61105584610d7c565b925061106360208501610d7c565b9150604084015163ffffffff8116811461107b578182fd5b809150509250925092565b600060208284031215611097578081fd5b5051919050565b600080600080600060a086880312156110b5578081fd5b8551945060208601519350604086015192506060860151915060808601516110dc816112c4565b809150509295509295909350565b6000602082840312156110fb578081fd5b610a9f82610dbf565b6001600160a01b03169052565b519052565b6001600160801b03169052565b64ffffffffff169052565b60ff169052565b6001600160a01b0391909116815260200190565b6020808252825182820181905260009190848201906040850190845b8181101561118a5783516001600160a01b031683529284019291840191600101611165565b50909695505050505050565b6000610180820190506111aa828451611111565b60208301516111bc6020840182611116565b5060408301516111cf6040840182611116565b5060608301516111e26060840182611116565b5060808301516111f56080840182611116565b5060a083015161120860a0840182611116565b5060c083015161121b60c0840182611123565b5060e083015161122e60e0840182611104565b506101008084015161124282850182611104565b50506101208084015161125782850182611104565b50506101408084015161126c82850182611104565b5050610160808401516112818285018261112e565b505092915050565b90815260200190565b918252602082015260400190565b60405181810167ffffffffffffffff811182821017156112bc57fe5b604052919050565b6001600160a01b03811681146112d957600080fd5b5056fea26469706673582212200d3ae897795411f74f69042f1948bbe310e485aaaeba7a977116a097671c7bcd64736f6c63430007060033",
  "linkReferences": {},
  "deployedLinkReferences": {}
}