{
  "_format": "hh-sol-artifact-1",
  "contractName": "UiPoolDataProvider",
  "sourceName": "contracts/misc/UiPoolDataProvider.sol",
  "abi": [
    {
      "inputs": [
        {
          "internalType": "contract IAaveIncentivesController",
          "name": "_incentivesController",
          "type": "address"
        },
        {
          "internalType": "contract IPriceOracleGetter",
          "name": "_oracle",
          "type": "address"
        }
      ],
      "stateMutability": "nonpayable",
      "type": "constructor"
    },
    {
      "inputs": [
        {
          "internalType": "contract ILendingPoolAddressesProvider",
          "name": "provider",
          "type": "address"
        }
      ],
      "name": "getReservesData",
      "outputs": [
        {
          "components": [
            {
              "internalType": "address",
              "name": "underlyingAsset",
              "type": "address"
            },
            {
              "internalType": "string",
              "name": "name",
              "type": "string"
            },
            {
              "internalType": "string",
              "name": "symbol",
              "type": "string"
            },
            {
              "internalType": "uint256",
              "name": "decimals",
              "type": "uint256"
            },
            {
              "internalType": "uint256",
              "name": "baseLTVasCollateral",
              "type": "uint256"
            },
            {
              "internalType": "uint256",
              "name": "reserveLiquidationThreshold",
              "type": "uint256"
            },
            {
              "internalType": "uint256",
              "name": "reserveLiquidationBonus",
              "type": "uint256"
            },
            {
              "internalType": "uint256",
              "name": "reserveFactor",
              "type": "uint256"
            },
            {
              "internalType": "bool",
              "name": "usageAsCollateralEnabled",
              "type": "bool"
            },
            {
              "internalType": "bool",
              "name": "borrowingEnabled",
              "type": "bool"
            },
            {
              "internalType": "bool",
              "name": "stableBorrowRateEnabled",
              "type": "bool"
            },
            {
              "internalType": "bool",
              "name": "isActive",
              "type": "bool"
            },
            {
              "internalType": "bool",
              "name": "isFrozen",
              "type": "bool"
            },
            {
              "internalType": "uint128",
              "name": "liquidityIndex",
              "type": "uint128"
            },
            {
              "internalType": "uint128",
              "name": "variableBorrowIndex",
              "type": "uint128"
            },
            {
              "internalType": "uint128",
              "name": "liquidityRate",
              "type": "uint128"
            },
            {
              "internalType": "uint128",
              "name": "variableBorrowRate",
              "type": "uint128"
            },
            {
              "internalType": "uint128",
              "name": "stableBorrowRate",
              "type": "uint128"
            },
            {
              "internalType": "uint40",
              "name": "lastUpdateTimestamp",
              "type": "uint40"
            },
            {
              "internalType": "address",
              "name": "aTokenAddress",
              "type": "address"
            },
            {
              "internalType": "address",
              "name": "stableDebtTokenAddress",
              "type": "address"
            },
            {
              "internalType": "address",
              "name": "variableDebtTokenAddress",
              "type": "address"
            },
            {
              "internalType": "address",
              "name": "interestRateStrategyAddress",
              "type": "address"
            },
            {
              "internalType": "uint256",
              "name": "availableLiquidity",
              "type": "uint256"
            },
            {
              "internalType": "uint256",
              "name": "totalPrincipalStableDebt",
              "type": "uint256"
            },
            {
              "internalType": "uint256",
              "name": "averageStableRate",
              "type": "uint256"
            },
            {
              "internalType": "uint256",
              "name": "stableDebtLastUpdateTimestamp",
              "type": "uint256"
            },
            {
              "internalType": "uint256",
              "name": "totalScaledVariableDebt",
              "type": "uint256"
            },
            {
              "internalType": "uint256",
              "name": "priceInEth",
              "type": "uint256"
            },
            {
              "internalType": "uint256",
              "name": "variableRateSlope1",
              "type": "uint256"
            },
            {
              "internalType": "uint256",
              "name": "variableRateSlope2",
              "type": "uint256"
            },
            {
              "internalType": "uint256",
              "name": "stableRateSlope1",
              "type": "uint256"
            },
            {
              "internalType": "uint256",
              "name": "stableRateSlope2",
              "type": "uint256"
            },
            {
              "internalType": "uint256",
              "name": "aEmissionPerSecond",
              "type": "uint256"
            },
            {
              "internalType": "uint256",
              "name": "vEmissionPerSecond",
              "type": "uint256"
            },
            {
              "internalType": "uint256",
              "name": "sEmissionPerSecond",
              "type": "uint256"
            },
            {
              "internalType": "uint256",
              "name": "aIncentivesLastUpdateTimestamp",
              "type": "uint256"
            },
            {
              "internalType": "uint256",
              "name": "vIncentivesLastUpdateTimestamp",
              "type": "uint256"
            },
            {
              "internalType": "uint256",
              "name": "sIncentivesLastUpdateTimestamp",
              "type": "uint256"
            },
            {
              "internalType": "uint256",
              "name": "aTokenIncentivesIndex",
              "type": "uint256"
            },
            {
              "internalType": "uint256",
              "name": "vTokenIncentivesIndex",
              "type": "uint256"
            },
            {
              "internalType": "uint256",
              "name": "sTokenIncentivesIndex",
              "type": "uint256"
            }
          ],
          "internalType": "struct IUiPoolDataProvider.AggregatedReserveData[]",
          "name": "",
          "type": "tuple[]"
        }
      ],
      "stateMutability": "view",
      "type": "function"
    },
    {
      "inputs": [
        {
          "internalType": "contract ILendingPoolAddressesProvider",
          "name": "provider",
          "type": "address"
        }
      ],
      "name": "getReservesList",
      "outputs": [
        {
          "internalType": "address[]",
          "name": "",
          "type": "address[]"
        }
      ],
      "stateMutability": "view",
      "type": "function"
    },
    {
      "inputs": [
        {
          "internalType": "contract ILendingPoolAddressesProvider",
          "name": "provider",
          "type": "address"
        },
        {
          "internalType": "address",
          "name": "user",
          "type": "address"
        }
      ],
      "name": "getUserReservesData",
      "outputs": [
        {
          "components": [
            {
              "internalType": "address",
              "name": "underlyingAsset",
              "type": "address"
            },
            {
              "internalType": "uint256",
              "name": "scaledATokenBalance",
              "type": "uint256"
            },
            {
              "internalType": "bool",
              "name": "usageAsCollateralEnabledOnUser",
              "type": "bool"
            },
            {
              "internalType": "uint256",
              "name": "stableBorrowRate",
              "type": "uint256"
            },
            {
              "internalType": "uint256",
              "name": "scaledVariableDebt",
              "type": "uint256"
            },
            {
              "internalType": "uint256",
              "name": "principalStableDebt",
              "type": "uint256"
            },
            {
              "internalType": "uint256",
              "name": "stableBorrowLastUpdateTimestamp",
              "type": "uint256"
            },
            {
              "internalType": "uint256",
              "name": "aTokenincentivesUserIndex",
              "type": "uint256"
            },
            {
              "internalType": "uint256",
              "name": "vTokenincentivesUserIndex",
              "type": "uint256"
            },
            {
              "internalType": "uint256",
              "name": "sTokenincentivesUserIndex",
              "type": "uint256"
            }
          ],
          "internalType": "struct IUiPoolDataProvider.UserReserveData[]",
          "name": "",
          "type": "tuple[]"
        },
        {
          "internalType": "uint8",
          "name": "",
          "type": "uint8"
        }
      ],
      "stateMutability": "view",
      "type": "function"
    },
    {
      "inputs": [],
      "name": "incentivesController",
      "outputs": [
        {
          "internalType": "contract IAaveIncentivesController",
          "name": "",
          "type": "address"
        }
      ],
      "stateMutability": "view",
      "type": "function"
    },
    {
      "inputs": [],
      "name": "oracle",
      "outputs": [
        {
          "internalType": "contract IPriceOracleGetter",
          "name": "",
          "type": "address"
        }
      ],
      "stateMutability": "view",
      "type": "function"
    }
  ],
  "bytecode": "0x60c06040523480156200001157600080fd5b506040516200204e3803806200204e833981016040819052620000349162000053565b6001600160601b0319606092831b8116608052911b1660a052620000aa565b6000806040838503121562000066578182fd5b8251620000738162000091565b6020840151909250620000868162000091565b809150509250929050565b6001600160a01b0381168114620000a757600080fd5b50565b60805160601c60a05160601c611f61620000ed6000398061080f5280610b0d5250806108335280610ec95280610f0b5280610fbe52806110715250611f616000f3fe608060405234801561001057600080fd5b50600436106100575760003560e01c806351974cc01461005c578063586c1442146100865780637dc0d1d0146100a6578063af1df255146100bb578063ec489c21146100c3575b600080fd5b61006f61006a366004611808565b6100e3565b60405161007d929190611dfc565b60405180910390f35b6100996100943660046117ec565b610718565b60405161007d9190611adb565b6100ae61080d565b60405161007d9190611ac7565b6100ae610831565b6100d66100d13660046117ec565b610855565b60405161007d9190611b28565b6060600080846001600160a01b0316630261bf8b6040518163ffffffff1660e01b815260040160206040518083038186803b15801561012157600080fd5b505afa158015610135573d6000803e3d6000fd5b505050506040513d601f19601f82011682018060405250810190610159919061171c565b90506000816001600160a01b031663d1946dbc6040518163ffffffff1660e01b815260040160006040518083038186803b15801561019657600080fd5b505afa1580156101aa573d6000803e3d6000fd5b505050506040513d6000823e601f3d908101601f191682016040526101d2919081019061173f565b90506000826001600160a01b0316634417a583876040518263ffffffff1660e01b81526004016102029190611ac7565b60206040518083038186803b15801561021a57600080fd5b505afa15801561022e573d6000803e3d6000fd5b505050506040513d601f19601f8201168201806040525081019061025291906119b1565b905060006001600160a01b03871661026b57600061026e565b82515b67ffffffffffffffff8111801561028457600080fd5b506040519080825280602002602001820160405280156102be57816020015b6102ab61149d565b8152602001906001900390816102a35790505b50905060005b8351811015610709576000856001600160a01b03166335ea6a758684815181106102ea57fe5b60200260200101516040518263ffffffff1660e01b815260040161030e9190611ac7565b6101806040518083038186803b15801561032757600080fd5b505afa15801561033b573d6000803e3d6000fd5b505050506040513d601f19601f8201168201806040525081019061035f91906118c1565b905084828151811061036d57fe5b602002602001015183838151811061038157fe5b60209081029190910101516001600160a01b03918216905260e0820151604051630ed1279f60e11b8152911690631da24f3e906103c2908c90600401611ac7565b60206040518083038186803b1580156103da57600080fd5b505afa1580156103ee573d6000803e3d6000fd5b505050506040513d601f19601f8201168201806040525081019061041291906119cc565b83838151811061041e57fe5b6020908102919091018101510152610436848361111b565b83838151811061044257fe5b602090810291909101015190151560409091015261046084836111de565b15610700578061012001516001600160a01b0316631da24f3e8a6040518263ffffffff1660e01b81526004016104969190611ac7565b60206040518083038186803b1580156104ae57600080fd5b505afa1580156104c2573d6000803e3d6000fd5b505050506040513d601f19601f820116820180604052508101906104e691906119cc565b8383815181106104f257fe5b602002602001015160800181815250508061010001516001600160a01b031663c634dfaa8a6040518263ffffffff1660e01b81526004016105339190611ac7565b60206040518083038186803b15801561054b57600080fd5b505afa15801561055f573d6000803e3d6000fd5b505050506040513d601f19601f8201168201806040525081019061058391906119cc565b83838151811061058f57fe5b602002602001015160a00181815250508282815181106105ab57fe5b602002602001015160a00151600014610700578061010001516001600160a01b031663e78c9b3b8a6040518263ffffffff1660e01b81526004016105ef9190611ac7565b60206040518083038186803b15801561060757600080fd5b505afa15801561061b573d6000803e3d6000fd5b505050506040513d601f19601f8201168201806040525081019061063f91906119cc565b83838151811061064b57fe5b602002602001015160600181815250508061010001516001600160a01b03166379ce6b8c8a6040518263ffffffff1660e01b815260040161068c9190611ac7565b60206040518083038186803b1580156106a457600080fd5b505afa1580156106b8573d6000803e3d6000fd5b505050506040513d601f19601f820116820180604052508101906106dc9190611a4f565b64ffffffffff168383815181106106ef57fe5b602002602001015160c00181815250505b506001016102c4565b50976000975095505050505050565b60606000826001600160a01b0316630261bf8b6040518163ffffffff1660e01b815260040160206040518083038186803b15801561075557600080fd5b505afa158015610769573d6000803e3d6000fd5b505050506040513d601f19601f8201168201806040525081019061078d919061171c565b9050806001600160a01b031663d1946dbc6040518163ffffffff1660e01b815260040160006040518083038186803b1580156107c857600080fd5b505afa1580156107dc573d6000803e3d6000fd5b505050506040513d6000823e601f3d908101601f19168201604052610804919081019061173f565b9150505b919050565b7f000000000000000000000000000000000000000000000000000000000000000081565b7f000000000000000000000000000000000000000000000000000000000000000081565b60606000826001600160a01b0316630261bf8b6040518163ffffffff1660e01b815260040160206040518083038186803b15801561089257600080fd5b505afa1580156108a6573d6000803e3d6000fd5b505050506040513d601f19601f820116820180604052508101906108ca919061171c565b90506000816001600160a01b031663d1946dbc6040518163ffffffff1660e01b815260040160006040518083038186803b15801561090757600080fd5b505afa15801561091b573d6000803e3d6000fd5b505050506040513d6000823e601f3d908101601f19168201604052610943919081019061173f565b90506000815167ffffffffffffffff8111801561095f57600080fd5b5060405190808252806020026020018201604052801561099957816020015b6109866114fb565b81526020019060019003908161097e5790505b50905060005b82518110156111125760008282815181106109b657fe5b602002602001015190508382815181106109cc57fe5b60209081029190910101516001600160a01b039081168083526040516335ea6a7560e01b81526000928816916335ea6a7591610a0b9190600401611ac7565b6101806040518083038186803b158015610a2457600080fd5b505afa158015610a38573d6000803e3d6000fd5b505050506040513d601f19601f82011682018060405250810190610a5c91906118c1565b60208101516001600160801b039081166101a085015260408083015182166101c0860152606083015182166101e08601526080830151821661020086015260a083015190911661022085015260c082015164ffffffffff1661024085015260e08201516001600160a01b03908116610260860152610100830151811661028086015261012083015181166102a086015261014083015181166102c08601528451915163b3596f0760e01b81529293507f0000000000000000000000000000000000000000000000000000000000000000169163b3596f0791610b4091600401611ac7565b60206040518083038186803b158015610b5857600080fd5b505afa158015610b6c573d6000803e3d6000fd5b505050506040513d601f19601f82011682018060405250810190610b9091906119cc565b61038083015281516102608301516040516370a0823160e01b81526001600160a01b03909216916370a0823191610bc991600401611ac7565b60206040518083038186803b158015610be157600080fd5b505afa158015610bf5573d6000803e3d6000fd5b505050506040513d601f19601f82011682018060405250810190610c1991906119cc565b826102e00181815250508161028001516001600160a01b031663797743386040518163ffffffff1660e01b815260040160806040518083038186803b158015610c6157600080fd5b505afa158015610c75573d6000803e3d6000fd5b505050506040513d601f19601f82011682018060405250810190610c999190611a11565b64ffffffffff16610340860152610320850152506103008301526102a08201516040805163b1bf962d60e01b815290516001600160a01b039092169163b1bf962d91600480820192602092909190829003018186803b158015610cfb57600080fd5b505afa158015610d0f573d6000803e3d6000fd5b505050506040513d601f19601f82011682018060405250810190610d3391906119cc565b8261036001818152505081600001516001600160a01b03166395d89b416040518163ffffffff1660e01b815260040160006040518083038186803b158015610d7a57600080fd5b505afa158015610d8e573d6000803e3d6000fd5b505050506040513d6000823e601f3d908101601f19168201604052610db69190810190611840565b826040018190525081600001516001600160a01b03166306fdde036040518163ffffffff1660e01b815260040160006040518083038186803b158015610dfb57600080fd5b505afa158015610e0f573d6000803e3d6000fd5b505050506040513d6000823e601f3d908101601f19168201604052610e379190810190611840565b60208301528051610e479061125d565b60e0870152606086015260c085015260a084015260808301528051610e6b90611288565b1515610140860152151561012085015215156101808401521515610160830152608082015115156101008301526102c0820151610ea7906112c4565b6104008601526103e08501526103c08401526103a08301526001600160a01b037f0000000000000000000000000000000000000000000000000000000000000000161561110857610260820151604051631652e7b760e01b81526001600160a01b037f00000000000000000000000000000000000000000000000000000000000000001691631652e7b791610f3f9190600401611ac7565b60606040518083038186803b158015610f5757600080fd5b505afa158015610f6b573d6000803e3d6000fd5b505050506040513d601f19601f82011682018060405250810190610f8f91906119e4565b6104808501526104208401526104e0830152610280820151604051631652e7b760e01b81526001600160a01b037f00000000000000000000000000000000000000000000000000000000000000001691631652e7b791610ff29190600401611ac7565b60606040518083038186803b15801561100a57600080fd5b505afa15801561101e573d6000803e3d6000fd5b505050506040513d601f19601f8201168201806040525081019061104291906119e4565b6104c08501526104608401526105208301526102a0820151604051631652e7b760e01b81526001600160a01b037f00000000000000000000000000000000000000000000000000000000000000001691631652e7b7916110a59190600401611ac7565b60606040518083038186803b1580156110bd57600080fd5b505afa1580156110d1573d6000803e3d6000fd5b505050506040513d601f19601f820116820180604052508101906110f591906119e4565b6104a08501526104408401526105008301525b505060010161099f565b50949350505050565b60006080821060405180604001604052806002815260200161373760f01b815250906111c55760405162461bcd60e51b81526004018080602001828103825283818151815260200191508051906020019080838360005b8381101561118a578181015183820152602001611172565b50505050905090810190601f1680156111b75780820380516001836020036101000a031916815260200191505b509250505060405180910390fd5b5050815160016002830281019190911c16151592915050565b60006080821060405180604001604052806002815260200161373760f01b8152509061124b5760405162461bcd60e51b815260206004820181815283516024840152835190928392604490910191908501908083836000831561118a578181015183820152602001611172565b50509051600160029092021c16151590565b5161ffff80821692601083901c821692602081901c831692603082901c60ff169260409290921c1690565b51670100000000000000811615159167020000000000000082161515916704000000000000008116151591670800000000000000909116151590565b600080600080846001600160a01b0316637b832f586040518163ffffffff1660e01b815260040160206040518083038186803b15801561130357600080fd5b505afa158015611317573d6000803e3d6000fd5b505050506040513d601f19601f8201168201806040525081019061133b91906119cc565b856001600160a01b03166365614f816040518163ffffffff1660e01b815260040160206040518083038186803b15801561137457600080fd5b505afa158015611388573d6000803e3d6000fd5b505050506040513d601f19601f820116820180604052508101906113ac91906119cc565b866001600160a01b0316630bdf953f6040518163ffffffff1660e01b815260040160206040518083038186803b1580156113e557600080fd5b505afa1580156113f9573d6000803e3d6000fd5b505050506040513d601f19601f8201168201806040525081019061141d91906119cc565b876001600160a01b031663ccab01a36040518163ffffffff1660e01b815260040160206040518083038186803b15801561145657600080fd5b505afa15801561146a573d6000803e3d6000fd5b505050506040513d601f19601f8201168201806040525081019061148e91906119cc565b93509350935093509193509193565b60405180610140016040528060006001600160a01b0316815260200160008152602001600015158152602001600081526020016000815260200160008152602001600081526020016000815260200160008152602001600081525090565b60405180610540016040528060006001600160a01b031681526020016060815260200160608152602001600081526020016000815260200160008152602001600081526020016000815260200160001515815260200160001515815260200160001515815260200160001515815260200160001515815260200160006001600160801b0316815260200160006001600160801b0316815260200160006001600160801b0316815260200160006001600160801b0316815260200160006001600160801b03168152602001600064ffffffffff16815260200160006001600160a01b0316815260200160006001600160a01b0316815260200160006001600160a01b0316815260200160006001600160a01b03168152602001600081526020016000815260200160008152602001600081526020016000815260200160008152602001600081526020016000815260200160008152602001600081526020016000815260200160008152602001600081526020016000815260200160008152602001600081526020016000815260200160008152602001600081525090565b805161080881611f13565b6000602082840312156116b5578081fd5b6040516020810181811067ffffffffffffffff821117156116d257fe5b6040529151825250919050565b80516001600160801b038116811461080857600080fd5b805164ffffffffff8116811461080857600080fd5b805160ff8116811461080857600080fd5b60006020828403121561172d578081fd5b815161173881611f13565b9392505050565b60006020808385031215611751578182fd5b825167ffffffffffffffff80821115611768578384fd5b818501915085601f83011261177b578384fd5b81518181111561178757fe5b8381029150611797848301611ebf565b8181528481019084860184860187018a10156117b1578788fd5b8795505b838610156117df57805194506117ca85611f13565b848352600195909501949186019186016117b5565b5098975050505050505050565b6000602082840312156117fd578081fd5b813561173881611f13565b6000806040838503121561181a578081fd5b823561182581611f13565b9150602083013561183581611f13565b809150509250929050565b600060208284031215611851578081fd5b815167ffffffffffffffff80821115611868578283fd5b818401915084601f83011261187b578283fd5b81518181111561188757fe5b61189a601f8201601f1916602001611ebf565b91508082528560208285010111156118b0578384fd5b611112816020840160208601611ee3565b60006101808083850312156118d4578182fd5b6118dd81611ebf565b90506118e984846116a4565b81526118f7602084016116df565b6020820152611908604084016116df565b6040820152611919606084016116df565b606082015261192a608084016116df565b608082015261193b60a084016116df565b60a082015261194c60c084016116f6565b60c082015261195d60e08401611699565b60e0820152610100611970818501611699565b90820152610120611982848201611699565b90820152610140611994848201611699565b908201526101606119a684820161170b565b908201529392505050565b6000602082840312156119c2578081fd5b61173883836116a4565b6000602082840312156119dd578081fd5b5051919050565b6000806000606084860312156119f8578081fd5b8351925060208401519150604084015190509250925092565b60008060008060808587031215611a26578081fd5b845193506020850151925060408501519150611a44606086016116f6565b905092959194509250565b600060208284031215611a60578081fd5b611738826116f6565b6001600160a01b03169052565b15159052565b60008151808452611a94816020860160208601611ee3565b601f01601f19169290920160200192915050565b6001600160801b03169052565b64ffffffffff169052565b60ff169052565b6001600160a01b0391909116815260200190565b6020808252825182820181905260009190848201906040850190845b81811015611b1c5783516001600160a01b031683529284019291840191600101611af7565b50909695505050505050565b60208082528251828201819052600091906040908185019080840286018301878501865b83811015611dee57603f198984030185528151610540611b6d858351611a69565b88820151818a870152611b8282870182611a7c565b9150508782015185820389870152611b9a8282611a7c565b606084810151908801526080808501519088015260a0808501519088015260c0808501519088015260e08085015190880152610100808501519193509150611be482880182611a76565b505061012080830151611bf982880182611a76565b505061014080830151611c0e82880182611a76565b505061016080830151611c2382880182611a76565b505061018080830151611c3882880182611a76565b50506101a080830151611c4d82880182611aa8565b50506101c080830151611c6282880182611aa8565b50506101e080830151611c7782880182611aa8565b505061020080830151611c8c82880182611aa8565b505061022080830151611ca182880182611aa8565b505061024080830151611cb682880182611ab5565b505061026080830151611ccb82880182611a69565b505061028080830151611ce082880182611a69565b50506102a080830151611cf582880182611a69565b50506102c080830151611d0a82880182611a69565b50506102e08281015190860152610300808301519086015261032080830151908601526103408083015190860152610360808301519086015261038080830151908601526103a080830151908601526103c080830151908601526103e08083015190860152610400808301519086015261042080830151908601526104408083015190860152610460808301519086015261048080830151908601526104a080830151908601526104c080830151908601526104e0808301519086015261050080830151908601526105209182015191909401529386019390860190600101611b4c565b509098975050505050505050565b6040808252835182820181905260009190606090818501906020808901865b83811015611ea2578151611e30868251611a69565b838101518487015287810151611e4889880182611a76565b5080870151868801526080808201519087015260a0808201519087015260c0808201519087015260e08082015190870152610100808201519087015261012090810151908601526101409094019390820190600101611e1b565b5050829550611eb381880189611ac0565b50505050509392505050565b60405181810167ffffffffffffffff81118282101715611edb57fe5b604052919050565b60005b83811015611efe578181015183820152602001611ee6565b83811115611f0d576000848401525b50505050565b6001600160a01b0381168114611f2857600080fd5b5056fea2646970667358221220ca13ca83f549cb62e4b95f3748bce4ce1aadcbcdc1222103aa4bc536f71f1b1864736f6c63430007060033",
  "linkReferences": {},
  "deployedLinkReferences": {}
}