{
  "_format": "hh-sol-artifact-1",
  "contractName": "UiIncentiveDataProviderV3",
  "sourceName": "contracts/misc/UiIncentiveDataProviderV3.sol",
  "abi": [
    {
      "inputs": [
        {
          "internalType": "address",
          "name": "_sculptToken",
          "type": "address"
        },
        {
          "internalType": "address",
          "name": "_chefIncentive",
          "type": "address"
        }
      ],
      "stateMutability": "nonpayable",
      "type": "constructor"
    },
    {
      "inputs": [
        {
          "internalType": "contract ILendingPoolAddressesProvider",
          "name": "provider",
          "type": "address"
        },
        {
          "internalType": "address",
          "name": "user",
          "type": "address"
        }
      ],
      "name": "getFullReservesIncentiveData",
      "outputs": [
        {
          "components": [
            {
              "internalType": "address",
              "name": "underlyingAsset",
              "type": "address"
            },
            {
              "components": [
                {
                  "internalType": "uint256",
                  "name": "emissionPerSecond",
                  "type": "uint256"
                },
                {
                  "internalType": "uint256",
                  "name": "incentivesLastUpdateTimestamp",
                  "type": "uint256"
                },
                {
                  "internalType": "uint256",
                  "name": "tokenIncentivesIndex",
                  "type": "uint256"
                },
                {
                  "internalType": "uint256",
                  "name": "emissionEndTimestamp",
                  "type": "uint256"
                },
                {
                  "internalType": "address",
                  "name": "tokenAddress",
                  "type": "address"
                },
                {
                  "internalType": "address",
                  "name": "rewardTokenAddress",
                  "type": "address"
                },
                {
                  "internalType": "address",
                  "name": "incentiveControllerAddress",
                  "type": "address"
                },
                {
                  "internalType": "uint8",
                  "name": "rewardTokenDecimals",
                  "type": "uint8"
                },
                {
                  "internalType": "uint8",
                  "name": "precision",
                  "type": "uint8"
                }
              ],
              "internalType": "struct IUiIncentiveDataProviderV2.IncentiveData",
              "name": "aIncentiveData",
              "type": "tuple"
            },
            {
              "components": [
                {
                  "internalType": "uint256",
                  "name": "emissionPerSecond",
                  "type": "uint256"
                },
                {
                  "internalType": "uint256",
                  "name": "incentivesLastUpdateTimestamp",
                  "type": "uint256"
                },
                {
                  "internalType": "uint256",
                  "name": "tokenIncentivesIndex",
                  "type": "uint256"
                },
                {
                  "internalType": "uint256",
                  "name": "emissionEndTimestamp",
                  "type": "uint256"
                },
                {
                  "internalType": "address",
                  "name": "tokenAddress",
                  "type": "address"
                },
                {
                  "internalType": "address",
                  "name": "rewardTokenAddress",
                  "type": "address"
                },
                {
                  "internalType": "address",
                  "name": "incentiveControllerAddress",
                  "type": "address"
                },
                {
                  "internalType": "uint8",
                  "name": "rewardTokenDecimals",
                  "type": "uint8"
                },
                {
                  "internalType": "uint8",
                  "name": "precision",
                  "type": "uint8"
                }
              ],
              "internalType": "struct IUiIncentiveDataProviderV2.IncentiveData",
              "name": "vIncentiveData",
              "type": "tuple"
            }
          ],
          "internalType": "struct IUiIncentiveDataProviderV2.AggregatedReserveIncentiveData[]",
          "name": "",
          "type": "tuple[]"
        },
        {
          "components": [
            {
              "internalType": "address",
              "name": "underlyingAsset",
              "type": "address"
            },
            {
              "components": [
                {
                  "internalType": "uint256",
                  "name": "tokenincentivesUserIndex",
                  "type": "uint256"
                },
                {
                  "internalType": "uint256",
                  "name": "userUnclaimedRewards",
                  "type": "uint256"
                },
                {
                  "internalType": "address",
                  "name": "tokenAddress",
                  "type": "address"
                },
                {
                  "internalType": "address",
                  "name": "rewardTokenAddress",
                  "type": "address"
                },
                {
                  "internalType": "address",
                  "name": "incentiveControllerAddress",
                  "type": "address"
                },
                {
                  "internalType": "uint8",
                  "name": "rewardTokenDecimals",
                  "type": "uint8"
                }
              ],
              "internalType": "struct IUiIncentiveDataProviderV2.UserIncentiveData",
              "name": "aTokenIncentivesUserData",
              "type": "tuple"
            },
            {
              "components": [
                {
                  "internalType": "uint256",
                  "name": "tokenincentivesUserIndex",
                  "type": "uint256"
                },
                {
                  "internalType": "uint256",
                  "name": "userUnclaimedRewards",
                  "type": "uint256"
                },
                {
                  "internalType": "address",
                  "name": "tokenAddress",
                  "type": "address"
                },
                {
                  "internalType": "address",
                  "name": "rewardTokenAddress",
                  "type": "address"
                },
                {
                  "internalType": "address",
                  "name": "incentiveControllerAddress",
                  "type": "address"
                },
                {
                  "internalType": "uint8",
                  "name": "rewardTokenDecimals",
                  "type": "uint8"
                }
              ],
              "internalType": "struct IUiIncentiveDataProviderV2.UserIncentiveData",
              "name": "vTokenIncentivesUserData",
              "type": "tuple"
            }
          ],
          "internalType": "struct IUiIncentiveDataProviderV2.UserReserveIncentiveData[]",
          "name": "",
          "type": "tuple[]"
        }
      ],
      "stateMutability": "view",
      "type": "function"
    },
    {
      "inputs": [
        {
          "internalType": "contract ILendingPoolAddressesProvider",
          "name": "provider",
          "type": "address"
        }
      ],
      "name": "getReservesIncentivesData",
      "outputs": [
        {
          "components": [
            {
              "internalType": "address",
              "name": "underlyingAsset",
              "type": "address"
            },
            {
              "components": [
                {
                  "internalType": "uint256",
                  "name": "emissionPerSecond",
                  "type": "uint256"
                },
                {
                  "internalType": "uint256",
                  "name": "incentivesLastUpdateTimestamp",
                  "type": "uint256"
                },
                {
                  "internalType": "uint256",
                  "name": "tokenIncentivesIndex",
                  "type": "uint256"
                },
                {
                  "internalType": "uint256",
                  "name": "emissionEndTimestamp",
                  "type": "uint256"
                },
                {
                  "internalType": "address",
                  "name": "tokenAddress",
                  "type": "address"
                },
                {
                  "internalType": "address",
                  "name": "rewardTokenAddress",
                  "type": "address"
                },
                {
                  "internalType": "address",
                  "name": "incentiveControllerAddress",
                  "type": "address"
                },
                {
                  "internalType": "uint8",
                  "name": "rewardTokenDecimals",
                  "type": "uint8"
                },
                {
                  "internalType": "uint8",
                  "name": "precision",
                  "type": "uint8"
                }
              ],
              "internalType": "struct IUiIncentiveDataProviderV2.IncentiveData",
              "name": "aIncentiveData",
              "type": "tuple"
            },
            {
              "components": [
                {
                  "internalType": "uint256",
                  "name": "emissionPerSecond",
                  "type": "uint256"
                },
                {
                  "internalType": "uint256",
                  "name": "incentivesLastUpdateTimestamp",
                  "type": "uint256"
                },
                {
                  "internalType": "uint256",
                  "name": "tokenIncentivesIndex",
                  "type": "uint256"
                },
                {
                  "internalType": "uint256",
                  "name": "emissionEndTimestamp",
                  "type": "uint256"
                },
                {
                  "internalType": "address",
                  "name": "tokenAddress",
                  "type": "address"
                },
                {
                  "internalType": "address",
                  "name": "rewardTokenAddress",
                  "type": "address"
                },
                {
                  "internalType": "address",
                  "name": "incentiveControllerAddress",
                  "type": "address"
                },
                {
                  "internalType": "uint8",
                  "name": "rewardTokenDecimals",
                  "type": "uint8"
                },
                {
                  "internalType": "uint8",
                  "name": "precision",
                  "type": "uint8"
                }
              ],
              "internalType": "struct IUiIncentiveDataProviderV2.IncentiveData",
              "name": "vIncentiveData",
              "type": "tuple"
            }
          ],
          "internalType": "struct IUiIncentiveDataProviderV2.AggregatedReserveIncentiveData[]",
          "name": "",
          "type": "tuple[]"
        }
      ],
      "stateMutability": "view",
      "type": "function"
    },
    {
      "inputs": [
        {
          "internalType": "contract ILendingPoolAddressesProvider",
          "name": "provider",
          "type": "address"
        },
        {
          "internalType": "address",
          "name": "user",
          "type": "address"
        }
      ],
      "name": "getUserReservesIncentivesData",
      "outputs": [
        {
          "components": [
            {
              "internalType": "address",
              "name": "underlyingAsset",
              "type": "address"
            },
            {
              "components": [
                {
                  "internalType": "uint256",
                  "name": "tokenincentivesUserIndex",
                  "type": "uint256"
                },
                {
                  "internalType": "uint256",
                  "name": "userUnclaimedRewards",
                  "type": "uint256"
                },
                {
                  "internalType": "address",
                  "name": "tokenAddress",
                  "type": "address"
                },
                {
                  "internalType": "address",
                  "name": "rewardTokenAddress",
                  "type": "address"
                },
                {
                  "internalType": "address",
                  "name": "incentiveControllerAddress",
                  "type": "address"
                },
                {
                  "internalType": "uint8",
                  "name": "rewardTokenDecimals",
                  "type": "uint8"
                }
              ],
              "internalType": "struct IUiIncentiveDataProviderV2.UserIncentiveData",
              "name": "aTokenIncentivesUserData",
              "type": "tuple"
            },
            {
              "components": [
                {
                  "internalType": "uint256",
                  "name": "tokenincentivesUserIndex",
                  "type": "uint256"
                },
                {
                  "internalType": "uint256",
                  "name": "userUnclaimedRewards",
                  "type": "uint256"
                },
                {
                  "internalType": "address",
                  "name": "tokenAddress",
                  "type": "address"
                },
                {
                  "internalType": "address",
                  "name": "rewardTokenAddress",
                  "type": "address"
                },
                {
                  "internalType": "address",
                  "name": "incentiveControllerAddress",
                  "type": "address"
                },
                {
                  "internalType": "uint8",
                  "name": "rewardTokenDecimals",
                  "type": "uint8"
                }
              ],
              "internalType": "struct IUiIncentiveDataProviderV2.UserIncentiveData",
              "name": "vTokenIncentivesUserData",
              "type": "tuple"
            }
          ],
          "internalType": "struct IUiIncentiveDataProviderV2.UserReserveIncentiveData[]",
          "name": "",
          "type": "tuple[]"
        }
      ],
      "stateMutability": "view",
      "type": "function"
    }
  ],
  "bytecode": "0x60806040523480156200001157600080fd5b5060405162001b2738038062001b27833981016040819052620000349162000083565b600180546001600160a01b039384166001600160a01b03199182161790915560008054929093169116179055620000ba565b80516001600160a01b03811681146200007e57600080fd5b919050565b6000806040838503121562000096578182fd5b620000a18362000066565b9150620000b16020840162000066565b90509250929050565b611a5d80620000ca6000396000f3fe608060405234801561001057600080fd5b50600436106100415760003560e01c80634763753614610046578063799bdcf514610070578063976fafc514610090575b600080fd5b6100596100543660046115bc565b6100b0565b604051610067929190611983565b60405180910390f35b61008361007e3660046115bc565b6100d1565b60405161006791906119b1565b6100a361009e3660046115a0565b6100e4565b6040516100679190611970565b6060806100bc846100f7565b6100c68585610a8c565b915091509250929050565b60606100dd8383610a8c565b9392505050565b60606100ef826100f7565b90505b919050565b60606000826001600160a01b0316630261bf8b6040518163ffffffff1660e01b815260040160206040518083038186803b15801561013457600080fd5b505afa158015610148573d6000803e3d6000fd5b505050506040513d601f19601f8201168201806040525081019061016c9190611462565b90506000816001600160a01b031663d1946dbc6040518163ffffffff1660e01b815260040160006040518083038186803b1580156101a957600080fd5b505afa1580156101bd573d6000803e3d6000fd5b505050506040513d6000823e601f3d908101601f191682016040526101e5919081019061147e565b90506000815167ffffffffffffffff8111801561020157600080fd5b5060405190808252806020026020018201604052801561023b57816020015b6102286112f4565b8152602001906001900390816102205790505b50905060005b8251811015610a8357600082828151811061025857fe5b6020026020010151905083828151811061026e57fe5b602002602001015181600001906001600160a01b031690816001600160a01b0316815250506000856001600160a01b03166335ea6a758685815181106102b057fe5b60200260200101516040518263ffffffff1660e01b81526004016102d49190611900565b6101806040518083038186803b1580156102ed57600080fd5b505afa158015610301573d6000803e3d6000fd5b505050506040513d601f19601f8201168201806040525081019061032591906115f4565b6000549091506001600160a01b0316156106ce57600080546040805163040f1f6d60e11b8152905183926001600160a01b03169163081e3eda916004808301926020929190829003018186803b15801561037e57600080fd5b505afa158015610392573d6000803e3d6000fd5b505050506040513d601f19601f820116820180604052508101906103b691906116e4565b905060005b8181101561046b5760e0840151600054604051634d05d17560e11b81526001600160a01b039283169290911690639a0ba2ea906103fc9085906004016119c4565b60206040518083038186803b15801561041457600080fd5b505afa158015610428573d6000803e3d6000fd5b505050506040513d601f19601f8201168201806040525081019061044c9190611462565b6001600160a01b031614156104635780925061046b565b6001016103bb565b506000805460e0850151604051639a7b5f1160e01b81526001600160a01b0390921691639a7b5f11916104a091600401611900565b60a06040518083038186803b1580156104b857600080fd5b505afa1580156104cc573d6000803e3d6000fd5b505050506040513d601f19601f820116820180604052508101906104f091906116fc565b5050604080516101208101808352600054633ab36aaf60e21b909152915192955093508392506001600160a01b03169063eacdaabc9061012480850191602091818703018186803b15801561054457600080fd5b505afa158015610558573d6000803e3d6000fd5b505050506040513d601f19601f8201168201806040525081019061057c91906116e4565b815260200182815260200184815260200160008054906101000a90046001600160a01b03166001600160a01b03166378e979256040518163ffffffff1660e01b815260040160206040518083038186803b1580156105d957600080fd5b505afa1580156105ed573d6000803e3d6000fd5b505050506040513d601f19601f8201168201806040525081019061061191906116e4565b6305a37b4001815260e08601516001600160a01b03908116602080840191909152600154821660408085018290526000549093166060850152825163313ce56760e01b81529251608090940193909263313ce567926004808301939192829003018186803b15801561068257600080fd5b505afa158015610696573d6000803e3d6000fd5b505050506040513d601f19601f820116820180604052508101906106ba9190611748565b60ff16815260126020918201528601525050505b6000546001600160a01b031615610a7957600080546040805163040f1f6d60e11b8152905183926001600160a01b03169163081e3eda916004808301926020929190829003018186803b15801561072457600080fd5b505afa158015610738573d6000803e3d6000fd5b505050506040513d601f19601f8201168201806040525081019061075c91906116e4565b905060005b8181101561081257610120840151600054604051634d05d17560e11b81526001600160a01b039283169290911690639a0ba2ea906107a39085906004016119c4565b60206040518083038186803b1580156107bb57600080fd5b505afa1580156107cf573d6000803e3d6000fd5b505050506040513d601f19601f820116820180604052508101906107f39190611462565b6001600160a01b0316141561080a57809250610812565b600101610761565b5060008054610120850151604051639a7b5f1160e01b81526001600160a01b0390921691639a7b5f119161084891600401611900565b60a06040518083038186803b15801561086057600080fd5b505afa158015610874573d6000803e3d6000fd5b505050506040513d601f19601f8201168201806040525081019061089891906116fc565b5050604080516101208101808352600054633ab36aaf60e21b909152915192955093508392506001600160a01b03169063eacdaabc9061012480850191602091818703018186803b1580156108ec57600080fd5b505afa158015610900573d6000803e3d6000fd5b505050506040513d601f19601f8201168201806040525081019061092491906116e4565b815260200182815260200184815260200160008054906101000a90046001600160a01b03166001600160a01b03166378e979256040518163ffffffff1660e01b815260040160206040518083038186803b15801561098157600080fd5b505afa158015610995573d6000803e3d6000fd5b505050506040513d601f19601f820116820180604052508101906109b991906116e4565b6305a37b400181526101208601516001600160a01b03908116602080840191909152600154821660408085018290526000549093166060850152825163313ce56760e01b81529251608090940193909263313ce567926004808301939192829003018186803b158015610a2b57600080fd5b505afa158015610a3f573d6000803e3d6000fd5b505050506040513d601f19601f82011682018060405250810190610a639190611748565b60ff168152601260209091015260408601525050505b5050600101610241565b50949350505050565b60606000600160009054906101000a90046001600160a01b031690506000846001600160a01b0316630261bf8b6040518163ffffffff1660e01b815260040160206040518083038186803b158015610ae357600080fd5b505afa158015610af7573d6000803e3d6000fd5b505050506040513d601f19601f82011682018060405250810190610b1b9190611462565b90506000816001600160a01b031663d1946dbc6040518163ffffffff1660e01b815260040160006040518083038186803b158015610b5857600080fd5b505afa158015610b6c573d6000803e3d6000fd5b505050506040513d6000823e601f3d908101601f19168201604052610b94919081019061147e565b905060006001600160a01b038616610bad576000610bb0565b81515b67ffffffffffffffff81118015610bc657600080fd5b50604051908082528060200260200182016040528015610c0057816020015b610bed611329565b815260200190600190039081610be55790505b50905060005b82518110156112e9576000846001600160a01b03166335ea6a75858481518110610c2c57fe5b60200260200101516040518263ffffffff1660e01b8152600401610c509190611900565b6101806040518083038186803b158015610c6957600080fd5b505afa158015610c7d573d6000803e3d6000fd5b505050506040513d601f19601f82011682018060405250810190610ca191906115f4565b9050838281518110610caf57fe5b6020026020010151838381518110610cc357fe5b60209081029190910101516001600160a01b039091169052610ce3611355565b6000546001600160a01b031615610fbf57600080546040805163040f1f6d60e11b8152905183926001600160a01b03169163081e3eda916004808301926020929190829003018186803b158015610d3957600080fd5b505afa158015610d4d573d6000803e3d6000fd5b505050506040513d601f19601f82011682018060405250810190610d7191906116e4565b905060005b81811015610e265760e0850151600054604051634d05d17560e11b81526001600160a01b039283169290911690639a0ba2ea90610db79085906004016119c4565b60206040518083038186803b158015610dcf57600080fd5b505afa158015610de3573d6000803e3d6000fd5b505050506040513d601f19601f82011682018060405250810190610e079190611462565b6001600160a01b03161415610e1e57809250610e26565b600101610d76565b506040805160018082528183019092528c9160009190602080830190803683370190505090508560e0015181600081518110610e5e57fe5b6001600160a01b039283166020918202929092010152600054604051631cb6a69360e31b8152606092919091169063e5b5349890610ea29086908690600401611914565b60006040518083038186803b158015610eba57600080fd5b505afa158015610ece573d6000803e3d6000fd5b505050506040513d6000823e601f3d908101601f19168201604052610ef6919081019061151c565b85875280519091508190600090610f0957fe5b6020908102919091018101518782015260e08801516001600160a01b039081166040808a0191909152600154821660608a0181905260005490921660808a0152805163313ce56760e01b81529051919263313ce56792600480840193829003018186803b158015610f7957600080fd5b505afa158015610f8d573d6000803e3d6000fd5b505050506040513d601f19601f82011682018060405250810190610fb19190611748565b60ff1660a087015250505050505b80848481518110610fcc57fe5b602002602001015160200181905250610fe3611355565b6000546001600160a01b0316156112c257600080546040805163040f1f6d60e11b8152905183926001600160a01b03169163081e3eda916004808301926020929190829003018186803b15801561103957600080fd5b505afa15801561104d573d6000803e3d6000fd5b505050506040513d601f19601f8201168201806040525081019061107191906116e4565b905060005b8181101561112757610120860151600054604051634d05d17560e11b81526001600160a01b039283169290911690639a0ba2ea906110b89085906004016119c4565b60206040518083038186803b1580156110d057600080fd5b505afa1580156110e4573d6000803e3d6000fd5b505050506040513d601f19601f820116820180604052508101906111089190611462565b6001600160a01b0316141561111f57809250611127565b600101611076565b506040805160018082528183019092528d9160009190602080830190803683370190505090508661012001518160008151811061116057fe5b6001600160a01b039283166020918202929092010152600054604051631cb6a69360e31b8152606092919091169063e5b53498906111a49086908690600401611914565b60006040518083038186803b1580156111bc57600080fd5b505afa1580156111d0573d6000803e3d6000fd5b505050506040513d6000823e601f3d908101601f191682016040526111f8919081019061151c565b8587528051909150819060009061120b57fe5b602090810291909101810151878201526101208901516001600160a01b039081166040808a0191909152600154821660608a0181905260005490921660808a0152805163313ce56760e01b81529051919263313ce56792600480840193829003018186803b15801561127c57600080fd5b505afa158015611290573d6000803e3d6000fd5b505050506040513d601f19601f820116820180604052508101906112b49190611748565b60ff1660a087015250505050505b808585815181106112cf57fe5b602090810291909101015160400152505050600101610c06565b509695505050505050565b604051806060016040528060006001600160a01b0316815260200161131761138a565b815260200161132461138a565b905290565b604051806060016040528060006001600160a01b0316815260200161134c611355565b81526020016113245b6040805160c081018252600080825260208201819052918101829052606081018290526080810182905260a081019190915290565b6040805161012081018252600080825260208201819052918101829052606081018290526080810182905260a0810182905260c0810182905260e0810182905261010081019190915290565b80516100f281611a0f565b6000602082840312156113f2578081fd5b6040516020810181811067ffffffffffffffff8211171561140f57fe5b6040529151825250919050565b80516fffffffffffffffffffffffffffffffff811681146100f257600080fd5b805164ffffffffff811681146100f257600080fd5b805160ff811681146100f257600080fd5b600060208284031215611473578081fd5b81516100dd81611a0f565b60006020808385031215611490578182fd5b825167ffffffffffffffff8111156114a6578283fd5b8301601f810185136114b6578283fd5b80516114c96114c4826119f1565b6119cd565b81815283810190838501858402850186018910156114e5578687fd5b8694505b838510156115105780516114fc81611a0f565b8352600194909401939185019185016114e9565b50979650505050505050565b6000602080838503121561152e578182fd5b825167ffffffffffffffff811115611544578283fd5b8301601f81018513611554578283fd5b80516115626114c4826119f1565b818152838101908385018584028501860189101561157e578687fd5b8694505b83851015611510578051835260019490940193918501918501611582565b6000602082840312156115b1578081fd5b81356100dd81611a0f565b600080604083850312156115ce578081fd5b82356115d981611a0f565b915060208301356115e981611a0f565b809150509250929050565b6000610180808385031215611607578182fd5b611610816119cd565b905061161c84846113e1565b815261162a6020840161141c565b602082015261163b6040840161141c565b604082015261164c6060840161141c565b606082015261165d6080840161141c565b608082015261166e60a0840161141c565b60a082015261167f60c0840161143c565b60c082015261169060e084016113d6565b60e08201526101006116a38185016113d6565b908201526101206116b58482016113d6565b908201526101406116c78482016113d6565b908201526101606116d9848201611451565b908201529392505050565b6000602082840312156116f5578081fd5b5051919050565b600080600080600060a08688031215611713578081fd5b85519450602086015193506040860151925060608601519150608086015161173a81611a0f565b809150509295509295909350565b600060208284031215611759578081fd5b6100dd82611451565b6000815180845260208085019450808401835b838110156117c457815180516001600160a01b031688528381015161179c858a0182611830565b50604001516117af610140890182611830565b50610260969096019590820190600101611775565b509495945050505050565b6000815180845260208085019450808401835b838110156117c457815180516001600160a01b0316885283810151611809858a01826118ac565b506040015161181b60e08901826118ac565b506101a09690960195908201906001016117e2565b80518252602081015160208301526040810151604083015260608101516060830152608081015160018060a01b0380821660808501528060a08401511660a08501528060c08401511660c0850152505060e081015161189260e08401826118f9565b50610100808201516118a6828501826118f9565b50505050565b8051825260208101516020830152604081015160018060a01b038082166040850152806060840151166060850152806080840151166080850152505060ff60a08201511660a08301525050565b60ff169052565b6001600160a01b0391909116815260200190565b6001600160a01b038381168252604060208084018290528451918401829052600092858201929091906060860190855b81811015611962578551851683529483019491830191600101611944565b509098975050505050505050565b6000602082526100dd6020830184611762565b6000604082526119966040830185611762565b82810360208401526119a881856117cf565b95945050505050565b6000602082526100dd60208301846117cf565b90815260200190565b60405181810167ffffffffffffffff811182821017156119e957fe5b604052919050565b600067ffffffffffffffff821115611a0557fe5b5060209081020190565b6001600160a01b0381168114611a2457600080fd5b5056fea2646970667358221220303cc21a163ce5f29d8174a12fdc7a1dd1b3e194cb48618b8f329b03eeadc43364736f6c63430007060033",
  "linkReferences": {},
  "deployedLinkReferences": {}
}