{
  "_format": "hh-sol-artifact-1",
  "contractName": "PriceFeed",
  "sourceName": "contracts/misc/PriceFeed.sol",
  "abi": [
    {
      "inputs": [
        {
          "internalType": "contract IChainlinkAggregator",
          "name": "_chainlinkOracleAddress",
          "type": "address"
        },
        {
          "internalType": "contract IBandStdReference",
          "name": "_bandOracleAddress",
          "type": "address"
        },
        {
          "internalType": "uint256",
          "name": "_timeout",
          "type": "uint256"
        },
        {
          "internalType": "string",
          "name": "_bandBase",
          "type": "string"
        }
      ],
      "stateMutability": "nonpayable",
      "type": "constructor"
    },
    {
      "anonymous": false,
      "inputs": [
        {
          "indexed": false,
          "internalType": "uint256",
          "name": "_lastGoodPrice",
          "type": "uint256"
        }
      ],
      "name": "LastGoodPriceUpdated",
      "type": "event"
    },
    {
      "anonymous": false,
      "inputs": [
        {
          "indexed": false,
          "internalType": "enum PriceFeed.Status",
          "name": "newStatus",
          "type": "uint8"
        }
      ],
      "name": "PriceFeedStatusChanged",
      "type": "event"
    },
    {
      "inputs": [],
      "name": "DECIMAL_PRECISION",
      "outputs": [
        {
          "internalType": "uint256",
          "name": "",
          "type": "uint256"
        }
      ],
      "stateMutability": "view",
      "type": "function"
    },
    {
      "inputs": [],
      "name": "MAX_PRICE_DEVIATION_FROM_PREVIOUS_ROUND",
      "outputs": [
        {
          "internalType": "uint256",
          "name": "",
          "type": "uint256"
        }
      ],
      "stateMutability": "view",
      "type": "function"
    },
    {
      "inputs": [],
      "name": "MAX_PRICE_DIFFERENCE_BETWEEN_ORACLES",
      "outputs": [
        {
          "internalType": "uint256",
          "name": "",
          "type": "uint256"
        }
      ],
      "stateMutability": "view",
      "type": "function"
    },
    {
      "inputs": [],
      "name": "TARGET_DIGITS",
      "outputs": [
        {
          "internalType": "uint256",
          "name": "",
          "type": "uint256"
        }
      ],
      "stateMutability": "view",
      "type": "function"
    },
    {
      "inputs": [],
      "name": "TIMEOUT",
      "outputs": [
        {
          "internalType": "uint256",
          "name": "",
          "type": "uint256"
        }
      ],
      "stateMutability": "view",
      "type": "function"
    },
    {
      "inputs": [],
      "name": "bandBase",
      "outputs": [
        {
          "internalType": "string",
          "name": "",
          "type": "string"
        }
      ],
      "stateMutability": "view",
      "type": "function"
    },
    {
      "inputs": [],
      "name": "bandOracle",
      "outputs": [
        {
          "internalType": "contract IBandStdReference",
          "name": "",
          "type": "address"
        }
      ],
      "stateMutability": "view",
      "type": "function"
    },
    {
      "inputs": [],
      "name": "bandQuote",
      "outputs": [
        {
          "internalType": "string",
          "name": "",
          "type": "string"
        }
      ],
      "stateMutability": "view",
      "type": "function"
    },
    {
      "inputs": [],
      "name": "chainlinkOracle",
      "outputs": [
        {
          "internalType": "contract IChainlinkAggregator",
          "name": "",
          "type": "address"
        }
      ],
      "stateMutability": "view",
      "type": "function"
    },
    {
      "inputs": [],
      "name": "fetchPrice",
      "outputs": [
        {
          "internalType": "uint256",
          "name": "",
          "type": "uint256"
        }
      ],
      "stateMutability": "view",
      "type": "function"
    },
    {
      "inputs": [],
      "name": "lastGoodPrice",
      "outputs": [
        {
          "internalType": "uint256",
          "name": "",
          "type": "uint256"
        }
      ],
      "stateMutability": "view",
      "type": "function"
    },
    {
      "inputs": [],
      "name": "status",
      "outputs": [
        {
          "internalType": "enum PriceFeed.Status",
          "name": "",
          "type": "uint8"
        }
      ],
      "stateMutability": "view",
      "type": "function"
    },
    {
      "inputs": [],
      "name": "updatePrice",
      "outputs": [
        {
          "internalType": "uint256",
          "name": "",
          "type": "uint256"
        }
      ],
      "stateMutability": "nonpayable",
      "type": "function"
    }
  ],
  "bytecode": "0x60a06040523480156200001157600080fd5b506040516200192138038062001921833981810160405260808110156200003757600080fd5b8151602083015160408085015160608601805192519496939591949391820192846401000000008211156200006b57600080fd5b9083019060208201858111156200008157600080fd5b82516401000000008111828201881017156200009c57600080fd5b82525081516020918201929091019080838360005b83811015620000cb578181015183820152602001620000b1565b50505050905090810190601f168015620000f95780820380516001836020036101000a031916815260200191505b506040525050600080546001600160a01b038088166001600160a01b031992831617909255600180549287169290911691909117905550608082905280516200014a9060029060208401906200076d565b506004805460ff1916905560006200016162000221565b905060006200017f826000015183608001516200038860201b60201c565b90506200018d82826200047a565b158015620001b7575083620001b5836040015142620004a060201b620003d51790919060201c565b105b620001f45760405162461bcd60e51b8152600401808060200182810382526030815260200180620018f16030913960400191505060405180910390fd5b620002118260200151836080015160ff16620004ea60201b60201c565b6003555062000847945050505050565b6200022b62000802565b60008054906101000a90046001600160a01b03166001600160a01b031663313ce5676040518163ffffffff1660e01b815260040160206040518083038186803b1580156200027857600080fd5b505afa9250505080156200029f57506040513d60208110156200029a57600080fd5b505160015b620002aa5762000385565b60ff16608082015260008054906101000a90046001600160a01b03166001600160a01b031663feaf968c6040518163ffffffff1660e01b815260040160a06040518083038186803b158015620002ff57600080fd5b505afa9250505080156200034357506040513d60a08110156200032157600080fd5b5080516020820151604083015160608401516080909401519293919290919060015b6200034e5762000385565b6001600160501b038516865260808601516200036f90859060ff16620004ea565b6020870152506040850152505060016060830152505b90565b6200039262000802565b60005460408051639a6fc8f560e01b81526001600160501b03600019870116600482015290516001600160a01b0390921691639a6fc8f59160248082019260a092909190829003018186803b158015620003eb57600080fd5b505afa9250505080156200042f57506040513d60a08110156200040d57600080fd5b5080516020820151604083015160608401516080909401519293919290919060015b6200043a5762000474565b6001600160501b0385168652620004558460ff8916620004ea565b602087015250604085015250505060ff82166080820152600160608201525b92915050565b6000620004878362000550565b80620004995750620004998262000550565b9392505050565b60006200049983836040518060400160405280601e81526020017f536166654d6174683a207375627472616374696f6e206f766572666c6f770000815250620005c160201b60201c565b600080601283106200051e576200051660128403600a0a856200065c60201b620004201790919060201c565b905062000499565b601283101562000499576200054883601203600a0a85620006a660201b620004621790919060201c565b949350505050565b600081606001516200056557506001620005bc565b81516001600160501b03166200057e57506001620005bc565b60408201511580620005935750428260400151115b15620005a257506001620005bc565b6000826020015111620005b857506001620005bc565b5060005b919050565b60008184841115620006545760405162461bcd60e51b81526004018080602001828103825283818151815260200191508051906020019080838360005b8381101562000618578181015183820152602001620005fe565b50505050905090810190601f168015620006465780820380516001836020036101000a031916815260200191505b509250505060405180910390fd5b505050900390565b60006200049983836040518060400160405280601a81526020017f536166654d6174683a206469766973696f6e206279207a65726f0000000000008152506200070460201b60201c565b600082620006b75750600062000474565b82820282848281620006c557fe5b0414620004995760405162461bcd60e51b8152600401808060200182810382526021815260200180620018d06021913960400191505060405180910390fd5b60008183620007565760405162461bcd60e51b815260206004820181815283516024840152835190928392604490910191908501908083836000831562000618578181015183820152602001620005fe565b5060008385816200076357fe5b0495945050505050565b828054600181600116156101000203166002900490600052602060002090601f016020900481019282620007a55760008555620007f0565b82601f10620007c057805160ff1916838001178555620007f0565b82800160010185558215620007f0579182015b82811115620007f0578251825591602001919060010190620007d3565b50620007fe92915062000830565b5090565b6040805160a08101825260008082526020820181905291810182905260608101829052608081019190915290565b5b80821115620007fe576000815560010162000831565b6080516110646200086c600039806103b35280610d795280610dba52506110646000f3fe608060405234801561001057600080fd5b50600436106100cf5760003560e01c806358a6aa881161008c578063a20baee611610066578063a20baee6146101e0578063afa22d1f146101e8578063ef06e72c146101f0578063f56f48f2146101f8576100cf565b806358a6aa88146101ac578063673a7e28146101b4578063956dcd1f146101bc576100cf565b80630490be83146100d45780630fdb11cf146100ee5780631be5c92f146100f6578063200d2ed2146100fe57806326d182d51461012757806345079cb4146101a4575b600080fd5b6100dc610200565b60408051918252519081900360200190f35b6100dc610206565b6100dc610219565b61010661021e565b6040518082600481111561011657fe5b815260200191505060405180910390f35b61012f610227565b6040805160208082528351818301528351919283929083019185019080838360005b83811015610169578181015183820152602001610151565b50505050905090810190601f1680156101965780820380516001836020036101000a031916815260200191505b509250505060405180910390f35b6100dc6102b2565b6100dc6102bd565b6100dc6102c9565b6101c4610368565b604080516001600160a01b039092168252519081900360200190f35b6100dc610377565b61012f610383565b6101c46103a2565b6100dc6103b1565b60035481565b6000806102116104bb565b925050505b90565b601281565b60045460ff1681565b6002805460408051602060018416156101000260001901909316849004601f810184900484028201840190925281815292918301828280156102aa5780601f1061027f576101008083540402835291602001916102aa565b820191906000526020600020905b81548152906001019060200180831161028d57829003601f168201915b505050505081565b66b1a2bc2ec5000081565b6706f05b59d3b2000081565b60008060006102d66104bb565b600381905590925090508160048111156102ec57fe5b6004805460ff16908111156102fd57fe5b14610362576004805483919060ff19166001838381111561031a57fe5b02179055507f5c57579a8214fe4f710c1c56fa829f045b9fa6d225a744225a30c32188064d4e826040518082600481111561035157fe5b815260200191505060405180910390a15b91505090565b6001546001600160a01b031681565b670de0b6b3a764000081565b604051806040016040528060038152602001621554d160ea1b81525081565b6000546001600160a01b031681565b7f000000000000000000000000000000000000000000000000000000000000000081565b600061041783836040518060400160405280601e81526020017f536166654d6174683a207375627472616374696f6e206f766572666c6f77000081525061081b565b90505b92915050565b600061041783836040518060400160405280601a81526020017f536166654d6174683a206469766973696f6e206279207a65726f0000000000008152506108b7565b6000826104715750600061041a565b8282028284828161047e57fe5b04146104175760405162461bcd60e51b815260040180806020018281038252602181526020018061100e6021913960400191505060405180910390fd5b60008060006104c861091c565b905060006104de82600001518360800151610a79565b905060006104ea610b66565b905060006004805460ff16908111156104ff57fe5b14156106585761050f8383610d10565b156105615761051d81610d2a565b1561053357600260035494509450505050610817565b61053c81610d75565b1561055257600160035494509450505050610817565b51600194509250610817915050565b61056a83610db6565b156105bb5761057881610d2a565b1561058e57600460035494509450505050610817565b61059781610d75565b156105ac576003805494509450505050610817565b51600394509250610817915050565b6105c58383610df0565b15610628576105d381610d2a565b156105e957600260035494509450505050610817565b6105f281610d75565b1561060857600160035494509450505050610817565b6106128382610e62565b1561055257505060200151600092509050610817565b61063181610d2a565b1561064757505060200151600492509050610817565b505060200151600092509050610817565b60016004805460ff169081111561066b57fe5b141561069b5761067c838383610ec5565b1561069257505060200151600092509050610817565b61051d81610d2a565b60026004805460ff16908111156106ae57fe5b14156106e6576106bf838383610ec5565b156106d557505060200151600092509050610817565b600260035494509450505050610817565b60036004805460ff16908111156106f957fe5b141561076b576107098383610d10565b156107175761051d81610d2a565b61072083610db6565b1561072e5761057881610d2a565b61073781610d2a565b1561074d57505060200151600492509050610817565b61075681610d75565b15610608576003805494509450505050610817565b6004805460ff168181111561077c57fe5b14156108135761078c8383610d10565b156107a257600260035494509450505050610817565b6107ab83610db6565b156107c157600460035494509450505050610817565b6107cc838383610ec5565b156107e257505060200151600092509050610817565b6107ec8383610df0565b1561080257600260035494509450505050610817565b505060200151600492509050610817565b5050505b9091565b600081848411156108aa5760405162461bcd60e51b81526004018080602001828103825283818151815260200191508051906020019080838360005b8381101561086f578181015183820152602001610857565b50505050905090810190601f16801561089c5780820380516001836020036101000a031916815260200191505b509250505060405180910390fd5b50508183035b9392505050565b600081836109065760405162461bcd60e51b815260206004820181815283516024840152835190928392604490910191908501908083836000831561086f578181015183820152602001610857565b50600083858161091257fe5b0495945050505050565b610924610fbc565b60008054906101000a90046001600160a01b03166001600160a01b031663313ce5676040518163ffffffff1660e01b815260040160206040518083038186803b15801561097057600080fd5b505afa92505050801561099557506040513d602081101561099057600080fd5b505160015b61099e57610216565b60ff16608082015260008054906101000a90046001600160a01b03166001600160a01b031663feaf968c6040518163ffffffff1660e01b815260040160a06040518083038186803b1580156109f257600080fd5b505afa925050508015610a3457506040513d60a0811015610a1257600080fd5b5080516020820151604083015160608401516080909401519293919290919060015b610a3d57610216565b69ffffffffffffffffffff851686526080860151610a5f90859060ff16610f1d565b602087015250604085015250506001606083015250610216565b610a81610fbc565b60005460408051639a6fc8f560e01b815269ffffffffffffffffffff600019870116600482015290516001600160a01b0390921691639a6fc8f59160248082019260a092909190829003018186803b158015610adc57600080fd5b505afa925050508015610b1e57506040513d60a0811015610afc57600080fd5b5080516020820151604083015160608401516080909401519293919290919060015b610b275761041a565b69ffffffffffffffffffff85168652610b438460ff8916610f1d565b602087015250604085015250505060ff821660808201526001606082015261041a565b610b6e610fea565b6001805460408051808201825260038152621554d160ea1b6020820152815163195556f360e21b81526004810192835260028054600019968116156101000296909601909516859004604482018190526001600160a01b03909416946365555bcc94909391829160248201916064019086908015610c2d5780601f10610c0257610100808354040283529160200191610c2d565b820191906000526020600020905b815481529060010190602001808311610c1057829003601f168201915b5050838103825284518152845160209182019186019080838360005b83811015610c61578181015183820152602001610c49565b50505050905090810190601f168015610c8e5780820380516001836020036101000a031916815260200191505b5094505050505060606040518083038186803b158015610cad57600080fd5b505afa925050508015610ce157506040513d6060811015610ccd57600080fd5b508051602082015160409092015190919060015b610cea57610216565b828452808210610cfa5780610cfc565b815b602085015250506001604083015250610216565b6000610d1b83610f5a565b80610417575061041782610f5a565b60008160400151610d3d57506001610d70565b60208201511580610d515750428260200151115b15610d5e57506001610d70565b8151610d6c57506001610d70565b5060005b919050565b60007f0000000000000000000000000000000000000000000000000000000000000000610daf8360200151426103d590919063ffffffff16565b1192915050565b60007f0000000000000000000000000000000000000000000000000000000000000000610daf8360400151426103d590919063ffffffff16565b602080830151908201516000919082818310610e0c5781610e0e565b825b9050600082841015610e205782610e22565b835b90506000610e4c82610e46670de0b6b3a7640000610e4083886103d5565b90610462565b90610420565b6706f05b59d3b200001098975050505050505050565b602082015181516000919082828210610e7b5782610e7d565b815b9050600083831015610e8f5783610e91565b825b90506000610eaf83610e46670de0b6b3a7640000610e4086846103d5565b66b1a2bc2ec50000101598975050505050505050565b6000610ed082610d2a565b80610edf5750610edf82610d75565b80610eef5750610eef8484610d10565b80610efe5750610efe84610db6565b15610f0b575060006108b0565b610f158483610e62565b949350505050565b60008060128310610f4057610f39846011198501600a0a610420565b9050610417565b601283101561041757610f15846012859003600a0a610462565b60008160600151610f6d57506001610d70565b815169ffffffffffffffffffff16610f8757506001610d70565b60408201511580610f9b5750428260400151115b15610fa857506001610d70565b6000826020015111610d6c57506001610d70565b6040805160a08101825260008082526020820181905291810182905260608101829052608081019190915290565b60405180606001604052806000815260200160008152602001600015158152509056fe536166654d6174683a206d756c7469706c69636174696f6e206f766572666c6f77a26469706673582212204f29ca370d24ebe05e8fd9f4352cdb7440c01a6ee544a94b921cc96856be36a764736f6c63430007060033536166654d6174683a206d756c7469706c69636174696f6e206f766572666c6f775072696365466565643a20436861696e6c696e6b206d75737420626520776f726b696e6720616e642063757272656e74",
  "linkReferences": {},
  "deployedLinkReferences": {}
}